:020000040800F2
:1000000038220020450200086F380008412E000801
:100010006D38000827160008733C00080000000037
:10002000000000000000000000000000AD0100081A
:100030007F16000800000000F1010008F9390008EF
:100040005F0200085F0200085F0200085F0200080C
:100050005F0200085F020008E51800085F02000860
:100060005F0200085F0200085F0200085F020008EC
:100070005F0200085F0200085F0200085F020008DC
:100080005F0200085F0200085F0200085F020008CC
:100090005F0200085F0200085F0200085F020008BC
:1000A0005F0200085F0200085F0200085F020008AC
:1000B0005F0200085F020008753A00085F0200084E
:1000C0005F0200085F0200085F0200085F0200088C
:1000D0005F0200085F0200085F0200085F0200087C
:1000E0005F0200085F0200085F02000800F002F8EB
:1000F00000F04DF80AA090E8000C82448344AAF175
:100100000107DA4501D100F042F8AFF2090EBAE872
:100110000F0013F0010F18BFFB1A43F0010318473B
:100120003C6800005C680000103A24BF78C878C1C1
:10013000FAD8520724BF30C830C144BF04680C60ED
:10014000704700000023002400250026103A28BF35
:1001500078C1FBD8520728BF30C148BF0B60704739
:10016000662906F05E82642900F0A080752900F0FF
:100170009D80002070471FB500F014FD0400002092
:10018000002105F097FDE0601FBD10B510BD00F027
:100190000DFE1146FFF7EFFF03F098FD00F02BFE78
:1001A00003B4FFF7F2FF03BC00F06EFE224B1968A8
:1001B0000868B0E8F00F80F30988BFF36F8F4FF045
:1001C000000080F311884EF00D0E70470000000013
:1001D00006480068006880F3088862B661B6BFF31D
:1001E0004F8FBFF36F8F00DF00BF00BF08ED00E04F
:1001F000EFF30980BFF36F8F0F4B1A6820E9F00F00
:10020000106008B54FF0500080F31188BFF34F8F96
:10021000BFF36F8F04F04CFE4FF0000080F31188A5
:10022000BDE8084019680868B0E8F00F80F3098855
:10023000BFF36F8F704700BF58000020EFF30580B9
:10024000704700000948804709480047FEE7FEE77D
:10025000FEE7FEE7FEE7FEE7FEE7FEE7FEE7FEE776
:1002600004480549054A064B70470000713A0008EA
:10027000ED000008381C002038220020381E002025
:10028000381E00200FB41CB5074B06AA7B446946F4
:100290000090059800F04BFC0020694600F05AFCE5
:1002A0001CBC5DF814FB0000C50800002DE9F041FE
:1002B0000646002410687529314616A510D0AFF304
:1002C0000080002802DA404213A507E031688A075F
:1002D00001D512A502E0490704D511A5012401E0CA
:1002E000AFF3008000210A2206F1240709E0B0FBE9
:1002F000F2FCB0FBF2F302FB1C00303078541846DD
:10030000491C0028F3D123462A463046BDE8F04177
:1003100000F09FB9000000002D0000002B0000003D
:10032000200000002DE9F05F894604464FF0000AE6
:10033000DFF874B1FB44C0F820A02046E16888478C
:10034000002874D0252806D0D4E901219047206ADE
:10035000401C2062F1E700265F462046E16888479E
:100360002028054607DB312D05D2781910F8200C1E
:1003700008B10643F1E7B00701D526F00406C4F83A
:100380001CA00027C4F818A02A2D09D0284603F085
:1003900095FC38B304EB8708303DC8F8185019E0D5
:1003A00059F8041B204604EB87029161E1688847F5
:1003B000012F054618D1E069002820DA26F0200632
:1003C0001DE0D8F8180000EB800005EB4000303845
:1003D000C8F818002046E1688847054603F06EFC1F
:1003E0000028EED1012F0AD02E2D08D12046E16839
:1003F00088477F1C0546022F46F02006C4DBA06913
:10040000002803DA404246F00106A061F00701D05F
:1004100026F010066C2D0BD0682D09D04C2D39D04C
:100420006A2D35D0742D35D07A2D33D016E038E0D2
:10043000E1682F4620468847B842054609D16C2F0F
:1004400026D04FF48060E168064320468847054681
:1004500004E06C2F1AD04FF4807006430DB3A5F161
:100460004100192802D8203546F400664A4629463C
:10047000204626604E46FFF773FE80B101280BD060
:10048000F61D26F0070000F1080956E74020E4E7D2
:100490008020D8E70020D6E706F104094DE728467A
:1004A00052E7206ABDE8F09F8664000010B5431C47
:1004B00002E010F8011B71B18107FAD14FF001324F
:1004C00002C88C1A8C4314EAC211F9D0C01A0A0669
:1004D00003D0C01E10BDC01A10BD0A0401D0801E7A
:1004E00010BD0902FCD0401E10BD032A40F230802E
:1004F00010F0030C00F0158011F8013BBCF1020F65
:10050000624498BF11F801CB00F8013B38BF11F8E5
:10051000013BA2F1040298BF00F801CB38BF00F8FC
:10052000013B11F0030300F02580083AC0F0088079
:1005300051F8043B083A51F804CBA0E80810F5E75D
:10054000121D5CBF51F8043B40F8043BAFF3008040
:10055000D20724BF11F8013B11F801CB48BF11F8B5
:10056000012B24BF00F8013B00F801CB48BF00F885
:10057000012B704710B5203AC0F00B80B1E818503D
:10058000203AA0E81850B1E81850A0E81850BFF47D
:10059000F5AF5FEA027C24BFB1E81850A0E818501C
:1005A00044BF18C918C0BDE810405FEA827C24BF70
:1005B00051F8043B40F8043B08BF7047D20728BFFE
:1005C00031F8023B48BF11F8012B28BF20F8023B4D
:1005D00048BF00F8012B704702F0FF0343EA0322F3
:1005E00042EA024200F0BDBA4FF0000200B51346E5
:1005F00094469646203922BFA0E80C50A0E80C5043
:10060000B1F12001BFF4F7AF090728BFA0E80C50F3
:1006100048BF0CC05DF804EB890028BF40F8042BEC
:1006200008BF704748BF20F8022B11F0804F18BF59
:1006300000F8012B704770477047704710B500F005
:10064000B5FA006810BD10B5044600F0AFFA0460BA
:1006500010BD2DE9F0470D4699469246044600F13B
:1006600024080168880604D5E06921F010012160A2
:1006700000E00120A84201DD471B00E00027A1693E
:100680007A1902EB0900081AA0612078C00602D48A
:100690002046AFF30080002608E0D4E901211AF8D3
:1006A00006009047206A401C761C20624E45F4DB11
:1006B0002078C0060AD52046AFF3008006E0D4E9D2
:1006C000012130209047206A401C2062381EA7F18B
:1006D0000107F4DC07E0D4E9012118F80500904790
:1006E000206A401C2062281EA5F10105F3DC20468B
:1006F000AFF300802078000602D50220BDE8F08725
:100700000120FBE770472DE9FF4F0C461E464FF0D6
:10071000FF378BB0D2E90001DDF860800A908A468D
:10072000C1F30A5505B93D46002108464FF00000C7
:10073000BAF1000F00F4400005DA00EB80004FF43E
:10074000400101EA50004FEA9059B9F1010F00DD74
:10075000B9460A9850EA4A000ED044F61050A5F265
:10076000FF3545432F14B8F1000F1ED07542291EE6
:100770001EDDC9F100021CE0B8F1010F4FF00000CE
:1007800001D0302103E0F24305E02154401CB04287
:10079000FBDB30460022002121540B99C1F8088070
:1007A000C1E900200FB0BDE8F08FBD1B6D1CDEE776
:1007B0004A4600DA694206A800F082FA06AB93E8DE
:1007C000070003AB83E8070050460A9900F063FB7B
:1007D0008DE80700A0F500501F3800900398002D09
:1007E0000ADD42F21F014A460844002303A9039090
:1007F000684600F0CCFD09E0A0F500504A461F38DD
:10080000002303A90390684600F0D6FD8DE8070099
:100810000004000C03D04FF0FF30410800E0104608
:10082000B8F1000F03D00022009215461EE0751E9D
:1008300005D400F0BFF9303262556D1EF9D5B346CC
:100840000122084302D000227F1C04E020783028D7
:1008500001D100227F1E002A099784D01DE0112DAE
:1008600007DA00F0A7F9303262556D1C50EA010238
:10087000F5D1084302D00098C8B10EE00021681EEF
:1008800005E0235C625C63542254401E491C814293
:10089000F7DBAB46A81B401E0990002004F80B00B4
:1008A0000B98099AC0F80880C0E9002B7AE7112656
:1008B0004FF0000857E72DE9F04F88460446D21D57
:1008C00022F0070191B0D1E90001CDE90A0103F05E
:1008D000D1F902460B98C00F01D02D2007E0206807
:1008E000810701D52B2002E0202101EAC000032A64
:1008F000099001D0072A05DB03464146204600F057
:100900009FF90BE12078800601D5E06900E0062020
:10091000B8F1650F814606D0B8F1660F18D0B8F16E
:10092000670F70D131E00020B9F1110F009001DBA9
:10093000112301E009F101030AAA01A90CA8FFF79C
:10094000E2FEDDE90C70002609F10105834647E06F
:1009500001204B4600904FF000470AAA01A90CA8BD
:10096000FFF7D1FEDDE90DB00C995D46002610B908
:1009700009F101000D18B9EB050003D4C0F1FF36F1
:1009800009F10105A5EB09002BE0B9F1010F01DA2E
:100990004FF001090020B9F1110F0090484601DD28
:1009A000112300E003460AAA01A90CA8FFF7ABFE39
:1009B000DDE90C704D4600268346207800070AD4F6
:1009C000AB4500DA5D4601A8012D04DD411911F89F
:1009D000011C302907D04F4502DA17F1040F04DA61
:1009E000012082460FE06D1EEEE7002F02DCED1BBA
:1009F0003E4403E0781CA84200DD7D1CB81B00F1DA
:100A0000010A4FF000472078000703D4AA4501DB14
:100A10004FF0FF3A0021B7F1004F0DF143088DF878
:100A2000431024D002202B23002F01DA7F422D23F4
:100A30000A21021EA0F1010000DC5FB197FBF1FC6E
:100A400097FBF1F201FB1C7C17460CF1300C08F807
:100A500001CDEEE7A8F1010003702188090501D559
:100A6000452100E06521A0F1010800F8011C09986A
:100A70000FA9A1EB0807FF1D00B10120411901EBEF
:100A8000EA70A1693844081A401EA0612078C006A7
:100A900002D42046AFF30080099828B1D4E901219F
:100AA0009047206A401C20622078C00622D520464C
:100AB000AFF300801EE0002E04DBB34502DD01A889
:100AC000805D00E03020D4E901219047206A401C7D
:100AD0002062761CAAF101005FEA000A0AD100F048
:100AE00061F8C0680168405CD4E901219047206A40
:100AF000401C2062281EA5F10105DCDC07E0D4E9DA
:100B0000012118F8010B9047206A401C2062381E12
:100B1000A7F10107F3DC2046AFF30080032011B0FA
:100B200041E6000001694A1C02610878704700B57F
:100B30008FB0CDE901310021059105497944CDE916
:100B4000031011466846FFF7EDFB0FB000BD000033
:100B5000E5FFFFFF0A6802F8010B0A6070474FF0DB
:100B600000020429C0F0128010F0030C3FF43EADE7
:100B7000CCF1040CBCF1020F18BF00F8012BA8BF88
:100B800020F8022BA1EB0C01FFF730BD5FEAC17C1E
:100B900024BF00F8012B00F8012B48BF00F8012BFF
:100BA0007047000000487047F81B0020004870475D
:100BB000D81B002030B5B0F10A024FEA900E71F157
:100BC00000034EEA817EB0EB0E0061EB91014FEA2B
:100BD000101E4EEA017E10EB0E0041EB11114FEAA0
:100BE000102E4EEA016E10EB0E0041EB11214FEA80
:100BF000104E4EEA014E10EB0E0041EB1141401831
:100C000041F100014FEAD00040EA41704FEAD101C2
:100C100010EB80054FEA810444EA907444EB010430
:100C20006D1944EB0404521BA3414FF0000348BF6D
:100C30000A3200D530BD401C41F1000130BD00003A
:100C40002DE9F0411F46044603260168072A01F4F6
:100C5000006004DB08B116A505E016A503E008B1A5
:100C600015A500E015A521F010002060A069C01EA8
:100C7000A0610FB1401EA0612046AFF300804FB1CC
:100C8000D4E9012138469047206A401C2062C01CEC
:100C9000206206E0206AFAE7D4E9012115F8010B89
:100CA0009047761EF8D22046AFF30080BDE8F08171
:100CB0004E414E006E616E00494E4600696E660000
:100CC0002DE9F047814616468AB0354878440DC86C
:100CD0008DE80D0032487844801C03AC0DC884E8D0
:100CE0000D0041F69B300844372190FBF1F290FB58
:100CF000F1F5A5F1800501FB12041B3C02D564420D
:100D0000012000E00020DFF898A080460027FA4488
:100D1000AAF1BE0A0EE0E0070AD03246684607EBA9
:100D2000470101230AEB810100F046FB8DE8070033
:100D300064107F1C002CEED1194F7F44AE3F19E0A8
:100D4000E80715D007EB04100DF1180A90E80E0023
:100D50008AE80E00C068F04201D198190890324626
:100D6000012306A903A800F027FB03AB83E80700D3
:100D70006D10641C002DE3D14FF00103324669462B
:100D8000B8F1000F03A802D000F001FB01E000F071
:100D900013FBC9E90001C9F808200AB0BDE8F087D3
:100DA0007C5B000000487047D81B00207546FFF7A9
:100DB000F9FFAE4605006946534620F00700854618
:100DC00018B020B5FFF74CFABDE820404FF0000600
:100DD0004FF000074FF000084FF0000B21F0070123
:100DE000AC46ACE8C009ACE8C009ACE8C009ACE866
:100DF000C0098D46704710B50446AFF30080204609
:100E0000BDE81040FFF7CCB94FF0013C50F8042B7F
:100E100051F8043B9A4221D1A2EB0C03934313EA0D
:100E2000CC1317D150F8042B51F8043B9A4215D13A
:100E3000A2EB0C03934313EACC130BD150F8042B11
:100E400051F8043B9A4209D1A2EB0C03934313EAF5
:100E5000CC13DBD04FF00000704700BFD01A01BAAE
:100E6000B1FA81F101F0180122FA01F0CB40C1F191
:100E70002001DBB2C0B2C01A2CFA01F3D11A91439F
:100E800011EAC311E6D1704701491820ABBEFEE755
:100E90002600020070475FEA400C08BF91F0000F87
:100EA0004FEA8C234FEAC12243EA51514FEA1C50CA
:100EB00018BF00F5F0404FEA300018BF41F0004184
:100EC0005FEA6C5C00F02980BCF1FF3F08BF40F096
:100ED00080407047130C06BF12044FF0100C4FF007
:100EE000000C130E04BF12020CF1080C130F04BF08
:100EF00012010CF1040C930F04BF92000CF1020CD0
:100F0000D30F04BF52000CF1010C11464FF0000248
:100F1000A0F11F00A0EB0C00704711F0004F08BFBC
:100F2000704731F000413FF4D5AF0B0C06BF090408
:100F30004FF0100C4FF0000C0B0E04BF09020CF127
:100F4000080C0B0F04BF09010CF1040C8B0F04BF3C
:100F500089000CF1020CCB0F04BF49000CF1010C0D
:100F6000CCF12003A0EB0C0022FA03F302FA0CF2FE
:100F700041EA030100F10100704720F07F4C80EA54
:100F8000030023F07F47ACEB070303F57C5300F02D
:100F9000004003F1FF032DE980494FEA154B09B4E6
:100FA0004FEA144325EA0B4E24EA03480FF20426C5
:100FB00006EB132749083E785FEA320203FB066717
:100FC000C7F5000707FB06F64FEA54374FEAD64647
:100FD00006F1020607FB066CCCF1005C4FEA1C47E9
:100FE0002CEA074C07FB06F40CFB06F504EB154650
:100FF0004FEA961634BF00204FF000404FEAD13739
:1010000006FB07FC4FEA1C4C0CFB0BF7D21B03FB47
:101010000CF761EB07010CFB0EF7B0EB074072EB2E
:1010200017420CFB08F734BFA2EB0742B2EB0742B2
:1010300061EB17414FEA0C444FEA910706FB07FCAE
:101040004FEA1C4C0CFB0BF7B0EBC74072EB57326E
:1010500003FB0CF734BFA2EBC742B2EBC74261EB14
:1010600057310CFB0EF7B0EBC70072EB57720CFB5D
:1010700008F734BFA2EBC702B2EBC70261EB5771AE
:10108000039F4FEA816141EA921104EBCC044FEADD
:10109000D1374FEA826206FB07FC42EA90124FEA20
:1010A00080604FEA1C4C0CFB0BF7D21B03FB0CF7C8
:1010B00061EB07010CFB0EF7B0EB074072EB174238
:1010C0000CFB08F734BFA2EB0742B2EB074261EB1F
:1010D00017414FEA8C554FEA910704EB9C2406FB1D
:1010E00007FC4FEA1C4C0CFB0BF7B0EBC74072EB54
:1010F000573203FB0CF734BFA2EBC742B2EBC74237
:1011000061EB57310CFB0EF7B0EBC70072EB577277
:101110000CFB08F734BFA2EBC702B2EBC70261EBCE
:10112000577115EB4C254FEA816141EA92114FEA64
:1011300082624FEAD13742EA901206FB07FC44F183
:1011400000044FEA80604FEA1C4C0CFB0BF7D21BEB
:1011500003FB0CF761EB07010CFB0EF7B0EB07404C
:1011600072EB17420CFB08F734BFA2EB0742B2EB5D
:10117000074261EB174115EB1C154FEA813141EA3B
:1011800092414FEA823242EA90424FEA80304FEA7F
:101190000C7644F1000448EA03434EEA0B484FF052
:1011A000000EB2EB080C71EB030724BF6246394610
:1011B0004EEB0E0E4FF0000B0018524149414BEB25
:1011C0000B0BB2EB080C71EB03077BF1000B24BF98
:1011D000624639464EEB0E0E4FF0000B001852419E
:1011E00049414BEB0B0BB2EB080C71EB03077BF1A6
:1011F000000B24BF624639464EEB0E0E51EA020741
:1012000018BF46F0010616EB0E7655F1000254F1B8
:10121000000103D5BDE88901BDE80088BDE889016A
:10122000BDE80048B619524141EB0101A3F10103A9
:10123000704780807F7E7D7C7B7A79787776767543
:101240007473727171706F6E6E6D6C6C6B6A6A69BB
:101250006868676666656464636362616160605F55
:101260005F5E5E5D5D5C5C5B5B5A5A5959585857CE
:101270005756565555555454535352525251515036
:1012800050504F4F4F4E4E4D4D4D4C4C4C4B4B4B89
:101290004A4A4A49494948484847474747464646CF
:1012A000454545444444444343434342424242410A
:1012B0004141002B9C4630D477002BD01CB54FEA1F
:1012C000370703B44FF010004FF01001BAF1000FD0
:1012D00006D0BCF1000FDCBF40F0080040F0080170
:1012E0004FF000000FBCBDE810400BF1010BBBF14B
:1012F000010F08BF5FEA170722BF12F1010211F1C7
:1013000001014FF0004143F1000300F0004043EAC7
:1013100000007047F9D35708D0E746EA064613F1B4
:10132000400F4FEA16461FDD13F1200FDFBF1643B3
:101330000A46002120335B42BED0C3F1200746EAB3
:10134000064602FA07F74FEA164646EA0706C3F1D1
:10135000200722FA03F201FA07F721FA03F14FF00E
:10136000000342EA0702A7E746EA020646EA064603
:101370004FEA164646EA0106BCBF46EA0646360C68
:101380004FF000034FF000024FF0000194E72DE909
:10139000804C9A46934670B491E8380007C831EA09
:1013A000400C48BF34EA430C03D5FFF7E6FDFFF7D6
:1013B00080FFF0BCBDE8008C2DE9804C9A46934636
:1013C00070B491E8380007C810F0804F08BF13F0E0
:1013D000804F03D100F005F8FFF76BFFF0BCBDE8CC
:1013E000008C20F07F4780EA030023F07F4C07EB5E
:1013F0000C03A3F57C5300F00040A3F1FE0392F030
:10140000000F00F0B38095F0000F00F077802DE919
:1014100001494FEA11404FEA144621EA004800FB17
:1014200006FC24EA064708FB06F607FB08F800FB63
:1014300007F718EB06484CEB164C4FEA124B18EB2B
:1014400007484FEA15464CEB174022EA0B4E0BFBC0
:1014500006FC25EA06470EFB06F607FB0EFE0BFB15
:1014600007F71EEB064E4CEB164C4FF000061EEB3A
:10147000074E4CEB174B18EB0B0840F1000018EB34
:101480000E0B58EB000840F100008F1A4FF00001DE
:101490003CBFC943661B14BFB5EB040C00213CBF25
:1014A000C943F61B4FEA17444EEA8E0E27EA04455D
:1014B0004FEA1C4704FB07622CEA074C05FB07F7C1
:1014C0000CFB05F604FB0CFC16EB074642EB17423F
:1014D00016EB0C4642EB1C421BEB060658EB0202D5
:1014E000414146EA9E0601D5BDE80189B61952413F
:1014F00041EB0101A3F10103BDE801894FEA144565
:101500004FEA114724EA054621EA074C05FB07F498
:1015100006FB07F70CFB06F105FB0CFC11EB074182
:1015200044EB17444FEA124711EB0C4144EB1C44C7
:1015300022EA074C05FB07F206FB07F70CFB06F651
:1015400005FB0CFC16EB074642EB174216EB0C466C
:1015500042EB1C456A1854F1000148BF7047B619A8
:10156000524141EB0101A3F10103704795F0000FD7
:1015700037D04FEA11424FEA144721EA024624EAE3
:10158000074C02FB07F106FB07F70CFB06F402FB16
:101590000CFC14EB074441EB17414FEA154714EBE1
:1015A0000C4441EB1C4125EA074C02FB07F506FB06
:1015B00007F70CFB06F602FB0CFC16EB074645EBA7
:1015C000174516EB0C4645EB1C42121951F1000170
:1015D00048BF7047B619524141EB0101A3F1010325
:1015E00070474FEA14454FEA114724EA054621EABD
:1015F000074C05FB07F106FB07F70CFB06F24FF063
:10160000000605FB0CFC12EB074241EB174112EB05
:101610000C4251EB1C4148BF7047921841EB01014D
:10162000A3F101037047FEE710B504F085FFBDE8A4
:10163000104020F00040014904F05EBD0000A040D1
:1016400070B50C4606461146084604F077FE05467E
:101650002146084604F072FE04463146084604F06E
:101660006DFE214604F0D4FC294604F0D1FC04F0C0
:10167000A3FC03F00DF9BDE8704004F031BB7047E6
:101680002DE9FC5F044604F029F9074694E80700B9
:10169000FFF7D6FF0C34054694E807000C3CFFF733
:1016A000CFFF824694E80700664CA37800F020F94B
:1016B00080462846A169FFF7B7FF8346A5612078D9
:1016C00000264FF00109052836D2DFE800F00317A5
:1016D00064AEB0005C4885420EDDBAF17E5F0BDD82
:1016E000C4E90375656184F8019084F8028084F888
:1016F0000390484626712070BDE8FC9FE0683A1AC6
:10170000C82A01D951A10BE0A178884515D02079CC
:10171000401CC2B2227184F80280032A0DD352A168
:101720005848FEF7AFFD5748FEF7C0FE82B264236B
:101730005449554801F034FB81E0544885427EDD30
:10174000BAF17C5F7BDD6078401CC7B267703846B9
:1017500004F0ACFD8146781E04F090FD616904F050
:10176000EDFD294604F054FC494604F0C5FC6061D7
:101770002846216904F0AEFE00D22561A178884593
:1017800007D1E078401CC0B2E0700228B4D3022038
:10179000B1E7E670B0E73E49606904F0CFFD21692A
:1017A00004F098FD22D23B49206988421EDDBBF13E
:1017B0007C5F1BDD84F805900321A760217004F095
:1017C000FBFBE2680B46BA1A0092024632A12D4892
:1017D000FEF758FD2B48FEF769FE02B082B2BDE865
:1017E000F05F64232749284801F0DABAD4E90401FC
:1017F00004F082FC04F0E0FB05460F46584604F076
:10180000DBFBCDE9005702460B462CA11D48FEF735
:1018100039FD1C48FEF74AFE82B2642319491A4872
:1018200001F0BEFA84F8059009E0042063E7A0689F
:10183000381AB0F5FA7FADD929488542AADA267060
:101840005AE700000C0000206666E63F5377696E99
:10185000672028546F6F206C6F6E673A20256C7577
:10186000206D73290D0A00005377696E67202844A4
:101870006972206368616E6765733A202564290D7B
:101880000A000000D8000020740200206666663F4F
:101890006666863F713D0A4054617020285065613C
:1018A0006B3A20252E3266672C204475723A20252B
:1018B0006C75206D73290D0A000000005377696E66
:1018C000672028536D6F6F74683A20252E32662C7E
:1018D00020526174696F3A20252E3266290D0A0064
:1018E0009A99993F012000F095B872B6FEE7000082
:1018F0002DE9F05F8A46834620F0004821F000453C
:101900001E4691464FF4000722F000444046294607
:1019100004F0E0FD0AD82146404604F0DBFD05D87E
:10192000BB4501DA012716E0002714E041462846AE
:1019300004F0D0FD0AD82146284604F0CBFD05D896
:10194000BA4501DB022706E0032704E0B94501DBC5
:10195000042700E00527B74223D0062E21D000211E
:101960000846062E09D2DFE806F00303050507073F
:10197000414602E0294600E02146062F09D2DFE871
:1019800007F0030305050707404602E0284600E08C
:10199000204604F0D1FD044920F00040884200DADE
:1019A00037463846BDE8F09FCDCCCC3E70B50446F6
:1019B00000F02CF90546601C02D00448007804446D
:1019C00000F024F9401BA042FAD370BD480000206B
:1019D00010B501280FD108A10C48FEF753FC0B48A5
:1019E000FEF764FD82B2BDE810404FF0FF330749B7
:1019F000074801F0D5B910BD4558544920747269A3
:101A0000676765726564210D0A000000D800002038
:101A100074020020044910B50A68024202D008602E
:101A2000FFF7D6FF10BD0000140401402DE9F84F68
:101A3000DFF8B8910024A9F1040B23460F2709F120
:101A4000040AABF1040EC9E00125A5402A40AA42D0
:101A50007DD1674ED1F804C0ACEB0608B44532D056
:101A600014DCBCF1030F3AD009DCBCF1000F2AD022
:101A7000BCF1010F1CD0BCF1020F31D11DE0BCF153
:101A8000110F17D0BCF1120F2AD119E0B8F5881F39
:101A900019D006DCB8F5803F15D0B8F5801F1FD1EE
:101AA00011E0B8F5001F0ED0B8F5041F18D10AE0F8
:101AB000CB6815E0CB681B1D12E0CB6808330FE044
:101AC000CB680C330CE08B682BB1012B4FF0080373
:101AD00003D0456104E0042302E0056100E0002337
:101AE000FF2A01D8064601E000F104064FEA84050A
:101AF00001D9A5F12005D6F8008007FA05FC28EAEF
:101B00000C0803FA05F548EA0508C6F800804D6898
:101B1000ED0062D5374DAE6946F00106AE61AD69A4
:101B200024F0030605F001050095334D06EB050C86
:101B3000DCF80850A607360F07FA06F825EA08056C
:101B4000DFF8B880404503D14FF0000817E044E0CB
:101B5000DFF8AC80404502D14FF001080FE0DFF81C
:101B6000A480404502D14FF0020808E0DFF89880D9
:101B7000404502D14FF0030801E04FF0040808FA95
:101B800006F848EA0508CCF808804D68D9F80060E6
:101B9000ED024D4601D5164300E096432E604D6898
:101BA000DAF80060AD02554601D5164300E09643D1
:101BB0002E604D68DBF80060AD035D4601D516432D
:101BC00000E096432E604D68DEF80060ED03754638
:101BD00001D5164300E096432E60641C0D682A462A
:101BE000E5407FF431AFBDE8F88F00000804014004
:101BF00000001110001002400000014000080140E8
:101C0000000C0140001001400014014001488068B0
:101C1000704700004800002070B5040025D094F8FB
:101C20003D00002520B984F83C50204600F0A4FB7C
:101C3000242084F83D002068016821F00101016042
:101C40002068016841F4004101602068016821F4C6
:101C50000041016000F060FD4D4A6168914201D889
:101C60004C4900E04C49884201D2012070BD4B49EB
:101C70002368B0FBF1F15E6826F03F060E435E601C
:101C80006368934206D94FF4967359434FF47A73BD
:101C9000B1FBF3F12368491C1E6A26F03F0631436D
:101CA00019626168914210D84900401EB0FBF1F200
:101CB000521CC2F30B02042A01D2042022E0B0FB22
:101CC000F1F0401CC0F30B001CE0A268F2B301EB82
:101CD000C10303EB0116431EB3FBF6F35B1C43F495
:101CE00080431B0549D092B301EBC10202EB011105
:101CF000401EB0FBF1F0401CC0F30B0040F48040EC
:101D000040F400402168CA694CF6FF739A431043BF
:101D1000C861D4E9071001432068026822F0C002BC
:101D200011430160D4E9030101432068826848F24D
:101D3000FF339A4311438160D4E9050108432168C8
:101D4000CA6822F0FF021043C86001E00EE016E00E
:101D50002068016841F0010101602564202084F8B9
:101D60003D00256384F83E50002070BD01EB410624
:101D7000431EB3FBF6F35B1CB3E70120C2E701EBA4
:101D80004101401EB0FBF1F0401CC0F30B00B7E76F
:101D9000A086010080841E0000093D0040420F0023
:101DA0002DE9F84F0025DDF82890984617468A4619
:101DB00004460095FFF72AFF064694F83D002028C8
:101DC0007AD11923012286492046009601F0BEF9F6
:101DD0000028F5D194F83C0001286DD0012084F84A
:101DE0003C0020680168C90703D1016841F0010186
:101DF00001602068016821F400610160222084F8FC
:101E00003D00102084F83E0025646762A4F82A8013
:101E1000608D20857348E06233464A46514620462D
:101E200001F026F800287CD1208DDFF8BC81202726
:101E300068B1012814D00228206801681ED041F43E
:101E4000806101602068416980690090BBE0206882
:101E5000416981690091016841F400710160B2E05B
:101E60002068016821F48061016072B620684169D0
:101E700081690091016841F400710AE041F4006158
:101E8000016072B62068416981690091016821F49E
:101E90008061016062B696E0032865D801280CD005
:101EA00002284B464FF000024146204600960BD0D8
:101EB00001F04CF9A8BB0CE090E0324649462046C0
:101EC00001F0EAF968BB71E001F040F948BB72B675
:101ED00033E02068016821F48061016072B62068F7
:101EE0000069616A0870606A401C6062208D401E53
:101EF0002085608D401E60853C4846F2A811006830
:101F0000B0FBF1F0C0EBC00000EB80000090401E81
:101F1000009007D020684069C04340070DD5009865
:101F2000F5E727E044F8305F6773A573206940F058
:101F30002000206162B625731CE02068016841F42E
:101F40000071016020680069616A0870606A401C65
:101F50006062218D491E2185618D491E618562B6B1
:101F600021680969017025E032464946204601F0A2
:101F700093F910B10120BDE8F88F20680069616A0B
:101F80000870606A401C6062208D401E81B221850D
:101F9000608D401E608520684269D243520712D48A
:101FA000032903D1016821F4806101602068006980
:101FB000616A0870606A401C6062208D401E208546
:101FC000608D401E6085208D00287FF465AF84F809
:101FD0003D7084F83E5084F83C50CCE70220CAE7BC
:101FE000020010000000FFFF040001005400002068
:101FF0002DE9F84F1F4690468A460446DDF82890A2
:10200000FFF704FE054694F83D0020287FD11923F0
:10201000012240492046009501F098F8002876D129
:1020200094F83C00012872D0012084F83C0020681C
:102030000168C90703D1016841F00101016020680E
:10204000016821F400610160212084F83D00102026
:1020500084F83E0000262664C4F824806785608DDD
:1020600020852D48E0622B464A465146204600F026
:1020700075FF90B9206841698069009036E02A4672
:102080004946204601F040F950B1206C042804D1A3
:102090002068016841F4007101600120BDE8F88FFB
:1020A000606A216800780861606A401C6062618D26
:1020B000491E6185218D491E89B221852268536997
:1020C000DB435B070BD451B100781061606A401CA0
:1020D0006062608D401E6085208D401E20852A46EE
:1020E0004946204601F006F80028CED1208D002870
:1020F000C5D154F83D0B016841F400710160202006
:1021000004F81E09E67766770020C7E7FFE702209C
:10211000C4E70000020010000000FFFF2DE9FF4FA0
:1021200083B00025DDE910799A4693460446DDF830
:1021300048800095FFF76AFD064694F83D00202888
:102140007CD11923012288492046009600F0FEFF29
:102150000028F5D194F83C0001286FD0012084F8C4
:102160003C0020680168C90703D1016841F0010102
:1021700001602068016821F400610160222084F878
:102180003D00402084F83E0025646762A4F82A9050
:10219000608D20857548E062CDE9008653465A4639
:1021A0002046049900F028FF00287CD1208DDFF81C
:1021B000C091202768B1012814D002282068016846
:1021C0001ED041F4806101602068416980690090FF
:1021D000BCE02068416981690091016841F40071A7
:1021E0000160B3E02068016821F48061016072B68B
:1021F0002068416981690091016841F400710AE039
:1022000041F40061016072B6206841698169009102
:10221000016821F48061016062B697E0032865D807
:1022200001280CD0022843464FF0000249462046C0
:1022300000960BD000F08AFFA8BB0CE091E032467C
:102240004146204601F028F868BB72E000F07EFFAE
:1022500048BB72B633E02068016821F480610160F8
:1022600072B620680069616A0870606A401C60622A
:10227000208D401E2085608D401E60853D4846F2C1
:10228000A8110068B0FBF1F0C0EBC00000EB8000CB
:102290000090401E009007D020684069C04340076E
:1022A0000DD50098F5E727E044F8305F6773A57314
:1022B000206940F02000206162B625731CE0206890
:1022C000016841F40071016020680069616A08706A
:1022D000606A401C6062218D491E2185618D491E06
:1022E000618562B621680969017026E0324641467F
:1022F000204600F0D1FF18B1012007B0BDE8F08FF3
:1023000020680069616A0870606A401C6062208D04
:10231000401E81B22185608D401E60852068426923
:10232000D243520712D4032903D1016821F48061FA
:10233000016020680069616A0870606A401C606220
:10234000208D401E2085608D401E6085208D0028D8
:102350007FF464AF84F83D7084F83E5084F83C50BC
:10236000CBE70220C9E70000020010000000FFFFD9
:10237000040001005400002010B586B00021009137
:1023800001910291039100680F4988421AD10F4CC4
:10239000A06940F00800A061A069694600F008004B
:1023A0000490C02000901220019003200390084860
:1023B000FFF73CFBE06940F40010E061E06900F4E5
:1023C0000010049006B010BD005400400010024000
:1023D000000C014002488168027811448160704716
:1023E00048000020074810B5016841F01001016065
:1023F000032000F0A7F80F2000F006F800F050F8D6
:10240000002010BD0020024030B505461F4887B0AF
:10241000C16941F00401C161C06906A900F004006E
:10242000009001A800F058F90498B0B100F074F9D8
:1024300040001749174AB0FBF1F11748491E0260E6
:10244000416040F2E7320021C0E9032181608161EF
:1024500000F03AFB040003D015E000F05DF9E8E776
:102460000D4800F05FFB04000DD11E2000F03CF889
:10247000102D07D2002229461E2000F043F80748FD
:10248000056000E0012407B0204630BD0010024086
:1024900040420F0000080040BC0200204C00002019
:1024A0000F4808B5816941F001018161816901F03E
:1024B00001010091C16941F08051C161C0690022F0
:1024C00000F0805000900F21901E00F01BF805488E
:1024D000416821F0E06141F08061416008BD000089
:1024E0000010024000000140002809DB00F01F023C
:1024F000012191404009800000F1E020C0F8001166
:1025000070470000F0B40E4B1B680C46C3F3022367
:10251000C3F10705042D00D90425191D072901D28F
:10252000002300E0DB1E012606FA05F1491E2140CA
:1025300099409E40761E16403143F0BC01F0AEBB80
:102540000CED00E0064900F0070208684FF6FF03B3
:10255000184040EA0220034A104308607047000018
:102560000CED00E00000FA050E4A10B5136823F0E8
:1025700002031360136823F00103034313600A4C42
:10258000206840F004002060012909D040BF01F01C
:102590006FF901F06DF9206820F00400206010BD93
:1025A00030BFF8E70070004010ED00E02DE9F04783
:1025B0000F46050061D0434E306800F00700B84276
:1025C00009D2306820F0070038433060306800F0EE
:1025D0000700B84251D128683B4C810712D540070B
:1025E00003D5606840F4E06060602878000703D598
:1025F000606840F4605060606068A96820F0F00096
:10260000084360602878C00728D06868012810D087
:102610002168022810D0890700292EDA616821F08C
:10262000030101436160FFF7F1FA804641F2883906
:102630000DE021688903EFE78901EDE7FFF7E6FA8E
:10264000A0EB0801494502D90320BDE8F087606886
:10265000696800F00C00B0EB810FEFD1306800F03A
:102660000700B8420BD9306820F0070038433060CB
:10267000306800F00700B84201D00120E5E7287873
:10268000400705D56068E96820F4E06008436060B1
:102690002878000706D56068296920F4605040EA70
:1026A000C100606000F058F86168084AC1F3031186
:1026B000515CC8400649086006480068FFF7A4FE60
:1026C0000020C2E70020024000100240A667000878
:1026D000540000204C0000200F2202600C4A536876
:1026E00003F003034360536803F0F003836053680F
:1026F00003F4E063C36052684FF4E06303EAD2027C
:1027000002610448006800F007000860704700009C
:102710000010024000200240044805490068496852
:10272000044AC1F30221515CC840704754000020A4
:1027300000100240B667000804480549006849686F
:10274000044AC1F3C221515CC840704754000020C4
:1027500000100240B66700080E4A51680E4801F0AA
:102760000C03042B11D0082B0FD10C48C1F3834369
:10277000C903C05C0AD55168084AC1F34041921EA2
:10278000515C054A5043B0FBF1F07047044948439F
:10279000704700000010024000127A00966700089F
:1027A00000093D002DE9F84F040070D02078C04D9D
:1027B000C00749D06868C0F38100012807D0686865
:1027C000C0F38100022809D16868C00306D52868D3
:1027D000800339D560680028E7D035E06068B0F53F
:1027E000803F0BD010B1B0F5A02F11D0286820F495
:1027F00080302860286820F4802002E0286840F4B7
:1028000080302860606890B1FFF700FA06460AE061
:10281000286840F480202860F0E700BFFFF7F6F951
:10282000801B642873D828688003F7D50CE0FFF775
:10283000EDF9064605E000BFFFF7E8F9801B6428C4
:10284000F0D828688003F7D420789A4E80074FF09C
:1028500001094FF0000839D5686810F00C0F07D057
:102860006868C0F38100022809D16868C00306D4F3
:102870002868800714D52069012808D110E0206954
:10288000B0B1C6F80090FFF7C1F9074605E00AE1CC
:10289000FFF7BCF9C01B0228C4D828688007F7D509
:1028A0002868616920F0F80040EAC10028600DE066
:1028B000C6F80080FFF7AAF9074604E0FFF7A6F97B
:1028C000C01B022823D828688007F7D42078000787
:1028D0002CD57948A169D9B1C0F80090FFF796F9D5
:1028E000074604E0FFF792F9C01B02280FD8686A78
:1028F0008007F7D571484FF4FA510068B0FBF1F04A
:10290000009000BF0098411E0091FAD20EE080E0D6
:10291000C0F80080FFF77AF9074604E0FFF776F980
:10292000C01B022875D8686A8007F7D42078400752
:1029300060D5E8690027C00008D4E86940F08050FD
:10294000E861E869012700F0805000905C48016868
:10295000C90513D40168834641F480710160FFF713
:1029600055F9824606E000BFFFF750F9A0EB0A00D8
:1029700064284ED8DBF80000C005F5D5E0680128D2
:102980000AD008B1052813D0286A20F00100286277
:10299000286A20F0040002E0286A40F00100286262
:1029A000E06841F2883B98B1FFF730F982460BE0CE
:1029B000286A40F004002862EEE700BFFFF726F91E
:1029C000A0EB0A0159455AD8286A8007F6D50CE0D1
:1029D000FFF71CF9824605E0FFF718F9A0EB0A01A2
:1029E00059454CD8286A8007F6D41FB1E86920F011
:1029F0008050E861E06988B36968C1F38101022908
:102A000044D00228C6F8608004D0FFF7FFF80446DF
:102A100038E034E0FFF7FAF8074604E0FFF7F6F88D
:102A2000C01B02282BD828688001F7D4206AB0F593
:102A3000803F05D16868A16820F4003008436860D1
:102A4000D4E908010843696821F4741108436860F7
:102A5000C6F86090FFF7DAF8044606E025E000BF0C
:102A6000FFF7D4F8001B022809D828688001F7D5A1
:102A70001BE000BFFFF7CAF8001B022802D90320A1
:102A8000BDE8F88F28688001F4D40EE00128F7D063
:102A90006868226A00F48031914204D1616A00F4CE
:102AA0007010884201D00120EAE70020E8E700002A
:102AB00000100240000042428004424254000020C4
:102AC000007000407047704710B5040003D094F8C0
:102AD0003D0010B107E0012010BD002084F83C004B
:102AE000204600F01EF8022084F83D00211D2068D9
:102AF00000F0C6FF012084F8460084F83E0084F808
:102B00003F0084F8400084F8410084F8420084F8D3
:102B1000430084F8440084F8450084F83D00002018
:102B200010BD704790F83D10012901D00120704779
:102B3000022180F83D100168CA6842F00102CA60B3
:102B400000680B49884208D0B0F1804F05D0094990
:102B5000884202D00849884204D1816801F0070107
:102B6000062903D0016841F001010160002070478F
:102B7000002C0140000400400008004070472DE98F
:102B8000F04104460068C66805694FF00007A907D0
:102B900013D5B10711D5F91E0161012020772068F6
:102BA00080698007204602D0FFF7E8FF04E000F0CC
:102BB0007EF8204600F07CF82777680716D5700766
:102BC00014D521686FF00400086102202077206886
:102BD000806910F4407F204602D0FFF7CFFF04E069
:102BE00000F065F8204600F063F82777280715D530
:102BF000300713D521686FF00800086104202077A2
:102C00002068C0698007204602D0FFF7B7FF04E0C4
:102C100000F04DF8204600F04BF82777E80616D56F
:102C2000F00614D521686FF01000086108202077A5
:102C30002068C06910F4407F204602D0FFF79EFF55
:102C400004E000F034F8204600F032F82777E80777
:102C500008D0F00706D021686FF001000861204617
:102C600000F028F8280608D5300606D521686FF050
:102C7000800008612046FFF725FF680608D570062A
:102C800006D521686FF040000861204600F01CF86E
:102C9000A8060AD5B00608D521686FF020000861A3
:102CA0002046BDE8F041FFF70EBFBDE8F081704758
:102CB0007047000000680349884201D1FFF78ABBD2
:102CC0007047000000080040704770B5040004D051
:102CD00094F84100002510B106E0012070BD84F891
:102CE0004050204600F024F8242084F84100206859
:102CF000C16821F40051C160204600F025FF206822
:102D0000016921F4904101612068416921F02A01A3
:102D100041612068C16841F40051C16065642020B0
:102D200084F8410084F842006563002070BD000013
:102D300030B585B000240094019402940394006897
:102D40001449884223D11448C16941F40031C1615A
:102D5000C16901F400310491816941F0040181618C
:102D600080690E4D00F004000490042000900220C1
:102D700001900320039069462846FEF757FE08207D
:102D8000CDE90004694628460294FEF74FFE05B0DF
:102D900030BD000000440040001002400008014027
:102DA0002DE9F843044690F84100984616460D4632
:102DB000202802D00220BDE8F88385B17EB1002032
:102DC0006064212084F84100FEF720FFA68481463C
:102DD000E684A0682027B0F5805F02D003E00120E0
:102DE000E9E7206910B12E4600250EE000260CE030
:102DF0008021204600F004FFA8B9C6B116F8010BE7
:102E000021684860E08C401EE084E08C4B464FF027
:102E10000002CDF800800028EAD14FF040012046A2
:102E200000F0EEFE40B184F841700320C3E735F8AE
:102E3000020BC0F30800E3E784F841700020BAE712
:102E4000FEE701684A69D24352050FD46FF48062ED
:102E50004A61002140F8301F2022427381730269C9
:102E600042F00402026101730120704700207047A4
:102E70002DE9F84F0446C06A1E4693460D46216868
:102E80000A6842F480620A60082807D0012805D049
:102E900010F5803F02D0206B112804D12068016812
:102EA00041F4807101604FF001195B4600224946F0
:102EB0002046009600F04AF94FF4007840B12068AF
:102EC0000068C00501D5C4F840800320BDE8F88F34
:102ED0002069DFF884A0B0F5804F0FD0062021686C
:102EE00000EAD51747F0F000086133465A460AF168
:102EF0000601204600F072F958BB03E0E8B240F04A
:102F000001001CE02168E8B2086133465A46514688
:102F1000204600F063F9E0B92068416981690091B9
:102F2000016841F4807101605B46002249462046F9
:102F3000009600F00BF90028C1D147F0F10021689C
:102F4000086133465A465146204600F047F90028AA
:102F5000BCD00120BAE7000002000100F8B5044629
:102F6000C06A1E460D461746082807D0012805D01E
:102F700010F5803F02D0206B122804D12068016830
:102F800041F480710160134600224FF00111204688
:102F9000009600F0DBF840B120680068C00502D55B
:102FA0004FF4007020640320F8BD2069B0F5804F15
:102FB0000ED00620216800EAD51040F0F00008612C
:102FC00033463A460B49204600F008F978B902E04A
:102FD00005F0FE0000E0E8B22168086105493346CB
:102FE0003A46891F204600F0F9F80028DCD001207D
:102FF000F8BD0000080001002DE9F84F0446006804
:1030000089460B9D01689846174641F4806101602E
:103010002068016841F48071016000954FF0011B48
:103020000022594620460A9B00F090F84FF4007A9F
:1030300040B120680068C00501D5C4F840A0032055
:10304000BDE8F88F216809F0FE0008612B46284989
:1030500020460A9A00F0C2F8F0BB206841698069F6
:1030600000902A4620460A9900F04EF940B1206CA3
:1030700004283AD12068016841F40071016034E00D
:10308000FEB2B8F1010F09D02168380A08612A465A
:1030900020460A9900F038F90028E8D12068066136
:1030A0002A4620460A9900F02FF90028DFD120682F
:1030B000016841F480710160009500225946204664
:1030C0000A9B00F043F80028B3D1216809F0FF0003
:1030D00040F00100086100E007E02B46044920466B
:1030E0000A9A00F07BF80028AAD00120A8E7000087
:1030F0000200010070B516460D4604461EE020464B
:10310000FFF79FFE08B1012070BD681C16D0FEF7C6
:103110007DFD801BA84200D885B920684069C04366
:1031200040070BD5002044F8300F20216173A073B5
:10313000216941F0200121612073E4E720684069A2
:10314000C0434007DBD4002070BD00002DE9F047EC
:10315000984617460D460446C1F30746DDF8209011
:103160002AE000BFB8F1FF3F26D0FEF74FFDA0EBED
:103170000901414502D8B8F1000F1DD12068012E88
:1031800016D0806925EA00000004000C12D000204F
:10319000B84211D1002044F8300F20216173A07390
:1031A000216941F02001216120730120BDE8F087F1
:1031B0004069E7E70120EBE72068012E0AD080692B
:1031C00025EA00000004000C06D00020B842C9D057
:1031D0000020EBE74069F3E70120F7E72DE9F0472E
:1031E000984616460D4604464FF000094FF0200A57
:1031F000C1F3074723E020684069C043400515D468
:103200002068016841F40071016021686FF48060FA
:103210004861C4F8309084F83DA084F83E90216C59
:1032200041F00401216484F83C9021E0701C06D038
:10323000FEF7ECFCA0EB0800B04203D816B1012F5A
:103240001FD021E02068012F15D0806925EA0000F9
:103250000004000C18D000BF44F8309F84F80DA083
:1032600084F80E90216941F02001216184F80C90CE
:103270000120BDE8F087406925EA00000004000C49
:10328000EAD12068406901E02068806925EA0000F1
:103290000004000CAFD1ECE72DE9F0410025904689
:1032A0000E460446202728E04069C043C0060CD4DF
:1032B00054F8301B6FF01000486144F810596777DC
:1032C000A577206A2062257714E0FEF79FFCA0EB2B
:1032D0000800B04200D886B920684069C043400663
:1032E0000BD544F8305F6773A573206940F0200068
:1032F000206125730120BDE8F08120684169C94340
:103300004906D1D40020F6E770B516460D460446AE
:103310001EE02046FFF795FD08B1012070BD681C36
:1033200016D0FEF773FC801BA84200D885B9206830
:103330004069C04300060BD5002044F8300F20211F
:103340006173A073216941F0200121612073E4E7DA
:1033500020684069C0430006DBD4002070BD000037
:1033600070B50C46054608226B2100F0D0F9A8BBC9
:1033700007226C21284600F0CAF978BB09221D21DA
:10338000284600F0C4F948BBE0223821284600F066
:10339000BEF918BB22462021284600F0B8F9E8B94A
:1033A00022462121284600F0B2F9B8B9224622214E
:1033B000284600F0ACF988B9C0226921284600F0FF
:1033C000A6F958B913221921284600F0A0F928B906
:1033D00028226B21284600F09AF908B1012070BD1F
:1033E00008A10E48FCF74EFF0C48FDF75FF882B2CB
:1033F00064230A490A48FFF7D3FC0A4900200870F1
:1034000070BD0000456E746572204C6F7720506F60
:10341000776572204D6F6465210D0A00D800002089
:10342000740200200000002010B5044600226B2129
:1034300000F06DF978BB00223821204600F067F9D2
:1034400048BB00226921204600F061F918BB072221
:103450001D21204600F05BF9E8B90022202120461A
:1034600000F055F9B8B900222121204600F04FF9AB
:1034700088B900222221204600F049F958B90722D4
:103480001921204600F043F928B900226C2120467A
:1034900000F03DF908B1012010BD09A10E48FCF76C
:1034A000F1FE0D48FDF702F882B264230A490B4889
:1034B000FFF776FC0A4901200870002010BD0000CB
:1034C00045786974204C6F7720506F776572204D76
:1034D0006F6465210D0A0000D800002074020020EE
:1034E00000000020F8B50C461B49154606468C70B6
:1034F000CA7000226B2100F00AF958BB6420FEF765
:1035000055FA6A467521304600F0EAF810BB9DF87E
:10351000000012281ED107221921304600F0F7F8CA
:10352000C0B922461C21304600F0F1F890B92A4675
:103530001B21304600F0EBF860B9002237213046FD
:1035400000F0E5F830B900223821304600F0DFF80D
:10355000002800D00120F8BD000000202DE9F04334
:1035600087B00C4664230E2203A98DE80E000123C8
:103570003B22D221FEF7D2FD002863D1BDF80E1008
:10358000DFF83C9149BA0FB2BDF81010BDF80C003D
:1035900049BA0EB240BA99F8021000B231B1082906
:1035A00007D0102908D018294CD108E04FF08045E9
:1035B00007E04FF0814504E04FF0824501E04FF015
:1035C000834502F05BFE6FF00E08414603F05DF8A4
:1035D000294602F0B3FE2060384602F04FFE414615
:1035E00003F053F8294602F0A9FE6060304602F06D
:1035F00045FE414603F049F8294602F09FFEA060CF
:10360000BDF8120040BA00B202F038FE2D4902F0B7
:1036100073FD2D4902F0FCFCA061BDF81610BDF849
:10362000140049BA0FB2BDF8181040BA49BA0EB228
:1036300099F8031000B249B1082909D0102909D01E
:10364000182909D0012007B0BDE8F0831F4D04E020
:103650001F4D02E01F4D00E01F4D02F00FFE4146DE
:1036600003F013F8012103F010F8294602F066FE7A
:10367000DFF86890494602F061FEE060384602F0EB
:10368000FDFD414603F001F8012102F0FEFF29464D
:1036900002F054FE494602F051FE2061304602F02D
:1036A000EDFD414602F0F1FF012102F0EEFF294657
:1036B00002F044FE494602F041FE60610020C2E78C
:1036C000000000200000AA43B81E124200007A4306
:1036D0000000FA4300007A440000FA4435FA8E3CB8
:1036E00077B581B0154664240646012302AAD2218B
:1036F0000094FEF77DFC10B1012004B070BD0123E1
:103700002A46D22130460094FEF74AFBF5E71CB565
:1037100002238DF8041064218DF80520009101AA80
:10372000D221FEF765FC1CBD10B50121114A0846E7
:1037300000F07EFB104C0F4A0121A06110320846B8
:1037400000F076FB0B4AE0616C3A00210B4800F078
:10375000E7FB084AE060483A0021094800F0E0FB36
:10376000044A2061243A0021064800F0D9FB606138
:1037700010BD00007467000828000020773800089A
:1037800085380008BD39000800B585B000200290DA
:1037900003901548816941F020018161816901F040
:1037A00020010491816941F004018161816901F086
:1037B00004010491816941F00801816180696946D1
:1037C00000F008000490012000900848019008488B
:1037D000FEF72CF9002205210620FEF793FE0620B5
:1037E000FEF782FE05B000BD00100240000011107F
:1037F000000801400D4810B50B4901600C494160BB
:1038000000214FF480428160C0E90312416181616F
:10381000C1610162FEF700FA002803D0BDE8104044
:10382000FEF763B810BD00000054004020020020E5
:10383000A08601000C4810B50A4901604FF4E1313F
:103840004160002181600C22C160C0E904128161E5
:10385000C161FFF73AFA002803D0BDE81040FEF737
:1038600044B810BD0044004074020020FEE7FEE7AB
:1038700020BF00BF70474FF0FF34204600F06EFAC3
:10388000FBE700008CB002F029F83F4C3F4E41F2BC
:103890008837A06002F022F805463D493D48FFF711
:1038A0005DFE18B1642313223BA148E02068281A6A
:1038B000052803D336482560FDF7E2FE6068281A24
:1038C000B0F5FA7F3ED3DFF8C8806560D8F81800FD
:1038D00002F072FB08908946D8F8140002F06CFBE5
:1038E00082468B46D8F8100002F066FBCDE906014F
:1038F000D8F80C0002F060FBCDE90401D8F808000C
:1039000002F05AFBCDE90201D8F8040002F054FBA2
:10391000CDE90001D8F8000002F04EFB02460898FD
:10392000CDE90A090B4621492148CDE908ABFCF74E
:10393000A9FC1F48FCF7BAFD1D4982B264231D484B
:10394000FFF72EFA3078012802D100203070A560F0
:10395000A068281AB8429DD917491548FCF792FC6F
:103960001348FCF7A3FD82B24FF0FF331049114812
:10397000FFF716FA01F0B2FFA060A06900F0A4FA08
:10398000002001F03FFA85E7280000201100002008
:10399000040200202002002049434D3230363032EC
:1039A0002052656164204572720D0A00AC680008FF
:1039B000D800002074020020646800080C4C4FF00E
:1039C000FF352946A06900F005FA20210948FFF7D4
:1039D000C7FC01210020FEF7C7FD0648FFF724FDC4
:1039E000206901F08DF9012000F0B8F9E9E7000045
:1039F000280000202002002010B54FF0E0200069D0
:103A000001F05EFF012803D0BDE8104001F0D6BAF6
:103A100010BD30B58FB028216846FCF7E5FD1421B4
:103A20000AA8FCF7E1FD01210804CDE900100024FB
:103A3000029402250491CDE907504FF4E01009905B
:103A40006846FEF7AFFE08B172B6FEE70F20CDE97B
:103A50000A054FF48060CDE90C4002210AA80E94BB
:103A6000FEF7A4FD002801D072B6FEE70FB030BD0E
:103A7000704700000148FFF782B80000BC02002038
:103A8000F0B50268194B1A4C1A4D4FF08047984216
:103A900005D0B84203D0A04201D0A84203D122F001
:103AA00070064A683243984205D0B84203D0A0421B
:103AB00001D0A84203D122F44074CA6822434C6961
:103AC00022F08002224302608A68C2620A6882622F
:103AD000984201D109690163012141610169C90766
:103AE00003D0016921F001010161F0BD002C01400A
:103AF000000400400008004001680C3151E8002F2C
:103B000022F4907241E80023002BF5D101681431B2
:103B100051E8002F22F0010241E80023002BF5D1EB
:103B2000016B012909D101680C3151E8002F22F005
:103B3000100241E80023002BF5D1202180F842102B
:103B4000002101637047000070B5044600680169F8
:103B5000E26821F44051114301612169A0680843E2
:103B6000616908432168CA6841F20C639A430243C1
:103B7000CA6020684169A26921F440711143416122
:103B80001E492068884202D1FEF7D6FD01E0FEF70B
:103B9000C3FD00EBC00101EB0012606864218000EE
:103BA000B2FBF0F3B3FBF1F36FF018067343B2FB13
:103BB000F0F5B2FBF0F605EB8305322303EB0515B8
:103BC000B5FBF1F5B6FBF1F605F0F00505EB0615D2
:103BD000B2FBF0F6B2FBF0F0B0FBF1F06FF01802C0
:103BE000504306EB800003EB0010B0FBF1F02168BE
:103BF00000F00F002844886070BD000000380140CC
:103C00002DE9F843984617460D460446089E24E0E1
:103C1000701C22D0FDF7FAFFA0EB0800B0421AD8C2
:103C2000CEB12068C168490717D5802D15D0402D29
:103C300013D00168C94309070FD401680025406803
:103C400000902046FFF758FF0820606484F8405039
:103C50000120BDE8F8830320FBE72068006835EA0F
:103C6000000004D00020B842D2D00020F1E70120AB
:103C7000F9E7FEE7490050EAC12018BF04204A0DC9
:103C800018BF40F0010040F2FF72B2EB515F08BF75
:103C900040F00200012808BF052070470907090EFF
:103CA000002804DB00F1E02080F80014704700F0E9
:103CB0000F0000F1E02080F8141D704730380A280A
:103CC00001D201207047002070470000FEF78AFBF8
:103CD000FFF79FFEFFF758FDFFF78CFDFFF7AAFDEA
:103CE000002211460D48FFF7FDFB4FF0FF3408B1ED
:103CF0000BA100E010A11748FCF7C4FA1548FCF727
:103D0000D5FB82B2234613491348FFF749F800F068
:103D100033F8FFF709FD00F041F8FEE7200200202C
:103D200049434D323036303220696E697420666105
:103D3000696C6564210D0A0049434D3230363032DA
:103D400020696E69742073756363657373210D0A4E
:103D500000000000D80000207402002010B5EFF32E
:103D6000058111B16FF0050403E0002408B100F0F3
:103D700017FF204610BD0000EFF3058010B16FF073
:103D8000050070470448016811B14FF0FF307047DB
:103D90000121016000207047A800002010B5EFF35A
:103DA000058010B16FF0050010BD084801680129B9
:103DB00002D04FF0FF3010BD054A002182F8141DDB
:103DC0000221016000F0DAFF002010BDA8000020F1
:103DD0000BE000E0F8B50D460024211F4E1C002822
:103DE00004D000BFEFF30582A2B10DB10C461BE079
:103DF00000216A46009101F0C7FB012813D1009809
:103E000090B10A494FF080500860BFF34F8FBFF365
:103E10006F8F09E0294601F005FC012804D015B197
:103E20006FF0010400E034462046F8BD04ED00E0E8
:103E3000F8B5144603460E464FF00005EFF3058033
:103E400098BB93B39E423DD84CB1A0680028E0686F
:103E500003D0502836D3012002E008B132E0002020
:103E6000012B05D010B31846A26801F0DAF820E063
:103E700040B103200090002211460120A36801F008
:103E800011F904E003220021012001F0EAF8050005
:103E900018D086B100231A46194601F07BF9012893
:103EA00009D0284600F02EFE00250BE0184601F050
:103EB0009BF8050006D00CB1216800E000212846DF
:103EC00000F00CFE2846F8BD38B50024E51E002899
:103ED0000BD000BFEFF30581A9B100210091694625
:103EE00001F067FA012815D102E06FF0030412E037
:103EF000009880B109494FF080500860BFF34F8FA0
:103F0000BFF36F8F07E000231A46194601F042F90C
:103F1000012800D02C46204638BD000004ED00E00A
:103F20002DE9FF414FEA01034FF00005EFF3058152
:103F3000039549BB40B38027182100244AB3166873
:103F400006B1344696691EB13146761E382E02D22D
:103F50001679F60703D0002004B0BDE8F081566959
:103F600006B1B708D2F808C0BCF1000F0DD0D56873
:103F70005C2D18D312693AB136B18DE806103A4675
:103F8000214601F072FC03900DE0D6685EB912691B
:103F90004AB903AACDE90012BAB2214601F038FCB1
:103FA000012800D003950398D6E700002DE9F041E1
:103FB000134C0F460546E6682068001D00F08EFC95
:103FC000681C07D137B12168BDE8F0410D48091DD3
:103FD00000F0D6BC20683544B5424560216805D262
:103FE000A06BBDE8F041091D00F0B2BC606B091D7B
:103FF00000F0AEFCA06A854200D2A562BDE8F08167
:1040000058000020F40700202DE9F041054600F09B
:10401000C3FC2D4CA068401CA06020682B4F10B141
:10402000606930B32BE02560A068012827D1002605
:1040300006EB860007EB800000F07CFC761C382E37
:10404000F6D3234800F076FC2148143000F072FCCF
:104050001F48283000F06EFC1D483C3000F06AFC20
:104060001B48503000F066FC194860631430A063B0
:1040700005E02068E96AC06A884200D82560606A65
:10408000401C60626864E86A2169884200D9206146
:1040900000EB800007EB8000291D00F071FC00F0B0
:1040A0009BFC606900280CD02068E96AC06A8842DD
:1040B00007D208494FF080500860BFF34F8FBFF31D
:1040C0006F8FBDE8F08100005800002044030020FD
:1040D000A407002004ED00E038B500F05DFC104CB2
:1040E0002068C8B90F4800F025FC0E48143000F0D5
:1040F00021FC0C48E060143020610A4B0020F03BAA
:10410000009003F1500210210A2000F0CBFF206044
:1041100010B105A100F0E2FCBDE8384000F05CBC45
:1041200094000020F8080020546D72510000000037
:1041300030B4026C0B46002A0BD0C1681144C16038
:104140008468A14201D30168C16030BC1846FCF705
:10415000CCB930BC70472DE9F041856B1746044659
:104160000026026C82B1C7B1E068FCF7BEF9E168D5
:10417000206C091AE1602268914202D2A168081AF3
:10418000E060022F16D017E02068A8B9A06801F0FF
:1041900017FC06460020A0600EE06068FCF7A5F959
:1041A000216C606808446060A168884204D320687C
:1041B000606001E005B16D1E6D1CA5633046BDE871
:1041C000F08110B5044690F8590058B101280CD080
:1041D00002280FD0502080F31188BFF34F8FBFF318
:1041E0006F8FFEE7206B00F00BFC2046BDE810400F
:1041F00000F006BC10BD000010484FF440614207BB
:1042000006D0C01D0D4920F00700411AC1F54061DC
:104210000B4A00230144C2E900030839183A21F08F
:10422000070111604B600B600B1AC0E9001393602B
:104230004FF000405360506170470000D80F0020DD
:10424000C4000020154E164CA6F29C474FF0805833
:10425000DFF8509012E000BF00F09EFBF068C568E8
:10426000281D00F03BFBA068401EA0606068401E57
:10427000606000F0B1FB2846FFF7A3FF60680028EC
:10428000EAD13868012805D9C9F80080BFF34F8FFB
:10429000BFF36F8F00F04CFBF0E70000E007002059
:1042A0005800002004ED00E070B51D46049C51B19B
:1042B000C4F80020C4E90F010121204600F026FFC8
:1042C00084F84C5070BD2460F4E700002DE9F05FE5
:1042D0008846DDE90B941546834691009A460A9E6E
:1042E000A522206BFCF778F96FF00301206B01EB3E
:1042F0008501084420F00707780707D0502080F395
:104300001188BFF34F8FBFF36F8FFEE70025B8F121
:10431000000F0FD05FF00000221818F8001082F88C
:10432000341018F8001011B1401C1028F4D384F890
:10433000435001E084F83450382E00D33726E6622B
:10434000C4E91365201D00F000FB04F1180000F023
:10435000FCFA2461C6F138006462A061656584F8E6
:10436000585052465946384600F080FA2060B9F15C
:10437000000F01D0C9F80040BDE8F09F30B51149E9
:1043800000E011460A688242FBD34B685C18844205
:1043900003D1406818444860084643681C1894429A
:1043A00009D1084C183C2468A24209D052681A442A
:1043B00042600A6812680260814200D0086030BD25
:1043C0000460F9E7C400002070B5002441600B4D83
:1043D0000061914206D8D11A8269914206D2011D2C
:1043E000286907E09A4203D2994201D3012403E0ED
:1043F000011DE86800F0ACFA204670BD9400002072
:1044000010B5044600F0C8FAA06B28B15FF00004B4
:1044100000F0E2FA204610BD0124F9E730B589B07A
:104420003C4D6EE00498002806DADDE90601059AA5
:1044300090470498002864DB069C606910B1201D39
:1044400000F04CFA03A800F0D7F8024604980A28B6
:1044500057D2DFE800F00505052D334A05052D3359
:1044600094F8280040F0010084F828000599A0691C
:10447000059B01442046FFF7A7FF68B3216A204649
:10448000884794F8280040073BD500200090059805
:10449000A169002342181946204601F0D7FBD8B97C
:1044A000502080F31188BFF34F8FBFF36F8FFEE76B
:1044B00014F8280F20F00100207022E094F8280062
:1044C00040F0010084F828000598A06128B1811807
:1044D00013462046FFF778FF13E0502080F3118841
:1044E000BFF34F8FBFF36F8FFEE794F8280081076B
:1044F00003D4204600F084FA03E020F0010084F8A1
:104500002800002204A9286800F0A2FF002889D111
:1045100009B030BD940000202DE9FC410F4605464E
:1045200000F0BEFC01A800F067F80446019818B13D
:1045300001F0FAFABDE8FC81254EAFB130690068A0
:10454000D0B30027291B3A46306800F007FB01F082
:10455000EBFA0028EED11F494FF080500860BFF3FE
:104560004F8FBFF36F8FE5E7A542EBD801F0DCFA80
:10457000F0682746C068C468201D00F0AFF994F8C1
:104580002800410719D5A0692B4641193A46204613
:10459000FFF71AFFA8B100200346014600902A4603
:1045A000204601F053FB60B9502080F31188BFF31F
:1045B0004F8FBFF36F8FFEE707E020F0010084F814
:1045C0002800216A20468847B4E70127BAE700009F
:1045D0009400002004ED00E00648416B096829B111
:1045E000416BC968C9684968816270474FF0FF3103
:1045F000FAE700005800002070B5054601F06EF99A
:10460000064E0446B068844203D200F009F8012047
:1046100000E0002028602046B46070BD94000020B7
:10462000F8B5194D20E0C068C4680668201D00F088
:1046300055F9216A2046884794F82800400713D589
:10464000A0693044B04206D924616060211DE86849
:1046500000F07EF908E00020034601460090324653
:10466000204601F0F3FA38B1E86801680029DAD190
:104670002969C5E90310F8BD502080F31188BFF304
:104680004F8FBFF36F8FFEE794000020084840680B
:10469000401C4FF0500080F3118804D0BFF34F8FBF
:1046A000BFF36F8FFEE7BFF34F8FBFF36F8FFEE750
:1046B000CC000020002150B10A4B42699A420FD130
:1046C000806AA3F1280290420AD040B108E050204D
:1046D00080F31188BFF34F8FBFF36F8FFEE7012187
:1046E00008467047F4070020074CE068016841B1B4
:1046F000C0680021D0F80000FFF70EFFFFF78EFE24
:10470000F3E701210020F7E7940000202DE9F041B4
:10471000044600F041F994F9455004F1240609E0FB
:10472000606A48B1304601F0C7F908B100F066FA96
:104730006D1E6DB2002DF3DC4FF0FF3684F845603E
:1047400000F04AF900F028F994F9445004F11007F8
:1047500009E0206948B1384601F0AEF908B100F02F
:104760004DFA6D1E6DB2002DF3DC84F84460BDE897
:10477000F04100F031B900002DE9F0410546002775
:1047800000F08EFB324E306808B9FFF735FD7069D6
:1047900005424ED1C5B3083568070ED005F00700B5
:1047A000C0F108000544680707D0502080F3118845
:1047B000BFF34F8FBFF36F8FFEE72DB37068854255
:1047C00037D82348183001460C6801E020460C46D3
:1047D0006168A94202D221680029F7D131688C4270
:1047E00027D007682168016060680837411B1029DD
:1047F0000FD96019420708D0502080F31188BFF309
:104800004F8FBFF36F8FFEE713E041606560FFF7E6
:10481000B5FD61687068401A7060B268904200D25D
:10482000B060706901430020C4E90001F068401CD9
:10483000F06001F079F9780707D0502080F31188F3
:10484000BFF34F8FBFF36F8FFEE73846BDE8F081AF
:10485000AC0000200449086818B10868026D521CB9
:1048600002650868704700005800002010B5031F5B
:104870004FF080741C601B1F21F001011960191F8B
:10488000024B0B60143940380A6010BD8D46000899
:104890002DE9F04106460F4601F0A8FA041E0D4628
:1048A00018BF0120284320F00040C0F17F6000F1D4
:1048B000E040C00F0ED0301C18BF0120384320F05C
:1048C0000040C0F17F6000F1E040C00F04BF012054
:1048D000FBF7B9FE20462946BDE8F081D0E9013258
:1048E00001699A60D0E901235A604A68824201D185
:1048F00082684A60002202610868401E08600868F9
:1049000070470000034B036003F15C0008608020E7
:104910001060704720090020044B036003F15C0025
:1049200008604FF480701060704700007C0B00201E
:104930007047704700F108014FF0FF32C0E90112E3
:10494000C160016100210160704700210161704771
:1049500030B50B685A1C02D000F1080202E002696F
:1049600004E02246546825689D42FAD953684B609A
:1049700099608A60516008610168491C016030BD1E
:1049800042684A6093688B609368596091600861DF
:104990000168491C01607047502080F31188BFF303
:1049A0004F8FBFF36F8F0A494868401C4860012849
:1049B0000CD10848006810F0FF0F07D0502080F39A
:1049C0001188BFF34F8FBFF36F8FFEE77047000072
:1049D000CC00002004ED00E00849486828B1401EE2
:1049E000486001D180F311887047502080F311880E
:1049F000BFF34F8FBFF36F8FFEE70000CC000020A6
:104A000070B500282AD0164DA0F1080460686969C5
:104A1000084207D1502080F31188BFF34F8FBFF3B6
:104A20006F8FFEE722683AB1502080F31188BFF300
:104A30004F8FBFF36F8FFEE78843606000F030FA5E
:104A400060686968084468602046FFF797FC286939
:104A5000401C2861BDE8704001F066B870BD0000E0
:104A6000AC0000204FF0E020002101618161054988
:104A70004FF47A720968B1FBF2F1491E41610721D6
:104A8000016170475400002010B5FBF7D7FB1149B6
:104A900010280ED300F1E02090F8F0030A7890423D
:104AA00007D2502080F31188BFF34F8FBFF36F8F71
:104AB000FEE709480068896800F4E060884207D989
:104AC000502080F31188BFF34F8FBFF36F8FFEE745
:104AD00010BD0000CC0000200CED00E010B5084B2C
:104AE000002200BF53F832401CB1521C082AF9D3EF
:104AF00010BD43F8321003EBC201486010BD000046
:104B00000403002010B504000AD000F013F894F854
:104B1000460000280CD12046BDE81040FFF770BFCA
:104B2000502080F31188BFF34F8FBFF36F8FFEE7E4
:104B300010BD0000084A002102EBC1035B688342FC
:104B400006D1002042F8310002EBC10148607047F5
:104B5000491C0829F0D370470403002070B515469E
:104B60000E460446FFF718FF94F944100020491C34
:104B700001D184F8440094F94510491C01D184F80E
:104B80004500FFF729FFA06B28B92A46314604F1FA
:104B9000240000F051F82046BDE87040FFF7B6BD94
:104BA00010B5020014D00F48006B38B1502080F3CC
:104BB0001188BFF34F8FBFF36F8FFEE700F070F9DE
:104BC00000211046FFF7F2F900F0AEFF002807D1F0
:104BD00005494FF080500860BFF34F8FBFF36F8FD0
:104BE00010BD00005800002004ED00E002490A6AF0
:104BF0000260C968416070475800002001490120E7
:104C0000C86170475800002010B50C4650B10949E2
:104C100009681831FFF79CFE2046BDE810400121CD
:104C2000FFF7C4B9502080F31188BFF34F8FBFF353
:104C30006F8FFEE75800002070B514460D4668B12E
:104C40000A4909681831FFF79BFE0CB14FF0FF3598
:104C500021462846BDE87040FFF7A8B9502080F3F0
:104C60001188BFF34F8FBFF36F8FFEE7580000200E
:104C700070B504003ED0226DA2B1E06C884200D332
:104C80000146E06A884235D0012A33D11A4D2A689C
:104C900094420FD1502080F31188BFF34F8FBFF3A0
:104CA0006F8FFEE7502080F31188BFF34F8FBFF363
:104CB0006F8FFEE7E162A269002A02DBC1F13801D1
:104CC000A1610E4E00EB8000616906EB800081421D
:104CD00010D1201DFFF702FEE06A2969884200D941
:104CE000286100EB800006EB8000211DBDE87040CC
:104CF000FFF746BE70BD00005800002044030020AE
:104D000070B504002AD01A4D286884422ED0FFF7CF
:104D100043FE2046FFF7CEFCE0B1201DFFF7DEFD8D
:104D2000E06A2969884200D92861124900EB8000B5
:104D300001EB8000211DFFF723FEE06A2968C96AA4
:104D4000884207D30C494FF080500860BFF34F8F63
:104D5000BFF36F8FBDE87040FFF73EBE502080F379
:104D60001188BFF34F8FBFF36F8FFEE770BD000058
:104D7000580000204403002004ED00E030B587B067
:104D80000024039405AA04A903A80494FFF7BAFD1C
:104D9000DDE903010094CDE90110002315A11748B6
:104DA000059A00F062FD164D0028E8621FD000F061
:104DB0001DFF012809D0401C19D1502080F3118813
:104DC000BFF34F8FBFF36F8FFEE7502080F3118842
:104DD000BFF34F8FBFF36F8F4FF0FF30A8620120FA
:104DE0006861EC6007B0BDE8304000F093B807B0F0
:104DF00030BD000049444C45000000004542000819
:104E00005800002070B50446FFF7C6FD214D04B9D7
:104E10002C68201DFFF762FDA06A18B104F118008C
:104E2000FFF75CFD211D1C48FFF7AAFD94F8580010
:104E30000026012801D184F85860FFF7CDFD68698C
:104E400028B1FFF7A9FDFFF7C7FBFFF7C5FD2868ED
:104E5000844213D1686990B1286B38B1502080F337
:104E60001188BFF34F8FBFF36F8FFEE70B494FF0F1
:104E700080500860BFF34F8FBFF36F8F70BD06483F
:104E80000068A968884201D12E6070BDBDE87040FD
:104E900000F00EB858000020F407002004ED00E0F8
:104EA0000248016B491C0163704700005800002054
:104EB000164810B5016B11B10121C16110BD00216F
:104EC000C1610169124A01E0B9B1491E01EB8103D8
:104ED00052F82330002BF7D001EB810302EB830261
:104EE00002F1080453685B685360A34201D15B6818
:104EF0005360DA680260016110BD502080F31188B0
:104F0000BFF34F8FBFF36F8FFEE700005800002004
:104F1000440300201CB5264908780190FF20087042
:104F200008788DF800009DF800009DF8002000F042
:104F3000F000904207D0502080F31188BFF34F8FCC
:104F4000BFF36F8FFEE79DF800001A4C00F0500091
:104F500020700720A06005E09DF8002052008DF829
:104F60000020401E9DF800201206F5D4A060032802
:104F700007D0502080F31188BFF34F8FBFF36F8F9E
:104F8000FEE74FF44070A060019808700A4801687D
:104F900041F470010160016841F070410160FFF768
:104FA00061FD00206060FBF713F900201CBD0000CC
:104FB00000E400E0CC00002020ED00E010B550201F
:104FC00080F31188BFF34F8FBFF36F8F00F08CFC1D
:104FD00018B104494FF080500860002080F3118818
:104FE00010BD000004ED00E010B50C4648B184424D
:104FF0000FD9502080F31188BFF34F8FBFF36F8F0D
:10500000FEE7502080F31188BFF34F8FBFF36F8FFF
:10501000FEE70222002100F024F8002800D084637B
:1050200010BD38B50C4648B184420FD9502080F3EA
:105030001188BFF34F8FBFF36F8FFEE7502080F3CF
:105040001188BFF34F8FBFF36F8FFEE70221134626
:1050500000220091114600F025F8002800D084635A
:1050600038BDF8B517460E46050013D005FB06F00F
:105070005030FFF781FB04000AD0002084F846007E
:1050800004F150023B46314628460094FFF70CF9E4
:105090002046F8BD502080F31188BFF34F8FBFF337
:1050A0006F8FFEE738B5049D18B153B1CAB181B115
:1050B00020E0502080F31188BFF34F8FBFF36F8F34
:1050C000FEE7502080F31188BFF34F8FBFF36F8F3F
:1050D000FEE7502080F31188BFF34F8FBFF36F8F2F
:1050E000FEE739B1502080F31188BFF34F8FBFF333
:1050F0006F8FFEE750241C46012384F846302B4670
:105100000094FFF7D1F8204638BD000070B50D4679
:10511000040025D0FFF740FCD4E90F20216802FBF2
:105120000011A1600021A163216861600A46D4E9F1
:105130000F01401E00FB0121E16021464FF0FF30CE
:1051400001F8440F487004F110008DB1FFF7F2FB35
:1051500004F12400FFF7EEFBFFF73EFC012070BDD9
:10516000502080F31188BFF34F8FBFF36F8FFEE79E
:1051700021690029F0D000F09FFC0028ECD0044900
:105180004FF080500860BFF34F8FBFF36F8FE3E79E
:1051900004ED00E02DE9FF4782B01D468A464FF03E
:1051A0000008040003D0BAF1000F08D011E050202D
:1051B00080F31188BFF34F8FBFF36F8FFEE7206C32
:1051C00038B1502080F31188BFF34F8FBFF36F8F3A
:1051D000FEE7022D0AD1E06B012807D0502080F3B2
:1051E0001188BFF34F8FBFF36F8FFEE700F068FBAE
:1051F0003F4F4FF000094FF0805648B9049838B13E
:10520000502080F31188BFF34F8FBFF36F8FFEE7FD
:10521000FFF7C2FBA06BE16B884207D3022D05D0DC
:105220000498D0B1B8F1000F1AD01EE02A465146BA
:105230002046FEF790FF616A19B104F1240000F0E6
:105240003BFC20B13E60BFF34F8FBFF36F8FFFF782
:10525000C3FB012006B0BDE8F087FFF7BDFB22E0ED
:105260006846FFF7C3FC4FF00108FFF7B5FBFFF7F7
:1052700017FEFFF791FB94F94400401C01D184F81C
:10528000449094F94500401C01D184F84590FFF703
:10529000A3FB04A9684600F081FA30B12046FFF76D
:1052A00035FA00F041FC0020D4E7FFF775FBA06B56
:1052B000E16B884213D1FFF78FFB04F110000499D2
:1052C000FFF7A2FC2046FFF721FA00F02DFC002892
:1052D0009ED13E60BFF34F8FBFF36F8F98E7FFF70C
:1052E0007BFB2046FFF712FA00F01EFC90E700005F
:1052F00004ED00E02DE9F0471F4690468946040082
:1053000003D0B9F1000F08D011E0502080F31188CC
:10531000BFF34F8FBFF36F8FFEE7206C38B1502083
:1053200080F31188BFF34F8FBFF36F8FFEE7022F1B
:105330000AD1E06B012807D0502080F31188BFF319
:105340004F8FBFF36F8FFEE7FFF79EFB5020EFF309
:10535000118680F31188BFF34F8FBFF36F8FA06B5F
:10536000E16B884206D3022F04D0002086F3118817
:10537000BDE8F08794F94550A06B3A46494620466F
:10538000FEF7E9FE681C04D06D1C84F8455001202E
:10539000ECE7606A0028FAD004F1240000F08CFBEE
:1053A0000028F4D0B8F1000FF1D00121C8F80010A6
:1053B000EDE770B50E46040009D0206C78B150209E
:1053C00080F31188BFF34F8FBFF36F8FFEE750203C
:1053D00080F31188BFF34F8FBFF36F8FFEE7206814
:1053E00048B9A06838B1502080F31188BFF34F8FBF
:1053F000BFF36F8FFEE7FFF747FB5020EFF31185F8
:1054000080F31188BFF34F8FBFF36F8FA16BE06BF9
:10541000884218D994F94500491CA163411C04D065
:10542000401C84F8450001200EE0606A0028FAD094
:1054300004F1240000F040FB0028F4D0002EF2D04C
:1054400001203060EFE7002085F3118870BD000077
:105450002DE9F747002683B08A46040003D0BAF14D
:10546000000F08D011E0502080F31188BFF34F8F58
:10547000BFF36F8FFEE7206C38B1502080F31188A6
:10548000BFF34F8FBFF36F8FFEE700F019FADFF81D
:10549000F4804FF000094FF0805748B9059838B1B3
:1054A000502080F31188BFF34F8FBFF36F8FFEE75B
:1054B000FFF772FAA56BC5B151462046FEF738FEDC
:1054C0006D1EA563206950B104F1100000F0F4FADC
:1054D00028B1C8F80070BFF34F8FBFF36F8FFFF78D
:1054E0007BFA012006B0BDE8F087059808B11EB12F
:1054F00006E0FFF771FA27E06846FFF777FB012621
:10550000FFF76AFAFFF7CCFCFFF746FA94F944007C
:10551000401C01D184F8449094F94500401C01D10D
:1055200084F84590FFF758FA05A9684600F036F967
:10553000002820460AD0FFF7E9F800F0F5FA2046E7
:10554000FEF75EFF0028B3D00020CBE7FEF758FF40
:1055500090B104F124000599FFF756FB2046FFF7B0
:10556000D5F800F0E1FA0028A2D1C8F80070BFF326
:105570004F8FBFF36F8F9BE72046FFF7C7F800F010
:10558000D3FA95E704ED00E02DE9F047904689460F
:10559000040003D0B9F1000F08D011E0502080F3CF
:1055A0001188BFF34F8FBFF36F8FFEE7206C38B1C8
:1055B000502080F31188BFF34F8FBFF36F8FFEE74A
:1055C000FFF762FA5020EFF3118680F31188BFF3E2
:1055D0004F8FBFF36F8FA76BF7B194F944504946D3
:1055E0002046FEF7A5FD7F1EA763681C04D06D1C36
:1055F00084F84450012010E020690028FAD004F11A
:10560000100000F059FA0028F4D0B8F1000FF1D0E2
:105610000121C8F80010EDE7002086F31188BDE8ED
:10562000F08700002DE9F343002683B004003546DF
:1056300009D0206C78B1502080F31188BFF34F8FD0
:10564000BFF36F8FFEE7502080F31188BFF34F8FB9
:10565000BFF36F8FFEE700F033F9DFF83C814FF0C6
:1056600000094FF0805748B9049838B1502080F3B2
:105670001188BFF34F8FBFF36F8FFEE7FFF78CF9F1
:10568000A06BC8B1401EA063206810B9FFF7E2F814
:10569000A060206950B104F1100000F00DFA28B1AB
:1056A000C8F80070BFF34F8FBFF36F8FFFF794F907
:1056B000012005B0BDE8F083049808B166B10FE0A1
:1056C0003DB1502080F31188BFF34F8FBFF36F8F30
:1056D000FEE7FFF781F95DE06846FFF787FA0126EC
:1056E000FFF77AF9FFF7DCFBFFF756F994F944006E
:1056F000401C01D184F8449094F94500401C01D12C
:1057000084F84590FFF768F904A9684600F046F868
:105710000028204612D0FEF7F9FF00F005FA2046D7
:10572000FEF76EFE0028A9D09DB3FFF735F9606A39
:1057300050B3206B0068C0F1380126E0FEF760FE30
:10574000E0B1206838B9FFF727F9A06800F078F9D0
:105750000546FFF741F904F124000499FFF754FAD4
:105760002046FEF7D3FF00F0DFF9002886D1C8F805
:105770000070BFF34F8FBFF36F8F7FE72046FEF7B8
:10578000C5FF00F0D1F979E70021A068FFF770FAB2
:105790009FE7FFE700208CE704ED00E02DE9F041F2
:1057A0000C46050011D0C4B1FFF7F6F8174BDA68C4
:1057B0006E682068911B471C17D02F681B6A9F4298
:1057C00019D0964217D8012410E0502080F3118898
:1057D000BFF34F8FBFF36F8FFEE7502080F3118828
:1057E000BFF34F8FBFF36F8FFEE70024FFF7F4F88E
:1057F0002046BDE8F081884205D9401A206028463D
:10580000FFF7F4F9F1E700202060DCE75800002002
:105810002DE9FF5F8346DDE90E87994616468A46E5
:105820009000FEF7A9FF05001CD05C20FEF7A4FF46
:10583000040014D00020256384F85900CDE902400B
:10584000CDE900874B46324651465846FEF73EFDAD
:105850002046FEF7D9FB012004B0BDE8F09F2846A2
:10586000FFF7CEF84FF0FF30F6E7F0B585B0DDE991
:105870000B640A9DA6B1DCB15C2700972663022663
:1058800084F85960002604AFCDE90246CDE90057FF
:10589000FEF71CFD2046FEF7B7FB049805B0F0BDEF
:1058A000502080F31188BFF34F8FBFF36F8FFEE757
:1058B000502080F31188BFF34F8FBFF36F8FFEE747
:1058C0000548416919B1006B18B1002070470120EB
:1058D0007047022070470000580000200148C0684F
:1058E00070470000580000202DE9F041324C00279D
:1058F000206B38B1A069401CA061FFF71AF8384648
:10590000BDE8F081E668761CE66013D1606B006844
:1059100038B1502080F31188BFF34F8FBFF36F8FE2
:10592000FEE7606BA16B6163A063206A401C20628C
:10593000FEF752FEA06ADFF88480864209D3606BCE
:10594000006890B1606BC068C568686886420FD215
:10595000A0622068C06A00EB800158F8210001288D
:1059600000D90127A069F8B120E04FF0FF30EFE740
:10597000281DFEF7B3FFA86A18B105F11800FEF75D
:10598000ADFFE86A2169884200D9206100EB8001FF
:1059900008EB8100291DFEF7F3FFE86A2168C96A58
:1059A0008842CCD30127CAE7FEF7C3FFE06900288D
:1059B000A5D00127A3E700005800002044030020E1
:1059C00070B504004FF0000133D01B4D28688442AD
:1059D00007D0502080F31188BFF34F8FBFF36F8F34
:1059E000FEE7206D38B1401E2065E36CE26A9A4202
:1059F0001FD040B11DE0502080F31188BFF34F8FBE
:105A0000BFF36F8FFEE7201DFEF768FFE06CE062DA
:105A1000C0F13800A061E06A2969884200D9286194
:105A2000064900EB800001EB8000211DFEF7A8FF76
:105A30000121084670BD00005800002044030020EA
:105A400070B504004FF000002BD0194DE16A2A68B0
:105A5000D26A914226D2A069002804DB2868C06A75
:105A6000C0F13800A061134E01EB8101606906EBC3
:105A70008101884211D1201DFEF730FF2868C06ADD
:105A8000E0622969884200D9286100EB800006EBBA
:105A90008000211DFEF774FF02E02868C06AE06202
:105AA000012070BDE16C2A68D26A9142F8D370BDC2
:105AB000580000204403002070B5C068C46854B189
:105AC00004F118000646FEF709FF144D286B50B18B
:105AD0003146134815E0502080F31188BFF34F8FF3
