:020000040800F2
:10000000F821002029020008E3210008651A0008F1
:10001000E1210008F707000803260008000000009F
:100020000000000000000000000000009101000836
:10003000F907000800000000D50100088923000826
:10004000430200084302000843020008430200087C
:10005000430200084302000843020008FB070008AF
:10006000430200084302000843020008430200085C
:10007000430200084302000843020008430200084C
:10008000430200084302000843020008430200083C
:10009000430200084302000843020008430200082C
:1000A000430200084302000843020008430200081C
:1000B0004302000843020008052400084302000828
:1000C00043020008430200084302000843020008FC
:1000D00043020008430200084302000843020008EC
:1000E00043020008430200084302000800F002F83F
:1000F00000F03FF80AA090E8000C82448344AAF183
:100100000107DA4501D100F034F8AFF2090EBAE880
:100110000F0013F0010F18BFFB1A43F0010318473B
:10012000CC3F0000EC3F0000103A24BF78C878C1F3
:10013000FAD8520724BF30C830C144BF04680C60ED
:10014000704700000023002400250026103A28BF35
:1001500078C1FBD8520728BF30C148BF0B60704739
:10016000782900F0BD80002070471FB51FBD10B575
:1001700010BD00F00BFB1146FFF7F7FF02F072FA1B
:1001800000F029FB03B4FFF7F2FF03BC00F02CFBE7
:10019000224B19680868B0E8F00F80F30988BFF3B4
:1001A0006F8F4FF0000080F311884EF00D0E7047F6
:1001B0000000000006480068006880F3088862B606
:1001C00061B6BFF34F8FBFF36F8F00DF00BF00BF7B
:1001D00008ED00E0EFF30980BFF36F8F0F4B1A6853
:1001E00020E9F00F106008B54FF0500080F311883F
:1001F000BFF34F8FBFF36F8F03F000FA4FF0000093
:1002000080F31188BDE8084019680868B0E8F00F6D
:1002100080F30988BFF36F8F704700BF2400002070
:10022000EFF3058070470000094880470948004700
:10023000FEE7FEE7FEE7FEE7FEE7FEE7FEE7FEE796
:10024000FEE7FEE704480549054A064B70470000F3
:1002500001240008ED000008F81B0020F821002010
:10026000F81D0020F81D00200FB41CB5074B06AA8E
:100270007B4469460090059800F049FA00206946E1
:1002800000F058FA1CBC5DF814FB0000C10400002B
:1002900070B5044685690068C10601D5302600E0C6
:1002A0002026C00707D070BDD4E901213046904711
:1002B000206A401C20626D1EF6D570BD70B50446E4
:1002C00085690078C00707D170BDD4E901212020DD
:1002D0009047206A401C20626D1EF6D570BD00005C
:1002E00070B504460D4621461068AFF300802188A2
:1002F000090502D50F4A7A4402E00E4A7A440E32CA
:10030000002104F1240305E000F00F060009965DCA
:100310005E54491C0028F7D120780023000704D53B
:10032000702D02D009B1022311322046BDE8704081
:1003300000F08EB99C3D00002DE9F05F894604462F
:100340004FF0000ADFF874B1FB44C0F820A020464B
:10035000E1688847002874D0252806D0D4E9012117
:100360009047206A401C2062F1E700265F46204645
:10037000E16888472028054607DB312D05D278192A
:1003800010F8200C08B10643F1E7B00701D526F0BC
:100390000406C4F81CA00027C4F818A02A2D09D010
:1003A000284602F03FF938B304EB8708303DC8F81F
:1003B000185019E059F8041B204604EB870291619C
:1003C000E1688847012F054618D1E069002820DA46
:1003D00026F020061DE0D8F8180000EB800005EBA1
:1003E00040003038C8F818002046E16888470546C4
:1003F00002F018F90028EED1012F0AD02E2D08D1D5
:100400002046E16888477F1C0546022F46F02006FB
:10041000C4DBA069002803DA404246F00106A0616F
:10042000F00701D026F010066C2D0BD0682D09D0F6
:100430004C2D39D06A2D35D0742D35D07A2D33D04E
:1004400016E038E0E1682F4620468847B842054666
:1004500009D16C2F26D04FF48060E1680643204616
:100460008847054604E06C2F1AD04FF4807006438D
:100470000DB3A5F14100192802D8203546F40066D5
:100480004A462946204626604E46FFF769FE80B15F
:1004900001280BD0F61D26F0070000F1080956E7E9
:1004A0004020E4E78020D8E70020D6E706F10409E1
:1004B0004DE7284652E7206ABDE8F09F723D0000F4
:1004C00010B5431C02E010F8011B71B18107FAD18D
:1004D0004FF0013202C88C1A8C4314EAC211F9D0D1
:1004E000C01A0A0603D0C01E10BDC01A10BD0A04EF
:1004F00001D0801E10BD0902FCD0401E10BD032A91
:1005000040F2308010F0030C00F0158011F8013B30
:10051000BCF1020F624498BF11F801CB00F8013B17
:1005200038BF11F8013BA2F1040298BF00F801CBDB
:1005300038BF00F8013B11F0030300F02580083AB2
:10054000C0F0088051F8043B083A51F804CBA0E809
:100550000810F5E7121D5CBF51F8043B40F8043B5E
:10056000AFF30080D20724BF11F8013B11F801CB93
:1005700048BF11F8012B24BF00F8013B00F801CB64
:1005800048BF00F8012B704710B5203AC0F00B802F
:10059000B1E81850203AA0E81850B1E81850A0E887
:1005A0001850BFF4F5AF5FEA027C24BFB1E81850E1
:1005B000A0E8185044BF18C918C0BDE810405FEA51
:1005C000827C24BF51F8043B40F8043B08BF7047CD
:1005D000D20728BF31F8023B48BF11F8012B28BFD2
:1005E00020F8023B48BF00F8012B704702F0FF03E0
:1005F00043EA032242EA024200F0A3B84FF00002AD
:1006000000B5134694469646203922BFA0E80C5008
:10061000A0E80C50B1F12001BFF4F7AF090728BFE3
:10062000A0E80C5048BF0CC05DF804EB890028BF5F
:1006300040F8042B08BF704748BF20F8022B11F088
:10064000804F18BF00F8012B704770477047704704
:100650002DE9F0470D4699469246044600F12408DC
:100660000168880604D5E06921F01001216000E0EE
:100670000120A84201DD471B00E00027A1697A198B
:1006800002EB0900081AA0612078C00602D42046B7
:10069000FFF7FEFD002608E0D4E901211AF8060064
:1006A0009047206A401C761C20624E45F4DB20787F
:1006B000C0060AD52046FFF7EBFD06E0D4E901218C
:1006C00030209047206A401C2062381EA7F10107A5
:1006D000F4DC07E0D4E9012118F805009047206A0E
:1006E000401C2062281EA5F10105F3DC2046FFF71F
:1006F000E5FD2078000602D50220BDE8F087012044
:10070000FBE7000001694A1C02610878704700B5E8
:100710008FB0CDE901310021059105497944CDE93A
:10072000031011466846FFF707FE0FB000BD00003A
:10073000E5FFFFFF0A6802F8010B0A6070474FF0FF
:1007400000020429C0F0128010F0030C3FF458AFEF
:10075000CCF1040CBCF1020F18BF00F8012BA8BFAC
:1007600020F8022BA1EB0C01FFF74ABF5FEAC17C26
:1007700024BF00F8012B00F8012B48BF00F8012B23
:100780007047000000487047941B00207546FFF733
:10079000F9FFAE4605006946534620F0070085463E
:1007A00018B020B5FFF74EFDBDE820404FF0000621
:1007B0004FF000074FF000084FF0000B21F0070149
:1007C000AC46ACE8C009ACE8C009ACE8C009ACE88C
:1007D000C0098D46704710B50446AFF3008020462F
:1007E000BDE81040FFF7CEBC01491820ABBEFEE7C4
:1007F000260002007047FEE77047022000F036B87E
:1008000072B6FEE770B5044600F02CF90546601C90
:1008100002D004480078044400F024F9401BA042B0
:10082000FAD370BD1400002010B502280FD108A122
:100830000C48FFF719FD0B48FFF742FE82B2BDE8F6
:1008400010404FF0FF330749074801F0BBB810BD17
:100850004558544920747269676765726564210D53
:100860000A000000B000002030020020044910B54A
:100870000A68024202D00860FFF7D6FF10BD0000F0
:10088000140401402DE9F84FDFF8B8910024A9F1D4
:10089000040B23460F2709F1040AABF1040EC9E04B
:1008A0000125A5402A40AA427DD1674ED1F804C057
:1008B000ACEB0608B44532D014DCBCF1030F3AD0DF
:1008C00009DCBCF1000F2AD0BCF1010F1CD0BCF137
:1008D000020F31D11DE0BCF1110F17D0BCF1120F86
:1008E0002AD119E0B8F5881F19D006DCB8F5803F89
:1008F00015D0B8F5801F1FD111E0B8F5001F0ED03C
:10090000B8F5041F18D10AE0CB6815E0CB681B1DB1
:1009100012E0CB6808330FE0CB680C330CE08B6837
:100920002BB1012B4FF0080303D0456104E00423F1
:1009300002E0056100E00023FF2A01D8064601E03D
:1009400000F104064FEA840501D9A5F12005D6F887
:10095000008007FA05FC28EA0C0803FA05F548EAC6
:100960000508C6F800804D68ED0062D5374DAE69C8
:1009700046F00106AE61AD6924F0030605F00105FD
:100980000095334D06EB050CDCF80850A607360F32
:1009900007FA06F825EA0805DFF8B880404503D1D4
:1009A0004FF0000817E044E0DFF8AC80404502D18A
:1009B0004FF001080FE0DFF8A480404502D14FF06E
:1009C000020808E0DFF89880404502D14FF00308A4
:1009D00001E04FF0040808FA06F848EA0508CCF8E8
:1009E00008804D68D9F80060ED024D4601D51643E8
:1009F00000E096432E604D68DAF80060AD0255467F
:100A000001D5164300E096432E604D68DBF8006088
:100A1000AD035D4601D5164300E096432E604D6858
:100A2000DEF80060ED03754601D5164300E09643FD
:100A30002E60641C0D682A46E5407FF431AFBDE8A6
:100A4000F88F00000804014000001110001002405F
:100A50000000014000080140000C0140001001406E
:100A60000014014001488068704700001400002015
:100A700070B5040025D094F83D00002520B984F815
:100A80003C50204600F076FA242084F83D0020688F
:100A9000016821F0010101602068016841F4004112
:100AA00001602068016821F40041016000F032FC1F
:100AB0004D4A6168914201D84C4900E04C49884256
:100AC00001D2012070BD4B492368B0FBF1F15E6893
:100AD00026F03F060E435E606368934206D94FF4EA
:100AE000967359434FF47A73B1FBF3F12368491CB1
:100AF0001E6A26F03F06314319626168914210D8A0
:100B00004900401EB0FBF1F2521CC2F30B02042A52
:100B100001D2042022E0B0FBF1F0401CC0F30B0036
:100B20001CE0A268F2B301EBC10303EB0116431E04
:100B3000B3FBF6F35B1C43F480431B0549D092B32F
:100B400001EBC10202EB0111401EB0FBF1F0401CB1
:100B5000C0F30B0040F4804040F400402168CA69B3
:100B60004CF6FF739A431043C861D4E90710014360
:100B70002068026822F0C00211430160D4E9030139
:100B800001432068826848F2FF339A431143816031
:100B9000D4E9050108432168CA6822F0FF02104326
:100BA000C86001E00EE016E02068016841F0010134
:100BB00001602564202084F83D00256384F83E50C0
:100BC000002070BD01EB4106431EB3FBF6F35B1C36
:100BD000B3E70120C2E701EB4101401EB0FBF1F099
:100BE000401CC0F30B00B7E7A086010080841E0004
:100BF00000093D0040420F002DE9F84F0025DDF8C7
:100C00002890984617468A4604460095FFF72AFF23
:100C1000064694F83D0020287AD1192301228649FE
:100C20002046009601F026F80028F5D194F83C0003
:100C300001286DD0012084F83C0020680168C907B4
:100C400003D1016841F0010101602068016821F4CD
:100C500000610160222084F83D00102084F83E00ED
:100C600025646762A4F82A80608D20857348E0625D
:100C700033464A465146204600F00CFF00287CD1FE
:100C8000208DDFF8BC81202768B1012814D002280C
:100C9000206801681ED041F48061016020684169CC
:100CA00080690090BBE0206841698169009101681A
:100CB00041F400710160B2E02068016821F48061B4
:100CC000016072B62068416981690091016841F450
:100CD00000710AE041F40061016072B62068416968
:100CE00081690091016821F48061016062B696E03B
:100CF000032865D801280CD002284B464FF000028B
:100D00004146204600960BD000F0B4FFA8BB0CE093
:100D100090E032464946204601F052F868BB71E047
:100D200000F0A8FF48BB72B633E02068016821F4E8
:100D30008061016072B620680069616A0870606A4B
:100D4000401C6062208D401E2085608D401E6085A5
:100D50003C4846F2A8110068B0FBF1F0C0EBC000BF
:100D600000EB80000090401E009007D02068406992
:100D7000C04340070DD50098F5E727E044F8305F01
:100D80006773A573206940F02000206162B6257367
:100D90001CE02068016841F400710160206800696E
:100DA000616A0870606A401C6062218D491E21855D
:100DB000618D491E618562B621680969017025E06F
:100DC00032464946204600F0FBFF10B10120BDE845
:100DD000F88F20680069616A0870606A401C606270
:100DE000208D401E81B22185608D401E6085206867
:100DF0004269D243520712D4032903D1016821F476
:100E00008061016020680069616A0870606A401C46
:100E10006062208D401E2085608D401E6085208D83
:100E200000287FF465AF84F83D7084F83E5084F864
:100E30003C50CCE70220CAE7020010000000FFFF90
:100E400004000100200000202DE9F84F1F469046C5
:100E50008A460446DDF82890FFF704FE054694F81C
:100E60003D0020287FD119230122404920460095CA
:100E700000F000FF002876D194F83C00012872D0E1
:100E8000012084F83C0020680168C90703D101688B
:100E900041F0010101602068016821F400610160F6
:100EA000212084F83D00102084F83E0000262664AE
:100EB000C4F824806785608D20852D48E0622B462C
:100EC0004A465146204600F05BFE90B920684169D1
:100ED0008069009036E02A464946204600F0A8FF87
:100EE00050B1206C042804D12068016841F40071DD
:100EF00001600120BDE8F88F606A21680078086110
:100F0000606A401C6062618D491E6185218D491EA9
:100F100089B2218522685369DB435B070BD451B149
:100F200000781061606A401C6062608D401E6085C0
:100F3000208D401E20852A464946204600F06EFE40
:100F40000028CED1208D0028C5D154F83D0B016872
:100F500041F400710160202004F81E09E6776677ED
:100F60000020C7E7FFE70220C4E7000002001000EE
:100F70000000FFFF10B586B00021009101910291A1
:100F8000039100680F4988421AD10F4CA06940F0C4
:100F90000800A061A069694600F008000490C02024
:100FA000009012200190032003900848FFF76AFC8C
:100FB000E06940F40010E061E06900F40010049082
:100FC00006B010BD0054004000100240000C01406B
:100FD0000248816802781144816070471400002043
:100FE000074810B5016841F010010160032000F0CE
:100FF000A7F80F2000F006F800F050F8002010BD10
:101000000020024030B505461F4887B0C16941F055
:101010000401C161C06906A900F00400009001A8A4
:1010200000F058F90498B0B100F074F94000174985
:10103000174AB0FBF1F11748491E0260416040F2C7
:10104000E7320021C0E903218160816100F04EFB9D
:10105000040003D015E000F05DF9E8E70D4800F06A
:1010600073FB04000DD11E2000F03CF8102D07D2B8
:10107000002229461E2000F043F80748056000E0E2
:10108000012407B0204630BD0010024040420F004E
:101090000008004078020020180000200F4808B522
:1010A000816941F001018161816901F001010091D3
:1010B000C16941F08051C161C069002200F08050D7
:1010C00000900F21901E00F01BF80548416821F0A8
:1010D000E06141F08061416008BD00000010024005
:1010E00000000140002809DB00F01F0201219140AF
:1010F0004009800000F1E020C0F8001170470000B6
:10110000F0B40E4B1B680C46C3F30223C3F1070572
:10111000042D00D90425191D072901D2002300E060
:10112000DB1E012606FA05F1491E214099409E402A
:10113000761E16403143F0BC01F064BA0CED00E0BD
:10114000064900F0070208684FF6FF03184040EA1E
:101150000220034A10430860704700000CED00E0D5
:101160000000FA050E4A10B5136823F0020313605D
:10117000136823F00103034313600A4C206840F016
:1011800004002060012909D040BF01F02BF801F0D4
:1011900029F8206820F00400206010BD30BFF8E777
:1011A0000070004010ED00E02DE9F0470F4605000B
:1011B00061D0434E306800F00700B84209D2306871
:1011C00020F0070038433060306800F00700B84274
:1011D00051D128683B4C810712D5400703D5606880
:1011E00040F4E06060602878000703D5606840F450
:1011F000605060606068A96820F0F000084360609B
:101200002878C00728D06868012810D021680228F3
:1012100010D0890700292EDA616821F0030101430B
:101220006160FFF71FFC804641F288390DE02168BC
:101230008903EFE78901EDE7FFF714FCA0EB080154
:10124000494502D90320BDE8F0876068696800F06D
:101250000C00B0EB810FEFD1306800F00700B8420E
:101260000BD9306820F0070038433060306800F058
:101270000700B84201D00120E5E72878400705D5EE
:101280006068E96820F4E06008436060287800073F
:1012900006D56068296920F4605040EAC1006060AA
:1012A00000F058F86168084AC1F30311515CC84066
:1012B0000649086006480068FFF7A4FE0020C2E760
:1012C00000200240001002407E4000082000002064
:1012D000180000200F2202600C4A536803F0030339
:1012E0004360536803F0F0038360536803F4E063E2
:1012F000C36052684FF4E06303EAD202026104481B
:10130000006800F00700086070470000001002400D
:10131000002002400448054900684968044AC1F3B6
:101320000221515CC840704720000020001002409C
:101330008E4000080448054900684968044AC1F322
:10134000C221515CC84070472000002000100240BC
:101350008E4000080E4A51680E4801F00C03042B21
:1013600011D0082B0FD10C48C1F38343C903C05CD3
:101370000AD55168084AC1F34041921E515C054AA2
:101380005043B0FBF1F070470449484370470000F8
:101390000010024000127A006E40000800093D0073
:1013A0002DE9F84F040070D02078C04DC00749D017
:1013B0006868C0F38100012807D06868C0F3810025
:1013C000022809D16868C00306D52868800339D58A
:1013D00060680028E7D035E06068B0F5803F0BD04A
:1013E00010B1B0F5A02F11D0286820F4803028600B
:1013F000286820F4802002E0286840F480302860CB
:10140000606890B1FFF72EFB06460AE0286840F4BA
:1014100080202860F0E700BFFFF724FB801B6428D2
:1014200073D828688003F7D50CE0FFF71BFB06464E
:1014300005E000BFFFF716FB801B6428F0D8286882
:101440008003F7D420789A4E80074FF001094FF0BF
:10145000000839D5686810F00C0F07D06868C0F331
:101460008100022809D16868C00306D42868800773
:1014700014D52069012808D110E02069B0B1C6F860
:101480000090FFF7EFFA074605E00AE1FFF7EAFAF6
:10149000C01B0228C4D828688007F7D5286861696E
:1014A00020F0F80040EAC10028600DE0C6F8008096
:1014B000FFF7D8FA074604E0FFF7D4FAC01B02286A
:1014C00023D828688007F7D4207800072CD57948DE
:1014D000A169D9B1C0F80090FFF7C4FA074604E04B
:1014E000FFF7C0FAC01B02280FD8686A8007F7D53B
:1014F00071484FF4FA510068B0FBF1F0009000BF62
:101500000098411E0091FAD20EE080E0C0F8008001
:10151000FFF7A8FA074604E0FFF7A4FAC01B022869
:1015200075D8686A8007F7D42078400760D5E869E5
:101530000027C00008D4E86940F08050E861E869FD
:10154000012700F0805000905C480168C90513D461
:101550000168834641F480710160FFF783FA824697
:1015600006E000BFFFF77EFAA0EB0A0064284ED821
:10157000DBF80000C005F5D5E06801280AD008B105
:10158000052813D0286A20F001002862286A20F07C
:10159000040002E0286A40F001002862E06841F29D
:1015A000883B98B1FFF75EFA82460BE0286A40F06C
:1015B00004002862EEE700BFFFF754FAA0EB0A012F
:1015C00059455AD8286A8007F6D50CE0FFF74AFA41
:1015D000824605E0FFF746FAA0EB0A0159454CD8D0
:1015E000286A8007F6D41FB1E86920F08050E861CE
:1015F000E06988B36968C1F38101022944D00228F7
:10160000C6F8608004D0FFF72DFA044638E034E0D5
:10161000FFF728FA074604E0FFF724FAC01B022868
:101620002BD828688001F7D4206AB0F5803F05D117
:101630006868A16820F4003008436860D4E90801B4
:101640000843696821F4741108436860C6F8609023
:10165000FFF708FA044606E025E000BFFFF702FAAC
:10166000001B022809D828688001F7D51BE000BFBD
:10167000FFF7F8F9001B022802D90320BDE8F88F14
:1016800028688001F4D40EE00128F7D06868226A47
:1016900000F48031914204D1616A00F470108842F4
:1016A00001D00120EAE70020E8E700000010024036
:1016B00000004242800442422000002000700040AE
:1016C00003480068C16841F00101C1607047000033
:1016D0007802002003480068C16821F00101C16060
:1016E00070470000780200207047704710B5040072
:1016F00003D094F83D0010B107E0012010BD002098
:1017000084F83C00204600F01EF8022084F83D00DA
:10171000211D206800F07CFE012084F8460084F83A
:101720003E0084F83F0084F8400084F8410084F8CB
:10173000420084F8430084F8440084F8450084F8AB
:101740003D00002010BD704790F83D10012901D0E8
:1017500001207047022180F83D100168CA6842F0FC
:101760000102CA6000680B49884208D0B0F1804F7E
:1017700005D00949884202D00849884204D18168CD
:1017800001F00701062903D0016841F00101016061
:1017900000207047002C0140000400400008004079
:1017A00070472DE9F04104460068C66805694FF0AE
:1017B0000007A90713D5B10711D5F91E0161012052
:1017C0002077206880698007204602D0FFF7E8FF75
:1017D00004E000F07EF8204600F07CF827776807E8
:1017E00016D5700714D521686FF004000861022037
:1017F00020772068806910F4407F204602D0FFF7F0
:10180000CFFF04E000F065F8204600F063F827778A
:10181000280715D5300713D521686FF00800086137
:10182000042020772068C0698007204602D0FFF797
:10183000B7FF04E000F04DF8204600F04BF82777A2
:10184000E80616D5F00614D521686FF0100008617F
:10185000082020772068C06910F4407F204602D01D
:10186000FFF79EFF04E000F034F8204600F032F865
:101870002777E80708D0F00706D021686FF001004D
:101880000861204600F028F8280608D5300606D55D
:1018900021686FF0800008612046FFF725FF680689
:1018A00008D5700606D521686FF040000861204613
:1018B00000F01CF8A8060AD5B00608D521686FF01C
:1018C000200008612046BDE8F041FFF70EBFBDE8EB
:1018D000F08170477047000000680349884201D1D9
:1018E000FFF776BB7047000000080040704770B5F6
:1018F000040004D094F84100002510B106E0012056
:1019000070BD84F84050204600F024F8242084F86C
:1019100041002068C16821F40051C160204600F0F8
:10192000DBFD2068016921F4904101612068416973
:1019300021F02A0141612068C16841F40051C16071
:101940006564202084F8410084F84200656300202B
:1019500070BD000030B585B000240094019402945D
:10196000039400681449884223D11448C16941F4A2
:101970000031C161C16901F400310491816941F014
:101980000401816180690E4D00F004000490042080
:101990000090022001900320039069462846FEF73C
:1019A00071FF0820CDE90004694628460294FEF73D
:1019B00069FF05B030BD0000004400400010024047
:1019C000000801402DE9F843044690F8410098468C
:1019D00016460D46202802D00220BDE8F88385B1C6
:1019E0007EB100206064212084F84100FFF73AF8BE
:1019F000A6848146E684A0682027B0F5805F02D0E7
:101A000003E00120E9E7206910B12E4600250EE031
:101A100000260CE08021204600F0BAFDA8B9C6B12E
:101A200016F8010B21684860E08C401EE084E08CD1
:101A30004B464FF00002CDF800800028EAD14FF06D
:101A40004001204600F0A4FD40B184F8417003201D
:101A5000C3E735F8020BC0F30800E3E784F84170F0
:101A60000020BAE7FEE701684A69D24352050FD465
:101A70006FF480624A61002140F8301F20224273D7
:101A80008173026942F00402026101730120704710
:101A9000002070472DE9F84F0446C06A1E46934661
:101AA0000D4621680A6842F480620A60082807D05F
:101AB000012805D010F5803F02D0206B112804D1F9
:101AC0002068016841F4807101604FF001195B46A4
:101AD000002249462046009600F0CCF84FF40078EA
:101AE00040B120680068C00501D5C4F840800320DB
:101AF000BDE8F88F2069DFF884A0B0F5804F0FD0E3
:101B00000620216800EAD51747F0F0000861334647
:101B10005A460AF10601204600F0F4F858BB03E0EB
:101B2000E8B240F001001CE02168E8B208613346E9
:101B30005A465146204600F0E5F8E0B92068416970
:101B400081690091016841F4807101605B46002267
:101B500049462046009600F08DF80028C1D147F094
:101B6000F1002168086133465A465146204600F08C
:101B7000C9F80028BCD00120BAE70000020001002B
:101B8000F8B50446C06A1E460D461746082807D019
:101B9000012805D010F5803F02D0206B122804D117
:101BA0002068016841F480710160134600224FF003
:101BB00001112046009600F05DF840B120680068F1
:101BC000C00502D54FF4007020640320F8BD2069E1
:101BD000B0F5804F0ED00620216800EAD51040F005
:101BE000F000086133463A460B49204600F08AF877
:101BF00078B902E005F0FE0000E0E8B22168086173
:101C0000054933463A46891F204600F07BF80028F4
:101C1000DCD00120F8BD00000800010070B51646B8
:101C20000D4604461EE02046FFF71DFF08B10120C7
:101C300070BD681C16D0FEF715FF801BA84200D8A7
:101C400085B920684069C04340070BD5002044F89F
:101C5000300F20216173A073216941F020012161BF
:101C60002073E4E720684069C0434007DBD40020CC
:101C700070BD00002DE9F047984617460D46044612
:101C8000C1F30746DDF820902AE000BFB8F1FF3F1E
:101C900026D0FEF7E7FEA0EB0901414502D8B8F1D6
:101CA000000F1DD12068012E16D0806925EA0000A2
:101CB0000004000C12D00020B84211D1002044F8DA
:101CC000300F20216173A073216941F0200121614F
:101CD00020730120BDE8F0874069E7E70120EBE7CA
:101CE0002068012E0AD0806925EA00000004000C5B
:101CF00006D00020B842C9D00020EBE74069F3E7E6
:101D00000120F7E72DE9F047984616460D460446B0
:101D10004FF000094FF0200AC1F3074723E0206885
:101D20004069C043400515D42068016841F4007142
:101D3000016021686FF480604861C4F8309084F8D5
:101D40003DA084F83E90216C41F00401216484F8A8
:101D50003C9021E0701C06D0FEF784FEA0EB08004A
:101D6000B04203D816B1012F1FD021E02068012F07
:101D700015D0806925EA00000004000C18D000BFCF
:101D800044F8309F84F80DA084F80E90216941F04A
:101D90002001216184F80C900120BDE8F0874069A2
:101DA00025EA00000004000CEAD12068406901E047
:101DB0002068806925EA00000004000CAFD1ECE740
:101DC0002DE9F041002590460E460446202728E0E4
:101DD0004069C043C0060CD454F8301B6FF01000AB
:101DE000486144F810596777A577206A2062257703
:101DF00014E0FEF737FEA0EB0800B04200D886B929
:101E000020684069C04340060BD544F8305F6773D3
:101E1000A573206940F02000206125730120BDE8F2
:101E2000F08120684169C9434906D1D40020F6E712
:101E300070B516460D4604461EE02046FFF713FE19
:101E400008B1012070BD681C16D0FEF70BFE801B88
:101E5000A84200D885B920684069C04300060BD568
:101E6000002044F8300F20216173A073216941F0F4
:101E7000200121612073E4E720684069C043000627
:101E8000DBD4002070BD000070B50C46054608226A
:101E90006B2100F00EF9A8BB07226C21284600F048
:101EA00008F978BB09221D21284600F002F948BB39
:101EB000E0223821284600F0FCF818BB22462021F9
:101EC000284600F0F6F8E8B922462121284600F01D
:101ED000F0F8B8B922462221284600F0EAF888B97D
:101EE000C0226921284600F0E4F858B913221921CC
:101EF000284600F0DEF828B928226B21284600F099
:101F0000D8F808B1012070BD08A10E48FEF7ACF961
:101F10000C48FEF7D5FA82B264230A490A48FFF753
:101F200051FD0A490020087070BD0000456E7465BF
:101F300072204C6F7720506F776572204D6F64650B
:101F4000210D0A00B0000020300200200000002017
:101F500010B5044600226B2100F0ABF878BB0022DC
:101F60003821204600F0A5F848BB00226921204610
:101F700000F09FF818BB07221D21204600F099F8B9
:101F8000E8B900222021204600F093F8B8B90022D9
:101F90002121204600F08DF888B900222221204618
:101FA00000F087F858B907221921204600F081F87F
:101FB00028B900226C21204600F07BF808B10120EE
:101FC00010BD09A10E48FEF74FF90D48FEF778FA4B
:101FD00082B264230A490B48FFF7F4FC0A49012046
:101FE0000870002010BD000045786974204C6F77A0
:101FF00020506F776572204D6F6465210D0A0000D7
:10200000B00000203002002000000020F8B50C468F
:102010001B49154606468C70CA7000226B2100F0E1
:1020200048F858BB6420FEF7EDFB6A467521304640
:1020300000F028F810BB9DF8000012281ED10722DE
:102040001921304600F035F8C0B922461C2130462F
:1020500000F02FF890B92A461B21304600F029F8ED
:1020600060B900223721304600F023F830B9002251
:102070003821304600F01DF8002800D00120F8BDBE
:102080000000002077B581B0154664240646012380
:1020900002AAD2210094FEF7D7FE10B1012004B0AD
:1020A00070BD01232A46D22130460094FEF7A4FDDC
:1020B000F5E71CB502238DF8041064218DF8052086
:1020C000009101AAD221FEF7BFFE1CBD10B5074A40
:1020D0000021074800F04AFB064C044A002120601A
:1020E0002432054800F042FB606010BD2440000827
:1020F000E52200080C000020F122000800B585B0A0
:102100000020029003901548816941F0200181610F
:10211000816901F020010491816941F0040181612C
:10212000816901F004010491816941F00801816134
:102130008069694600F00800049002200090084879
:1021400001900848FEF79EFB002205210720FEF7BC
:10215000D7FF0720FEF7C6FF05B000BD0010024004
:1021600000001110000801400D4810B50B49016036
:102170000C49416000214FF480428160C0E90312A4
:1021800041618161C1610162FEF772FC002803D0E8
:10219000BDE81040FEF734BB10BD00000054004005
:1021A000DC010020A08601000C4810B50A4901603E
:1021B0004FF4E1314160002181600C22C160C0E92F
:1021C00004128161C161FFF792FB002803D0BDE8D2
:1021D0001040FEF715BB10BD004400403002002047
:1021E000FEE7FEE720BF00BF7047000010B500F01B
:1021F000D8F8FFF765FA09A11048FEF735F80F483F
:10220000FEF75EF982B264230C490D48FFF7DAFB52
:10221000BDE810400B48FFF79BBE0000506F737481
:10222000536C6565702066756E6374696F6E2063AC
:10223000616C6C6564210D0A00000000B000002094
:1022400030020020DC01002010B572B6FFF742FA20
:1022500020211148FFF718FE10A11448FEF704F8DA
:102260001248FEF72DF982B2642310491048FFF797
:10227000A9FB01210846FEF775FF0EA10B48FDF7EB
:10228000F3FF0A48FEF71CF982B2642307490848A5
:10229000FFF798FB62B610BDDC0100204265666F57
:1022A00072652053544F500D0A000000B00000200A
:1022B0003002002041667465722053544F5020282C
:1022C00073686F756C64206E6F74207072696E74C1
:1022D00020696D6D6564696174656C7921290D0AE9
:1022E000000000004FF0FF34204600F003FAFBE747
:1022F00008B500256C1E41F2883613A11648FDF77B
:10230000B3FF1548FEF7DCF882B2234612491348A2
:10231000FFF758FB8DF800506A4638211048FFF748
:10232000B1FE9DF800200FA10B48FDF79DFF0A4864
:10233000FEF7C6F882B2234607490848FFF742FB7A
:10234000304600F0D7F9D8E754657374696E67209A
:102350005461736B210D0A00B00000203002002090
:10236000DC01002054657374696E67205461736BDF
:102370002120494E545F454E41424C453D30782521
:102380003032580D0A00000010B54FF0E02000690F
:1023900001F086FC012803D0BDE8104001F0B4B97B
:1023A00010BD30B58FB028216846FEF727F91421FB
:1023B0000AA8FEF723F901210804CDE90010002442
:1023C000029402250491CDE907504FF4E0100990E2
:1023D0006846FEF7E5FF08B172B6FEE70F20CDE9CB
:1023E0000A054FF48060CDE90C4002210AA80E9442
:1023F000FEF7DAFE002801D072B6FEE70FB030BD5E
:10240000704700000148FFF7CCB9000078020020B7
:10241000F0B50268194B1A4C1A4D4FF0804798429C
:1024200005D0B84203D0A04201D0A84203D122F087
:1024300070064A683243984205D0B84203D0A042A1
:1024400001D0A84203D122F44074CA6822434C69E7
:1024500022F08002224302608A68C2620A688262B5
:10246000984201D109690163012141610169C907EC
:1024700003D0016921F001010161F0BD002C014090
:10248000000400400008004001680C3151E8002FB2
:1024900022F4907241E80023002BF5D10168143139
:1024A00051E8002F22F0010241E80023002BF5D172
:1024B000016B012909D101680C3151E8002F22F08C
:1024C000100241E80023002BF5D1202180F84210B2
:1024D000002101637047000070B50446006801697F
:1024E000E26821F44051114301612169A068084369
:1024F000616908432168CA6841F20C639A43024348
:10250000CA6020684169A26921F4407111434161A8
:102510001E492068884202D1FEF70CFF01E0FEF759
:10252000F9FE00EBC00101EB00126068642180003D
:10253000B2FBF0F3B3FBF1F36FF018067343B2FB99
:10254000F0F5B2FBF0F605EB8305322303EB05153E
:10255000B5FBF1F5B6FBF1F605F0F00505EB061558
:10256000B2FBF0F6B2FBF0F0B0FBF1F06FF0180246
:10257000504306EB800003EB0010B0FBF1F0216844
:1025800000F00F002844886070BD00000038014052
:102590002DE9F843984617460D460446089E24E068
:1025A000701C22D0FEF75EFAA0EB0800B0421AD8E9
:1025B000CEB12068C168490717D5802D15D0402DB0
:1025C00013D00168C94309070FD40168002540688A
:1025D00000902046FFF758FF0820606484F84050C0
:1025E0000120BDE8F8830320FBE72068006835EA96
:1025F000000004D00020B842D2D00020F1E7012032
:10260000F9E7FEE70907090E002804DB00F1E020E6
:1026100080F80014704700F00F0000F1E02080F80F
:10262000141D704730380A2801D20120704700205D
:102630007047000009490120096809B1002070476E
:102640000749CA69002AF9D1044A28321268896800
:10265000491E8A42F3D102207047000088070020FB
:1026600024000020FEF7BCFCFFF79BFEFFF746FDB1
:10267000FFF77AFDFFF798FD002211460D48FFF79E
:10268000C5FC4FF0FF3408B10BA100E010A11748C2
:10269000FDF7EAFD1548FDF713FF82B22346134903
:1026A0001348FFF78FF900F033F8FFF70FFD00F044
:1026B00041F8FEE7DC01002049434D32303630322C
:1026C00020696E6974206661696C6564210D0A0079
:1026D00049434D323036303220696E69742073754B
:1026E0006363657373210D0A00000000B0000020D1
:1026F0003002002010B5EFF3058111B16FF0050431
:1027000003E0002408B100F0B1FE204610BD000037
:10271000EFF3058010B16FF00500704704480168C1
:1027200011B14FF0FF307047012101600020704768
:102730007400002010B5EFF3058010B16FF00500B4
:1027400010BD08480168012902D04FF0FF3010BDCC
:10275000054A002182F8141D0221016000F0EEFEFE
:10276000002010BD740000200BE000E02DE9FF41C7
:102770004FEA01034FF00005EFF30581039549BBD4
:1027800040B38027182100244AB3166806B13446A6
:1027900096691EB13146761E382E02D21679F6079A
:1027A00003D0002004B0BDE8F081566906B1B70837
:1027B000D2F808C0BCF1000F0DD0D5685C2D18D33D
:1027C00012693AB136B18DE806103A46214601F059
:1027D0003CFA03900DE0D6685EB912694AB903AAC3
:1027E000CDE90012BAB2214601F002FA012800D068
:1027F00003950398D6E700002DE9F041134C0F46EE
:102800000546E6682068001D00F072FC681C07D1D0
:1028100037B12168BDE8F0410D48091D00F0BABC90
:1028200020683544B5424560216805D2A06BBDE8FB
:10283000F041091D00F096BC606B091D00F092FC90
:10284000A06A854200D2A562BDE8F0812400002084
:10285000B00700202DE9F041054600F0A7FC2D4C03
:10286000A068401CA06020682B4F10B1606930B395
:102870002BE02560A068012827D1002606EB860002
:1028800007EB800000F060FC761C382EF6D323485E
:1028900000F05AFC2148143000F056FC1F48283044
:1028A00000F052FC1D483C3000F04EFC1B485030FC
:1028B00000F04AFC194860631430A06305E020680A
:1028C000E96AC06A884200D82560606A401C60627C
:1028D0006864E86A2169884200D9206100EB8000C1
:1028E00007EB8000291D00F055FC00F07FFC6069BB
:1028F00000280CD02068E96AC06A884207D20849DB
:102900004FF080500860BFF34F8FBFF36F8FBDE86B
:10291000F081000024000020000300206007002058
:1029200004ED00E038B500F041FC104C2068C8B957
:102930000F4800F009FC0E48143000F005FC0C486C
:10294000E060143020610A4B0020F03B009003F15E
:10295000500210210A2000F0EDFE206010B105A108
:1029600000F04EFDBDE8384000F040BC60000020A3
:10297000B4080020546D72510000000030B4026CA5
:102980000B46002A0BD0C1681144C1608468A14283
:1029900001D30168C16030BC1846FDF7B0BD30BC42
:1029A00070472DE9F041856B174604460026026CFE
:1029B00082B1C7B1E068FDF7A2FDE168206C091A99
:1029C000E1602268914202D2A168081AE060022FF9
:1029D00016D017E02068A8B9A06801F0E1F9064612
:1029E0000020A0600EE06068FDF789FD216C606842
:1029F00008446060A168884204D32068606001E0F8
:102A000005B16D1E6D1CA5633046BDE8F08110B5A3
:102A1000044690F8590058B101280CD002280FD074
:102A2000502080F31188BFF34F8FBFF36F8FFEE705
:102A3000206B00F0EFFB2046BDE8104000F0EABB41
:102A400010BD000009480021026902B1012102689D
:102A5000D26A0AB100207047054A1268012AF9D8E3
:102A60000029F7D1816AC068081A70472400002045
:102A70000003002010484FF44061420706D0C01DFB
:102A80000D4920F00700411AC1F540610B4A0023AF
:102A90000144C2E900030839183A21F00701116026
:102AA0004B600B600B1AC0E9001393604FF00040BD
:102AB0005360506170470000940F00209000002088
:102AC000204C214E12E000BF00F070FBF068C5689A
:102AD000281D00F00DFBA068401EA0606068401E2D
:102AE000606000F083FB2846FFF791FF60680028D4
:102AF000EAD116480068012807D915494FF08050DF
:102B00000860BFF34F8FBFF36F8F00F01BFBFFF721
:102B100099FF0228D5D300F069FDA06AE1688842D8
:102B200007D2502080F31188BFF34F8FBFF36F8F10
:102B3000FEE7FFF787FF022801D300F0C1FB01F099
:102B4000ABF9BEE7240000209C0700200003002012
:102B500004ED00E070B51D46049C51B1C4F800209E
:102B6000C4E90F010121204600F018FE84F84C5002
:102B700070BD2460F4E700002DE9F05F8846DDE9D0
:102B80000B941546834691009A460A9EA522206B17
:102B9000FDF72CFD6FF00301206B01EB850108446C
:102BA00020F00707780707D0502080F31188BFF383
:102BB0004F8FBFF36F8FFEE70025B8F1000F0FD0E6
:102BC0005FF00000221818F8001082F8341018F88E
:102BD000001011B1401C1028F4D384F8435001E0D8
:102BE00084F83450382E00D33726E662C4E91365E2
:102BF000201D00F0B4FA04F1180000F0B0FA2461CE
:102C0000C6F138006462A061656584F85850524688
:102C10005946384600F05AFA2060B9F1000F01D049
:102C2000C9F80040BDE8F09F30B5114900E01146F9
:102C30000A688242FBD34B685C18844203D1406827
:102C400018444860084643681C18944209D1084C4F
:102C5000183C2468A24209D052681A4442600A68AB
:102C600012680260814200D0086030BD0460F9E75C
:102C70009000002070B5002441600B4D006191422E
:102C800006D8D11A8269914206D2011D286907E04F
:102C90009A4203D2994201D3012403E0011DE8685E
:102CA00000F060FA204670BD6000002010B50446B8
:102CB00000F07CFAA06B28B15FF0000400F096FAF7
:102CC000204610BD0124F9E730B589B03C4D6EE0D7
:102CD0000498002806DADDE90601059A9047049871
:102CE000002864DB069C606910B1201D00F000FA2A
:102CF00003A800F0D7F8024604980A2857D2DFE864
:102D000000F00505052D334A05052D3394F82800FC
:102D100040F0010084F828000599A069059B014452
:102D20002046FFF7A7FF68B3216A2046884794F83A
:102D3000280040073BD5002000900598A16900239A
:102D400042181946204601F039F9D8B9502080F3CD
:102D50001188BFF34F8FBFF36F8FFEE714F8280F72
:102D600020F00100207022E094F8280040F00100DB
:102D700084F828000598A06128B1811813462046E0
:102D8000FFF778FF13E0502080F31188BFF34F8FD7
:102D9000BFF36F8FFEE794F82800810703D4204625
:102DA00000F038FA03E020F0010084F82800002247
:102DB00004A9286800F046FE002889D109B030BD7A
:102DC000600000202DE9FC410F46054600F00EFC96
:102DD00001A800F067F80446019818B101F05CF80A
:102DE000BDE8FC81254EAFB130690068D0B3002743
:102DF000291B3A46306800F017FB01F04DF8002817
:102E0000EED11F494FF080500860BFF34F8FBFF3E2
:102E10006F8FE5E7A542EBD801F03EF8F068274652
:102E2000C068C468201D00F063F994F828004107C9
:102E300019D5A0692B4641193A462046FFF71AFFDB
:102E4000A8B100200346014600902A46204601F022
:102E5000B5F860B9502080F31188BFF34F8FBFF3EE
:102E60006F8FFEE707E020F0010084F82800216A58
:102E700020468847B4E70127BAE700006000002039
:102E800004ED00E00648416B096829B1416BC9684F
:102E9000C9684968816270474FF0FF31FAE7000066
:102EA0002400002070B5054600F008FF064E0446D9
:102EB000B068844203D200F009F8012000E000204D
:102EC00028602046B46070BD60000020F8B5194D40
:102ED00020E0C068C4680668201D00F009F9216A76
:102EE0002046884794F82800400713D5A06930444D
:102EF000B04206D924616060211DE86800F032F913
:102F000008E000200346014600903246204601F0CA
:102F100055F838B1E86801680029DAD12969C5E9AE
:102F20000310F8BD502080F31188BFF34F8FBFF31B
:102F30006F8FFEE76000002008484068401C4FF09B
:102F4000500080F3118804D0BFF34F8FBFF36F8F11
:102F5000FEE7BFF34F8FBFF36F8FFEE798000020AF
:102F6000074CE068016841B1C0680021D0F800005A
:102F7000FFF728FFFFF7A8FEF3E701210020F7E79E
:102F8000600000202DE9F041044600F00FF994F9AB
:102F9000455004F1240609E0606A48B1304600F06B
:102FA0003FFF08B100F090FA6D1E6DB2002DF3DC0A
:102FB0004FF0FF3684F8456000F018F900F0F6F89D
:102FC00094F9445004F1100709E0206948B13846EB
:102FD00000F026FF08B100F077FA6D1E6DB2002DEB
:102FE000F3DC84F84460BDE8F04100F0FFB8000075
:102FF0002DE9F0410546002700F0F8FA324E30681E
:1030000008B9FFF737FD706905424ED1C5B30835E1
:1030100068070ED005F00700C0F1080005446807F6
:1030200007D0502080F31188BFF34F8FBFF36F8F0D
:10303000FEE72DB37068854237D823481830014623
:103040000C6801E020460C466168A94202D2216862
:103050000029F7D131688C4227D0076821680160C8
:1030600060680837411B10290FD96019420708D042
:10307000502080F31188BFF34F8FBFF36F8FFEE7AF
:1030800013E041606560FFF7CFFD61687068401A2A
:103090007060B268904200D2B06070690143002055
:1030A000C4E90001F068401CF06000F0F5FE78070C
:1030B00007D0502080F31188BFF34F8FBFF36F8F7D
:1030C000FEE73846BDE8F0817800002010B5031F08
:1030D0004FF080741C601B1F21F001011960191F43
:1030E000024B0B60143940380A6010BD392F0008BC
:1030F000D0E9013201699A60D0E901235A604A6837
:10310000824201D182684A60002202610868401E42
:103110000860086870470000034B036003F15C001F
:103120000860802010607047DC080020044B0360BA
:1031300003F15C0008604FF480701060704700007D
:10314000380B00207047704700F108014FF0FF3244
:10315000C0E90112C16001610021016070470021D6
:103160000161704730B50B685A1C02D000F10802AB
:1031700002E0026904E02246546825689D42FAD9BB
:1031800053684B6099608A60516008610168491C0E
:10319000016030BD42684A6093688B6093685960F3
:1031A000916008610168491C01607047502080F3FC
:1031B0001188BFF34F8FBFF36F8F0A494868401CD7
:1031C000486001280CD10848006810F0FF0F07D0B4
:1031D000502080F31188BFF34F8FBFF36F8FFEE74E
:1031E000704700009800002004ED00E0084948689E
:1031F00028B1401E486001D180F3118870475020EB
:1032000080F31188BFF34F8FBFF36F8FFEE700008D
:103210009800002070B500282AD0164DA0F10804AF
:1032200060686969084207D1502080F31188BFF3B4
:103230004F8FBFF36F8FFEE722683AB1502080F3C3
:103240001188BFF34F8FBFF36F8FFEE78843606035
:1032500000F0CCF960686968084468602046FFF7B0
:10326000E3FC2869401C2861BDE8704000F014BEF2
:1032700070BD0000780000200F4810B501684FF4C1
:103280007A72B1FBF2F30D486FF07F448360B4FBB8
:10329000F3F3C360B1FBF1F32D24B4FBF3F303614B
:1032A0004FF0E020002303618361B1FBF2F1491E7E
:1032B00041610721016110BD20000020980000201D
:1032C000F1B5394D82B00299E868814200D9029087
:1032D0004FF0E024206920F001002061A1690298EC
:1032E000AA68401E02FB00162869864200D9361AD9
:1032F00072B6BFF34F8FBFF36F8FFFF79BF998B391
:1033000066610027A761206940F0010020610298F2
:1033100000906846FEF798FF009820B1BFF34F8FEA
:1033200030BFBFF36F8F02A8FEF760FF62B6BFF336
:103330004F8FBFF36F8F72B6BFF34F8FBFF36F8F97
:10334000062020612069C00316D5A0692A69311AB8
:10335000A868411A491E914201D3814200D9411EF9
:1033600061610298401E12E0FFE7A0696061206978
:1033700040F00100206111E00298AA68A169504361
:10338000411AB1FBF2F0431C5343591A6161A76122
:10339000216941F00101216100F014F9A868401E83
:1033A000606162B6FEBD00009800002010B5FCF719
:1033B00037FF114910280ED300F1E02090F8F003F8
:1033C0000A78904207D2502080F31188BFF34F8FC4
:1033D000BFF36F8FFEE709480068496900F4E060B9
:1033E000884207D9502080F31188BFF34F8FBFF375
:1033F0006F8FFEE710BD0000980000200CED00E08C
:1034000010B5084B002200BF53F832401CB1521CCB
:10341000082AF9D310BD43F8321003EBC20148600B
:1034200010BD0000C002002070B515460E460446CF
:10343000FFF7BCFE94F944100020491C01D184F828
:10344000440094F94510491C01D184F84500FFF768
:10345000CDFEA06B28B92A46314604F1240000F0C5
:1034600051F82046BDE87040FFF78CBD10B5020052
:1034700014D00F48006B38B1502080F31188BFF38F
:103480004F8FBFF36F8FFEE700F0B0F800211046BA
:10349000FFF7B2F900F000FD002807D105494FF011
:1034A00080500860BFF34F8FBFF36F8F10BD0000D7
:1034B0002400002004ED00E002490A6A0260C968A5
:1034C000416070472400002001490120C861704715
:1034D0002400002010B50C4650B109490968183184
:1034E000FFF740FE2046BDE810400121FFF784B9F8
:1034F000502080F31188BFF34F8FBFF36F8FFEE72B
:103500002400002070B514460D4668B10A490968C8
:103510001831FFF73FFE0CB14FF0FF35214628462A
:10352000BDE87040FFF768B9502080F31188BFF301
:103530004F8FBFF36F8FFEE72400002030B587B0B8
:103540000024039405AA04A903A80494FFF7E4FD4A
:10355000DDE903010094CDE90110002315A117480E
:10356000059A00F072FB164D0028E8621FD000F0AB
:10357000F5FC012809D0401C19D1502080F3118896
:10358000BFF34F8FBFF36F8FFEE7502080F311889A
:10359000BFF34F8FBFF36F8F4FF0FF30A862012052
:1035A0006861EC6007B0BDE8304000F059B807B082
:1035B00030BD000049444C4500000000C12A00080D
:1035C000240000200849CA688B6A02449A4207D93D
:1035D000502080F31188BFF34F8FBFF36F8FFEE74A
:1035E000CA681044C8607047240000200248016B7C
:1035F000491C01637047000024000020164810B5E4
:10360000016B11B10121C16110BD0021C1610169CE
:10361000124A01E0B9B1491E01EB810352F823308F
:10362000002BF7D001EB810302EB830202F10804C7
:1036300053685B685360A34201D15B685360DA68EA
:103640000260016110BD502080F31188BFF34F8FDD
:10365000BFF36F8FFEE7000024000020000300206E
:103660001CB5264908780190FF20087008788DF86D
:1036700000009DF800009DF8002000F0F00090424E
:1036800007D0502080F31188BFF34F8FBFF36F8FA7
:10369000FEE79DF800001A4C00F050002070072053
:1036A000606105E09DF8002052008DF80020401E6A
:1036B0009DF800201206F5D46061032807D0502041
:1036C00080F31188BFF34F8FBFF36F8FFEE74FF486
:1036D00040706061019808700A48016841F4700107
:1036E0000160016841F070410160FFF7C5FD0020F5
:1036F0006060FCF75FFD00201CBD000000E400E0FE
:103700009800002020ED00E010B5502080F31188D3
:10371000BFF34F8FBFF36F8F00F0D6FA18B1044993
:103720004FF080500860002080F3118810BD000029
:1037300004ED00E038B5049D18B153B1CAB181B1B0
:1037400020E0502080F31188BFF34F8FBFF36F8FBD
:10375000FEE7502080F31188BFF34F8FBFF36F8FC8
:10376000FEE7502080F31188BFF34F8FBFF36F8FB8
:10377000FEE739B1502080F31188BFF34F8FBFF3BC
:103780006F8FFEE750241C46012384F846302B46F9
:103790000094FFF7DFF9204638BD000070B50D46F4
:1037A000040025D0FFF702FDD4E90F20216802FBB9
:1037B0000011A1600021A163216861600A46D4E97B
:1037C0000F01401E00FB0121E16021464FF0FF3058
:1037D00001F8440F487004F110008DB1FFF7B4FCFC
:1037E00004F12400FFF7B0FCFFF700FD012070BDDD
:1037F000502080F31188BFF34F8FBFF36F8FFEE728
:1038000021690029F0D000F00BFB0028ECD004491E
:103810004FF080500860BFF34F8FBFF36F8FE3E727
:1038200004ED00E02DE9FF4782B01D468A464FF0C7
:103830000008040003D0BAF1000F08D011E05020B6
:1038400080F31188BFF34F8FBFF36F8FFEE7206CBB
:1038500038B1502080F31188BFF34F8FBFF36F8FC3
:10386000FEE7022D0AD1E06B012807D0502080F33B
:103870001188BFF34F8FBFF36F8FFEE700F010FA90
:103880003F4F4FF000094FF0805648B9049838B1C7
:10389000502080F31188BFF34F8FBFF36F8FFEE787
:1038A000FFF784FCA06BE16B884207D3022D05D0A3
:1038B0000498D0B1B8F1000F1AD01EE02A46514644
:1038C0002046FFF76EF8616A19B104F1240000F098
:1038D000A7FA20B13E60BFF34F8FBFF36F8FFFF7A2
:1038E00085FC012006B0BDE8F087FFF77FFC22E0F1
:1038F0006846FFF7E1FD4FF00108FFF777FCFFF79F
:1039000075FEFFF753FC94F94400401C01D184F884
:10391000449094F94500401C01D184F84590FFF78C
:1039200065FC04A9684600F029F930B12046FFF78C
:1039300029FB00F0B1FA0020D4E7FFF737FCA06BB9
:10394000E16B884213D1FFF751FC04F11000049998
:10395000FFF7C0FD2046FFF715FB00F09DFA002899
:103960009ED13E60BFF34F8FBFF36F8F98E7FFF795
:103970003DFC2046FFF706FB00F08EFA90E70000C2
:1039800004ED00E02DE9F0471F469046894604000B
:1039900003D0B9F1000F08D011E0502080F3118856
:1039A000BFF34F8FBFF36F8FFEE7206C38B150200D
:1039B00080F31188BFF34F8FBFF36F8FFEE7022FA5
:1039C0000AD1E06B012807D0502080F31188BFF3A3
:1039D0004F8FBFF36F8FFEE7FFF7E8FC5020EFF348
:1039E000118680F31188BFF34F8FBFF36F8FA06BE9
:1039F000E16B884206D3022F04D0002086F31188A1
:103A0000BDE8F08794F94550A06B3A4649462046F8
:103A1000FEF7C7FF681C04D06D1C84F845500120D8
:103A2000ECE7606A0028FAD004F1240000F0F8F90D
:103A30000028F4D0B8F1000FF1D00121C8F800102F
:103A4000EDE700002DE9F747002683B08A46040021
:103A500003D0BAF1000F08D011E0502080F3118894
:103A6000BFF34F8FBFF36F8FFEE7206C38B150204C
:103A700080F31188BFF34F8FBFF36F8FFEE700F025
:103A80000FF9DFF8F4804FF000094FF0805748B984
:103A9000059838B1502080F31188BFF34F8FBFF3E2
:103AA0006F8FFEE7FFF782FBA56BC5B1514620463D
:103AB000FEF764FF6D1EA563206950B104F110008C
:103AC00000F0AEF928B1C8F80070BFF34F8FBFF314
:103AD0006F8FFFF78BFB012006B0BDE8F0870598DC
:103AE00008B11EB106E0FFF781FB27E06846FFF74B
:103AF000E3FC0126FFF77AFBFFF778FDFFF756FBA3
:103B000094F94400401C01D184F8449094F9450094
:103B1000401C01D184F84590FFF768FB05A9684671
:103B200000F02CF8002820460AD0FFF72BFA00F00E
:103B3000B3F92046FFF7BAF80028B3D00020CBE74E
:103B4000FFF7B4F890B104F124000599FFF7C2FC27
:103B50002046FFF717FA00F09FF90028A2D1C8F815
:103B60000070BFF34F8FBFF36F8F9BE72046FFF7C7
:103B700009FA00F091F995E704ED00E02DE9F04134
:103B80000C46050011D0C4B1FFF710FB174BDA68E3
:103B90006E682068911B471C17D02F681B6A9F42D4
:103BA00019D0964217D8012410E0502080F31188D4
:103BB000BFF34F8FBFF36F8FFEE7502080F3118864
:103BC000BFF34F8FBFF36F8FFEE70024FFF70EFBAD
:103BD0002046BDE8F081884205D9401A2060284679
:103BE000FFF76AFCF1E700202060DCE724000020FA
:103BF0002DE9FF5F8346DDE90E87994616468A4622
:103C00009000FFF7F5F905001CD05C20FFF7F0F9F4
:103C1000040014D00020256384F85900CDE9024047
:103C2000CDE900874B46324651465846FEF7A4FF81
:103C30002046FEF70FFE012004B0BDE8F09F2846A5
:103C4000FFF7E8FA4FF0FF30F6E7F0B585B0DDE9B1
:103C50000B640A9DA6B1DCB15C270097266302269F
:103C600084F85960002604AFCDE90246CDE900573B
:103C7000FEF782FF2046FEF7EDFD049805B0F0BD8B
:103C8000502080F31188BFF34F8FBFF36F8FFEE793
:103C9000502080F31188BFF34F8FBFF36F8FFEE783
:103CA0000548416919B1006B18B100207047012027
:103CB0007047022070470000240000200148C068BF
:103CC00070470000240000202DE9F041324C00270D
:103CD000206B38B1A069401CA061FFF734FA384668
:103CE000BDE8F081E668761CE66013D1606B006881
:103CF00038B1502080F31188BFF34F8FBFF36F8F1F
:103D0000FEE7606BA16B6163A063206A401C2062C8
:103D1000FFF7B8F8A06ADFF88480864209D3606BA9
:103D2000006890B1606BC068C568686886420FD251
:103D3000A0622068C06A00EB800158F821000128C9
:103D400000D90127A069F8B120E04FF0FF30EFE77C
:103D5000281DFFF7CDF9A86A18B105F11800FFF783
:103D6000C7F9E86A2169884200D9206100EB800127
:103D700008EB8100291DFFF70DFAE86A2168C96A7E
:103D80008842CCD30127CAE7FFF7DDF9E0690028B4
:103D9000A5D00127A3E70000240000200003002095
:103DA00070B504004FF0000133D01B4D28688442E9
:103DB00007D0502080F31188BFF34F8FBFF36F8F70
:103DC000FEE7206D38B1401E2065E36CE26A9A423E
:103DD0001FD040B11DE0502080F31188BFF34F8FFA
:103DE000BFF36F8FFEE7201DFFF782F9E06CE06202
:103DF000C0F13800A061E06A2969884200D92861D1
:103E0000064900EB800001EB8000211DFFF7C2F99D
:103E10000121084670BD000024000020000300209E
:103E200070B5C068C4689CB104F118000646FFF77D
:103E30005FF9164D286B98B131461548FFF7AAF97E
:103E4000E06A2968C96A88421DD90120E86170BD0D
:103E5000502080F31188BFF34F8FBFF36F8FFEE7C1
:103E6000201DFFF745F9E06A2969884200D92861D9
:103E7000084900EB800001EB8000211DFFF78AF963
:103E8000FFF700F8DCE7002070BD000024000020F0
:103E900088070020000300202DE9F0472C4D002466
:103EA0002746286B38B1FFF781F9286B401E28633D
:103EB000286B40B146E0502080F31188BFF34F8F4C
:103EC000BFF36F8FFEE7A968224E0120D1B3A6F59C
:103ED000916980463068E0B1F068C46804F1180068
:103EE000FFF706F9201DFFF703F9E06A2969884208
:103EF00000D9286100EB800109EB8100211DFFF74B
:103F000049F9E06A2968C96A8842E3D3C5F81C8088
:103F1000E0E70CB1FEF7B6FFAC694CB14FEA08061A
:103F2000FFF7D2FE00B1EE61641EF9D10020A86156
:103F3000E86938B10849012738070860BFF34F8F97
:103F4000BFF36F8FFFF752F93846BDE8F0870000E6
:103F5000240000208807002004ED00E010B586B0A2
:103F6000FEF7E0FC114C2068B8B1002003900490EB
:103F700005AA04A903A8FFF7D9F8DDE90321022067
:103F80008DE8070000230AA10B48059AFFF75DFEA4
:103F9000606010B106B0012010BD502080F3118880
:103FA000BFF34F8FBFF36F8FFEE70000600000206C
:103FB000546D722053766300612F00082DE9FF4194
:103FC0001E46134602000A9D4FF0000016D0144C06
:103FD0002768002F0FD0CDE900130292062917DAC7
:103FE000FFF75EFE02284FF000030FD00022694663
:103FF0002068FFF717FC04B0BDE8F081502080F383
:104000001188BFF34F8FBFF36F8FFEE72A46EEE7AD
:104010000023324669463846FFF7B4FCEBE7000060
:1040200060000020E04000080000000000000000E8
:104030000000000000000000000200001800000066
:104040000000000000000000D04000080000000058
:10405000000000000000000000000000000400005C
:104060002800000000000000000000000102020320
:104070000405060708090A0B0C0D0E0F10100000AE
:104080000000000000000102030406070809000008
:104090000000010203043031323334353637383909
:1040A0004142434445464030580030313233343584
:1040B00036373839616263646566403078000400E1
:1040C00000080000000000000002000100001000D5
:1040D00054657374696E675F5461736B0000000010
:1040E00064656661756C745461736B000C41000803
:1040F00000000020B000000028010008BC410008BA
:10410000B000002048210000440100080100000028
:10411000000000000000000000000000000000009F
:1041200001000000100000000000000000127A00F2
:10413000000000000000000000000000000000007F
:10414000000000000000000000000000000000006F
:10415000000000000000000000000000000000005F
:10416000000000000000000000000000000000004F
:10417000000000000000000000000000000000003F
:10418000000000000000000000000000000000002F
:10419000000000000000000000000000000000001F
:1041A0000000000000000000AAAAAAAA0000000067
:0C41B00000000000000000000000000003
:04000005080000ED02
:00000001FF
