:020000040800F2
:1000000058080020E101000865360008A52A00080C
:10001000613600085D0D0008813600080000000010
:10002000000000000000000000000000753600081D
:10003000610D0008000000007136000879360008E4
:10004000FB010008FB010008FB010008FB010008A0
:10005000FB010008FB010008AD110008FB010008CE
:10006000FB010008FB010008FB010008FB01000880
:10007000FB010008FB010008FB010008FB01000870
:10008000FB010008FB010008FB010008FB01000860
:10009000FB010008FB010008FB010008FB01000850
:1000A000FB010008FB010008FB010008FB01000840
:1000B000FB010008FB010008FB010008FB01000830
:1000C000FB010008FB010008FB010008FB01000820
:1000D000FB010008FB010008FB010008FB01000810
:1000E000FB010008FB010008FB01000800F002F81A
:1000F00000F066F814A696E8000CB244B344DA4562
:1001000001D100F05DF8BAE80F000FA696E83000C4
:10011000A5EB040504EB0607AAEB0704A7F101070A
:100120004FEA15154FEA3414A4F10104AC4201D38F
:1001300000F046F813F0010F18BFFB1A43F001035B
:1001400000F001F8DBE71847544B0000744B000047
:10015000103A24BF78C878C1FAD8520724BF30C8F3
:1001600030C144BF04680C60704700007047000055
:100170000023002400250026103A28BF78C1FBD8B0
:10018000520728BF30C148BF0B607047662904F092
:100190006884642900F08080752900F07D807829CA
:1001A00000F0B680002070471FB500F05DFC040031
:1001B0000020002104F022F8E0601FBD10B510BD42
:1001C00000F056FD1146FFF7EFFF03F05BFA00F079
:1001D00074FD03B4FFF7F2FF03BC00F0B7FD0000AD
:1001E0000948804709480047FEE7FEE7FEE7FEE7CB
:1001F000FEE7FEE7FEE7FEE7FEE7FEE70448054907
:10020000054A064B704700007D360008ED000008E7
:1002100058020020580800205804002058040020EC
:100220000FB41CB5074B06AA7B446946009005989D
:1002300000F001FC0020694600F010FC1CBC5DF8D9
:1002400014FB00003108000070B5044685690068A1
:10025000C10601D5302600E02026C00707D070BDBA
:10026000D4E9012130469047206A401C20626D1E6F
:10027000F6D570BD70B5044685690078C00707D112
:1002800070BDD4E9012120209047206A401C2062E3
:100290006D1EF6D570BD00002DE9F0410646002424
:1002A00010687529314616A510D0AFF300800028DC
:1002B00002DA404213A507E031688A0701D512A58A
:1002C00002E0490704D511A5012401E0AFF3008045
:1002D00000210A2206F1240709E0B0FBF2FCB0FB82
:1002E000F2F302FB1C00303078541846491C0028F9
:1002F000F3D123462A463046BDE8F04100F02FB93D
:10030000000000002D0000002B0000002000000075
:1003100070B504460D4621461068AFF30080218871
:10032000090502D50F4A7A4402E00E4A7A440E3299
:10033000002104F1240305E000F00F060009965D9A
:100340005E54491C0028F7D120780023000704D50B
:10035000702D02D009B1022311322046BDE8704051
:1003600000F0FDB83C4700002DE9F05F89460446E7
:100370004FF0000ADFF824B1FB44C0F820A020466B
:10038000E168884700287DD0252806D0D4E90121DE
:100390009047206A401C2062F1E700255F46204616
:1003A000E16888472028064607DB312E05D2B819B8
:1003B00010F8200C08B10543F1E7A80701D525F096
:1003C0000405C4F81CA00027C4F818A02A2E09D0E0
:1003D000304603F0F5FE38B304EB8708303EC8F82A
:1003E000186019E059F8041B204604EB870291615C
:1003F000E1688847012F064618D1E069002820DA15
:1004000025F020051DE0D8F8180000EB800006EB71
:1004100040003038C8F818002046E1688847064692
:1004200003F0CEFE0028EED1012F0AD02E2E08D1E7
:100430002046E16888477F1C0646022F45F02005CC
:10044000C4DBA069002803DA404245F00105A06141
:10045000E80701D025F01005A6B1A6F14100192842
:1004600002D8203645F400654A46314620462560CC
:100470004D46FFF78BFE60B1012807D0ED1D25F03A
:10048000070000E007E000F1080978E705F104093A
:1004900075E730467AE7206ABDE8F09F1247000012
:1004A00010B5431C02E010F8011B71B18107FAD1AD
:1004B0004FF0013202C88C1A8C4314EAC211F9D0F1
:1004C000C01A0A0603D0C01E10BDC01A10BD0A040F
:1004D00001D0801E10BD0902FCD0401E10BD10B519
:1004E000203AC0F00B80B1E81850A0E81850B1E8ED
:1004F0001850A0E81850203ABFF4F5AF5FEA027C2C
:1005000024BFB1E81850A0E8185044BF18C918C05B
:10051000BDE810405FEA827C24BF51F8043B40F8FC
:10052000043B08BF7047D20728BF31F8023B48BFE1
:1005300011F8012B28BF20F8023B48BF00F8012B1F
:10054000704770477047704710B500F091FA006827
:1005500010BD10B5044600F08BFA046010BD2DE903
:10056000F0470D4699469246044600F1240801687A
:10057000880604D5E06921F01001216000E0012027
:10058000A84201DD471B00E00027A1697A1902EBB0
:100590000900081AA0612078C00602D42046FFF79F
:1005A00053FE002608E0D4E901211AF8060090471E
:1005B000206A401C761C20624E45F4DB2078C00681
:1005C0000AD52046FFF740FE06E0D4E9012130209D
:1005D0009047206A401C2062381EA7F10107F4DC16
:1005E00007E0D4E9012118F805009047206A401C73
:1005F0002062281EA5F10105F3DC2046FFF73AFE34
:100600002078000602D50220BDE8F0870120FBE734
:100610002DE9FF4F0C461E464FF0FF378BB0D2E955
:100620000001DDF860800A908A46C1F30A5505B9D9
:100630003D46002108464FF00000BAF1000F00F4DB
:10064000400005DA00EB80004FF4400101EA500061
:100650004FEA9059B9F1010F00DDB9460A9850EA06
:100660004A000ED044F61050A5F2FF3545432F1432
:10067000B8F1000F1ED07542291E1EDDC9F100021F
:100680001CE0B8F1010F4FF0000001D0302103E071
:10069000F24305E02154401CB042FBDB304600220F
:1006A000002121540B99C1F80880C1E900200FB046
:1006B000BDE8F08FBD1B6D1CDEE74A4600DA6942DB
:1006C00006A800F05FFA06AB93E8070003AB83E8E7
:1006D000070050460A9903F097F98DE80700A0F546
:1006E00000501F3800900398002D0ADD42F21F01D0
:1006F0004A460844002303A90390684603F000FC1F
:1007000009E0A0F500504A461F38002303A90390D2
:10071000684603F00AFC8DE807000004000C03D0D3
:100720004FF0FF30410800E01046B8F1000F03D051
:100730000022009215461EE0751E05D400F09CF9BB
:10074000303262556D1EF9D5B3460122084302D0FE
:1007500000227F1C04E02078302801D100227F1E77
:10076000002A099784D01DE0112D07DA00F084F9E2
:10077000303262556D1C50EA0102F5D1084302D0B7
:100780000098C8B10EE00021681E05E0235C625CA1
:1007900063542254401E491C8142F7DBAB46A81B20
:1007A000401E0990002004F80B000B98099AC0F82D
:1007B0000880C0E9002B7AE711264FF0000857E7C0
:1007C0002DE9F04F88460446D21D22F0070191B072
:1007D000D1E90001CDE90A0103F0DEFC02460B98E5
:1007E000C00F01D02D2007E02068810701D52B2004
:1007F00002E0202101EAC000032A099001D0072A63
:1008000005DB03464146204600F07CF90BE12078E9
:10081000800601D5E06900E00620B8F1650F814649
:1008200006D0B8F1660F18D0B8F1670F70D131E07B
:100830000020B9F1110F009001DB112301E009F153
:1008400001030AAA01A90CA8FFF7E2FEDDE90C707A
:10085000002609F10105834647E001204B46009040
:100860004FF000470AAA01A90CA8FFF7D1FEDDE965
:100870000DB00C995D46002610B909F101000D1864
:10088000B9EB050003D4C0F1FF3609F10105A5EB72
:1008900009002BE0B9F1010F01DA4FF00109002046
:1008A000B9F1110F0090484601DD112300E0034625
:1008B0000AAA01A90CA8FFF7ABFEDDE90C704D46B2
:1008C00000268346207800070AD4AB4500DA5D464F
:1008D00001A8012D04DD411911F8011C302907D0B0
:1008E0004F4502DA17F1040F04DA012082460FE0C7
:1008F0006D1EEEE7002F02DCED1B3E4403E0781C8A
:10090000A84200DD7D1CB81B00F1010A4FF0004732
:100910002078000703D4AA4501DB4FF0FF3A0021FD
:10092000B7F1004F0DF143088DF8431024D0022099
:100930002B23002F01DA7F422D230A21021EA0F172
:10094000010000DC5FB197FBF1FC97FBF1F201FBCA
:100950001C7C17460CF1300C08F801CDEEE7A8F12D
:10096000010003702188090501D5452100E06521BA
:10097000A0F1010800F8011C09980FA9A1EB0807D4
:10098000FF1D00B10120411901EBEA70A169384453
:10099000081A401EA0612078C00602D42046FFF746
:1009A00053FC099828B1D4E901219047206A401CE2
:1009B00020622078C00622D52046FFF745FC1EE0C5
:1009C000002E04DBB34502DD01A8805D00E030208D
:1009D000D4E901219047206A401C2062761CAAF1CC
:1009E00001005FEA000A0AD100F03EF8C068016821
:1009F000405CD4E901219047206A401C2062281EF7
:100A0000A5F10105DCDC07E0D4E9012118F8010BB0
:100A10009047206A401C2062381EA7F10107F3DCD2
:100A20002046FFF727FC032011B041E601694A1C6C
:100A300002610878704700B58FB0CDE9013100211F
:100A4000059105497944CDE9031011466846FFF741
:100A50008BFC0FB000BD0000E5FFFFFF0A6802F845
:100A6000010B0A607047000000487047300000200A
:100A7000004870471000002030B5B0F10A0271F153
:100A800000034FEA900E4EEA817EB0EB0E0061EB60
:100A900091014FEA101E4EEA017E10EB0E0041EB71
:100AA00011114FEA102E4EEA016E10EB0E0041EBD1
:100AB00011214FEA104E4EEA014E10EB0E0041EBB1
:100AC0001141401841F100014FEAD00040EA417065
:100AD0004FEAD1014FEA810444EA907410EB80059B
:100AE00044EB01046D1944EB0404521BA3414FF085
:100AF000000348BF0A3200D530BD401C41F100015F
:100B000030BD00002DE9F0411F4604460326016870
:100B1000072A01F4006004DB08B116A505E016A55C
:100B200003E008B115A500E015A521F01000206034
:100B3000A069C01EA0610FB1401EA0612046FFF752
:100B400083FB4FB1D4E9012138469047206A401C0D
:100B50002062C01C206206E0206AFAE7D4E9012185
:100B600015F8010B9047761EF8D22046FFF782FB5E
:100B7000BDE8F0814E414E006E616E00494E460068
:100B8000696E66002DE9F047814616468AB0354801
:100B900078440DC88DE80D0032487844801C03ACC1
:100BA0000DC884E80D0041F69B300844372190FBC6
:100BB000F1F290FBF1F5A5F1800501FB12041B3C5D
:100BC00002D56442012000E00020DFF898A08046B2
:100BD0000027FA44AAF1BE0A0EE0E0070AD0324626
:100BE000684607EB470101230AEB810103F09DF9F9
:100BF0008DE8070064107F1C002CEED1194F7F4454
:100C0000AE3F19E0E80715D007EB04100DF1180A04
:100C100090E80E008AE80E00C068F04201D19819F1
:100C200008903246012306A903A803F07EF903AB1E
:100C300083E807006D10641C002DE3D14FF0010321
:100C400032466946B8F1000F03A802D003F058F904
:100C500001E003F06AF9C9E90001C9F808200AB007
:100C6000BDE8F087883F0000004870471000002072
:100C70007546FFF7F9FFAE4605006946534620F07A
:100C80000700854618B020B5FFF7B8FABDE8204048
:100C90004FF000064FF000074FF000084FF0000B38
:100CA000AC46ACE8C009ACE8C009ACE8C009ACE8A7
:100CB000C00921F007018D46704710B50446AFF317
:100CC00000802046BDE81040FFF783BA4FF0013C9A
:100CD00050F8042B51F8043B9A4221D1A2EB0C03AB
:100CE000934313EACC1317D150F8042B51F8043B6B
:100CF0009A4215D1A2EB0C03934313EACC130BD108
:100D000050F8042B51F8043B9A4209D1A2EB0C0392
:100D1000934313EACC13DBD04FF00000704700BFC1
:100D2000D01A01BAB1FA81F101F0180122FA01F0EA
:100D3000CB40DBB2C0B2C01AC1F120012CFA01F3E2
:100D4000D11A914311EAC311E6D170470149182025
:100D5000ABBEFEE72600020070470000FEE7000081
:100D6000704700002DE9F04F85B0044600F084FB89
:100D7000D4E90051A6680490084603F0A9FC074690
:100D80002846294603F0A4FC394603F07FFA0546BD
:100D90003046314603F09CFC294603F077FA03F015
:100DA00016FAD4E9035166698246084603F090FCBE
:100DB00007462846294603F08BFC394603F066FABD
:100DC00005463046314603F083FC294603F05EFABF
:100DD00003F0FDF9D4E90087039040F20C00A56808
:100DE000C2F2000028F0004627F0004490F800907E
:100DF0003046214625F0004B03F0CDFA90B930463D
:100E0000594603F0C8FA68B94046002103F0BCFA1D
:100E10000746002818BF0127B9F1060F18BF4F4534
:100E20004BD024E02046314603F0B5FA90B9204675
:100E3000594603F0B0FA68B93846002103F096FA33
:100E400000280CBF03270227B9F1060F18BF4F4532
:100E500033D00CE02846002103F088FA00280CBFAC
:100E600005270427B9F1060F18BF4F4525D0B9F162
:100E7000050F00F24F81012000FA09F08107314689
:100E800004D1214610F00C0F08BF59460120B8408C
:100E9000820704D1264610F00C0F08BF5E4630468C
:100EA00003F06AFD4CF6CD4120F00040C3F6CC6162
:100EB00003F071FA002818BF4F4640F27406C2F2E0
:100EC0000006B168504603F057FD002120F00040B5
:100ED000C4F2A00103F072FA3178C6F808A0DFE886
:100EE00001F00383377D250046F26661C3F6E671A3
:100EF000504603F049FA002872D103984FF07E5112
:100F000003F042FA00286BD10498C6F814A0C6E991
:100F1000030A40F20C00C2F20000077040F2011018
:100F2000C0F20100306005B0BDE8F08FB0690499EF
:100F3000081AB0F5FA7F53D949F69A11C3F6997198
:100F4000504603F01AFA00284AD1002047E000BFBB
:100F5000D6E9044546F266610746C3F6867128461F
:100F600003F0B6FB0146204603F00EFA002853D1E9
:100F700043F67151C4F20A01204603F005FA002835
:100F80004AD138464FF07C5103F0FEF9002843D196
:100F900001203071049D032030702046B56103F0BC
:100FA00049F90246F06840F25414C2F200040B46BC
:100FB0002F1A68A120460097FFF732F92046FFF765
:100FC0006FFA82B240F20C10C2F200002146642394
:100FD00005B0BDE8F04F01F09BBC00BF04203070AD
:100FE00005B0BDE8F08F00BFF06804990A1AC92A5D
:100FF0003ED340F25414C2F2000465A12046FFF72C
:101000000FF92046FFF74CFA82B240F20C10C2F200
:101010000000214622E000BF384603F00BF980466D
:1010200089462046294603F0C9F903F003F940F246
:101030005417C2F2000705460C463DA13846424609
:101040004B46CDE90054FFF7EBF83846FFF728FA96
:1010500082B240F20C10C2F200003946642301F063
:1010600057FC002030700120307105B0BDE8F08FD2
:101070004F4511D0F078B9460130C2B2F07040F25D
:101080000C00C2F20000032A077005D340F254148A
:10109000C2F2000437A1B1E746F26661C3F6667199
:1010A000504603F071F900287FF44FAF03984FF0DA
:1010B0007C5103F069F900287FF447AF70787469B8
:1010C0000130C5B27070681E03F06EFA014620460A
:1010D00003F0FEFA514603F0D9F80446284603F01F
:1010E0007BFA0146204603F069F931697061504688
:1010F00003F04AF9002808BFC6F810A04F4511D1E7
:10110000B0780130C1B20229B070FFF469AF02209B
:1011100065E700BF00210120B84082073FF4BAAE66
:10112000BDE600BF0020B07005B0BDE8F08F00BF85
:101130005377696E672028536D6F6F74683A202566
:101140002E32662C20526174696F3A20252E326649
:10115000290D0A0054617020285065616B3A2025E2
:101160002E3266672C204475723A202575206D73E7
:10117000290D0A005377696E67202844697220633D
:1011800068616E6765733A202564290D0A000000C6
:101190005377696E672028546F6F206C6F6E673AC3
:1011A000202575206D73290D0A000000012000F034
:1011B0004FB80000EFF3108072B600BFFEE70000EA
:1011C00040F27400C2F2000000797047B0B50446E6
:1011D00000F052F9054640F20000C2F2000000782B
:1011E000611C18BF044400BF00F046F9401BA04238
:1011F000FAD3B0BD012818BF704710B50FA140F257
:101200005414C868C2F20004DFF830C0D1E90123E9
:10121000098AE0602046C4E900C2A3602182FFF78A
:101220003FF982B240F20C10C2F2000021464FF0AA
:10123000FF33BDE8104001F06BBB00BF4558544977
:1012400020747269676765726564210D0A00000089
:1012500040F21441C4F201010A68024214BF08605E
:101260007047FFF7C7BF00002DE9F04F82B00E684E
:10127000002E00F0FD8041F20042C4F2010204237E
:1012800040F2004E904208BF03234FF6FF7CC4F2A9
:10129000010E009300240123C1F2100C4FF0000A4C
:1012A0004FF000094BE000BF41F20002C4F201021E
:1012B000009F904208BF022704F00C030F229A40BF
:1012C0002BEA020207FA03F34FEA9A051A4346F89B
:1012D00025204E6840F20C45F202DEF8082054BF8B
:1012E00022EA080242EA0802C4F20105CEF8082008
:1012F0002A68B30254BF22EA080242EA08022A60BE
:10130000B303DEF8042054BF22EA080242EA0802CE
:10131000F303CEF80420DEF800204FF0010354BFA1
:1013200022EA080242EA0802CEF800200E680AF11A
:10133000010A36FA0AF204F1040400F0998003FA73
:101340000AFB16EA0B08F1D04E68664512DC122E35
:1013500056D8DFE806F0350B4D49555555555555CE
:101360005555555555555545510000BFD1F80C9070
:1013700046E000BF4FF6FF72C1F2210296420FDC39
:101380000022C1F2110296421AD00022C1F21202CA
:10139000964215D00022C1F22102964210D02FE0D1
:1013A0000022C1F2220296420AD00022C1F231028A
:1013B000964205D00022C1F23202964220D100BFEF
:1013C0008A684AB1012A14BFC0F814B0C0F810B03E
:1013D0004FF0080914E000BF4FF0040910E000BF0F
:1013E000CA6802F104090BE04FF0000908E000BFF1
:1013F000CA6802F1080903E0CA6802F10C0900BFDB
:1014000002462646B8F5807F24BF0432203E176886
:101410000F25B54027EA050509FA06F6354315609C
:10142000CA79D2067FF582AF41F21803C4F20203F3
:101430001A68AEF57E7642F001021A601A6802F070
:1014400001020192019A2AF0030256F802B040F616
:101450000002C4F20102904208D040F60042C4F2F9
:10146000010290427FF420AF012725E7002723E700
:1014700002B0BDE8F08F000040F25420C2F200003C
:1014800000687047002804BF01207047F0B581B0A4
:10149000044690F83D0028B9002084F83C0020461E
:1014A00000F036FD242084F83D002068016821F01A
:1014B00001010160016841F400410160016821F40B
:1014C0000041016000F022FF636848F2A16CC0F2A5
:1014D000010C40F60011C0F23D0163453CBF48F2EB
:1014E0008041C0F21E01884202D2012001B0F0BD4D
:1014F0004DF68361C4F21B31A0FB01122168970CE9
:10150000D1F804E04FF496762EF03F0545EA924577
:101510004D60774348F638160D6AC0F24106A7FBC6
:10152000067625F03F07634538BF960C721C3A4398
:101530000A62CA6948F2A0664CF6FF77C0F201065B
:10154000B34222EA07020BD801385B00B0FBF3F08C
:1015500001306FF31F30042898BF04201BE000BF48
:10156000A768013857B119277B43B0FBF3F001306E
:101570006FF31F3070B100F5804007E003EB4303C9
:10158000B0FBF3F001306FF31F3018B100F50040ED
:1015900001E000BF01201043C8610868D4E90723B7
:1015A00020F0C000104318430860886848F2FF32FA
:1015B00004F10C0790438CCF18431043A669886050
:1015C000C86820F0FF0038433043C860086840F026
:1015D0000100086000202021206484F83D10206371
:1015E00084F83E0001B0F0BD2DE9F04784B0044618
:1015F00000201F46164689460290FFF73DFF94F8EB
:101600003D10202924D10546206800BF8169890743
:101610001AD5FFF731FF411B20681A29F6D38169DB
:101620008907F3D500202021206384F83D1084F839
:101630003E00216C41F02001216484F83C0002202E
:1016400004B0BDE8F08700BF94F83C10012903D135
:10165000022004B0BDE8F087012184F83C10016845
:10166000C90703D1016841F0010101600168DDF89B
:10167000308021F400610160222184F83D101021A6
:1016800084F83E100021216466626785618D02271F
:10169000C0F201072185A7F10211E162E16A026847
:1016A00011F5803F42F48062026018BF01293DD1EC
:1016B000016841F48071016020464FF00111002261
:1016C0004346009501F0D8FA50B120680068C00583
:1016D00044BF4FF400702064012004B0BDE8F087DF
:1016E0002069B0F5804F27D149F00100C0B22168D0
:1016F00042460861204639462B4601F0A3FB0028EC
:10170000EAD1208D022861D0012849D0002840F07C
:1017100073800020039020684169039181690391DF
:101720000399016841F40071016071E00829BFD09C
:10173000216B1129BCD0BFE7062000EAD91620682A
:1017400006F1F0010161B91D204642462B4601F029
:1017500079FB0028C0D120685FFA89F10161204639
:10176000394642462B4601F06DFB0028B4D10020DB
:1017700003902068002241694346039181690391E7
:101780000399016841F48071016020464FF0011116
:10179000009501F071FA002897D146F0F100A6E714
:1017A0002068016821F480610160EFF3108072B657
:1017B0000020039020684169039181690391039996
:1017C000016841F40071016062B621E0206801689F
:1017D00041F400610160EFF3108072B600200390C5
:1017E000206841690391816903910399016821F49B
:1017F0008061016062B60BE02068016841F480619D
:10180000016000210391416903918069039003986D
:10181000208D002800F0CA8040F208094BF2895A56
:101820000237C2F20009C1F2F84A23260EE000BFD7
:1018300010690870606A218D01306062481E208541
:10184000618D01396185010400F0B08080B2032808
:101850000CD802282CD001284AD1204641462A46DD
:1018600001F05CFB002800F09C8035E720464146F3
:101870002A4601F053FB00287FF42EAF2068616AEE
:1018800000690870606A2268411C208D616201381D
:101890002085638D013B638553695B07D3D580B297
:1018A0000328C5D1106820F480601060C0E700BF35
:1018B0002046394600224346009501F0DDF9002814
:1018C0007FF40AAFEFF3108072B62068616A026895
:1018D00042F40072026000690870606A218D013074
:1018E0006062481E2085608D0138608562B658E0D0
:1018F0002046394600224346009501F0BDF90028F4
:101900007FF4EAAE2068016821F480610160EFF3A2
:10191000108072B62068616A00690870606A218D63
:101920000130013960622185618D01396185D9F805
:101930000010C908A1FB0A12110A71430291029911
:1019400001390291029900293CD021684A69520765
:1019500017D4029A013A0292029A9AB34A6952073C
:101960000FD4029A013A0292029A5AB34A69520774
:1019700007D4029A013A0292029A1AB34A695207AC
:10198000DDD50A6842F400720A6009690170606A74
:10199000218D01306062481E2085608D0138608590
:1019A00062B62068616A006943E700BF202084F8BE
:1019B0003D00002084F83E0084F83C0004B0BDE8FF
:1019C000F08700BF00202021206384F83D1084F8B8
:1019D0003E00216C41F02001216462B684F83C0095
:1019E000012004B0BDE8F0872DE9F04383B01E4626
:1019F000174689460446FFF73FFD94F83D1020291D
:101A000024D10546206800BF816989071AD5FFF7F0
:101A100033FD411B20681A29F6D381698907F3D564
:101A200000202021206384F83D1084F83E00216CC2
:101A300041F02001216484F83C00022003B0BDE89D
:101A4000F08300BF94F83C10012903D1022003B0B9
:101A5000BDE8F083012184F83C100168C90703D177
:101A6000016841F001010160016840F2020821F4BF
:101A700000610160212184F83D10102184F83E109E
:101A80000021216467626685618DC0F201082185AD
:101A9000A8F10211E162E16A0A9E11F5803F18BFC8
:101AA00001291DD1016841F48071016020464FF089
:101AB000011100223346009501F0DEF850B1206894
:101AC0000068C00544BF4FF400702064012003B0DB
:101AD000BDE8F0832069B0F5804F07D1FE2015E006
:101AE0000829DFD0216B1229DCD0DFE7062000EACD
:101AF000D9102168F030086108F10601204632460D
:101B00002B4601F09FF90028E0D1FF20216800EA70
:101B1000090008612046414632462B4601F092F901
:101B20000028D3D100200290206841690291806989
:101B30000290029806E000BF204631462A4601F096
:101B40003DF818BB208D68B3204631462A4601F087
:101B50002DFAD8B9606A2168024612F8013B0B6180
:101B60006262628D013A6285228D531E23854F6920
:101B70007F07E1D51B04DFD0437802300B61606240
:101B8000608D01386085901E2085D5E7206C042883
:101B90009CD12068016841F400710160012003B00C
:101BA000BDE8F0832068016841F4007101602020E5
:101BB00084F83D00002084F83E0084F83C0003B027
:101BC000BDE8F0832DE9F04F85B00446002099462A
:101BD00016460F460490FFF74FFC94F83D1020295D
:101BE00027D10546206800BF816989071CD5FFF70A
:101BF00043FC411B20681A29F6D381698907F3D574
:101C000000202021206384F83D1084F83E00206CE1
:101C100004F13C0A40F020002064022000218AF8F0
:101C2000001005B0BDE8F08FA2461AF83C1F01294C
:101C300004D1022005B0BDE8F08F00BF01228AF870
:101C400000200368DDE90F180E9ADB0703D1036853
:101C500043F001030360036823F400630360222060
:101C600084F83D00402084F83E0000202064626239
:101C70006185608D394620850020CFF6FF70E062D7
:101C8000204632464B46CDE9008500F00DFF18B1E5
:101C9000012005B0BDE8F08F208D022826D0012854
:101CA0000ED0002838D100200390206841690391AC
:101CB000816903910399016841F40071016037E083
:101CC0002068016821F480610160EFF3108072B632
:101CD0000020039020684169039181690391039971
:101CE000016841F40071016062B621E0206801687A
:101CF00041F400610160EFF3108072B600200390A0
:101D0000206841690391816903910399016821F475
:101D10008061016062B60BE02068016841F4806177
:101D20000160002103914169039180690390039848
:101D3000208D002800F0CC80042740F208094BF2E7
:101D4000895BC0F20107C2F20009C1F2F84B2326F9
:101D50000EE000BF10690870606A218D013060627A
:101D6000481E2085618D01396185010400F0B08035
:101D700080B203280CD802282CD001284AD1204652
:101D800041462A4601F0CAF8002800F09C807FE70F
:101D9000204641462A4601F0C1F800287FF478AF7A
:101DA0002068616A00690870606A2268411C208DA1
:101DB000616201382085638D013B638553695B0750
:101DC000D3D580B20328C5D1106820F4806010609C
:101DD000C0E700BF2046394600224346009500F088
:101DE0004BFF00287FF454AFEFF3108072B62068E9
:101DF000616A026842F40072026000690870606AF9
:101E0000218D01306062481E2085608D013860851B
:101E100062B658E02046394600224346009500F05D
:101E20002BFF00287FF434AF2068016821F4806123
:101E30000160EFF3108072B62068616A0069087073
:101E4000606A218D0130013960622185618D01391F
:101E50006185D9F80010C908A1FB0B12110A714362
:101E60000491049901390491049900293CD0216816
:101E70004A69520717D4049A013A0492049A9AB311
:101E80004A6952070FD4049A013A0492049A5AB349
:101E90004A69520707D4049A013A0492049A1AB381
:101EA0004A695207DDD50A6842F400720A6009697E
:101EB0000170606A218D01306062481E2085608D4E
:101EC0000138608562B62068616A006943E700BF37
:101ED000202084F83D00002084F83E0000218AF88C
:101EE000001005B0BDE8F08F00202021206384F8A9
:101EF0003D1084F83E00206C40F02000206462B663
:101F0000012000218AF8001005B0BDE8F08F000024
:101F100010B586B0016845F20040C4F2000081426D
:101F20004FF00001CDE90411CDE9021102D006B055
:101F300010BD00BF41F21804C4F20204216800F58C
:101F4000384041F008012160216801F00801019149
:101F50000199C0210291122103910321059102A947
:101F6000FFF782F9606840F400106060606800F478
:101F700000100190019806B010BD000040F2000072
:101F800040F25421C2F20000C2F2000100780A6857
:101F9000104408607047000080B542F20000C4F2AF
:101FA0000200016841F010010160032000F08CF88C
:101FB0000F2000F005F800F027F8002080BD000099
:101FC00070B540F20006C2F2000640F20801327815
:101FD000C2F200014FF47A730968B3FBF2F20446CF
:101FE000B1FBF2F1084600F0C3FB0F2C4FF00105E6
:101FF00008D838B94FF0FF3021460022002500F004
:1020000037F87460284670BD82B041F21800C4F2FF
:1020100002000168042241F001010160016801F041
:10202000010101910199416841F08051416040688E
:1020300000F08050009000980420C4F20100016874
:1020400062F31A61016002B070470000002848BFC7
:10205000704700F01F01012202FA01F11C2202EA7E
:10206000D0004EF20012CEF2000281507047000004
:1020700010B54EF60C5CCEF2000CDCF80030C3F369
:10208000022E8EF00704042C28BF0424BEF10303A3
:102090004FF0FF3E0EFA04F438BF0023A1439940ED
:1020A0000EFA03F39A43114300F00F0200F160436C
:1020B0000901043A03F564436244002848BF02F171
:1020C0000C03197010BD00004EF60C51CEF2000149
:1020D0000A684FF6FF031A4060F30A2242F080605C
:1020E00040F0FD700860704790FAA0F08021B0FACF
:1020F00080F0C4F20E21012241F820207047000038
:1021000010B547F20002C4F2000213684EF61054F4
:1021100023F0020313601368CEF2000423F00103DE
:10212000184310602068012940F00400206005D1A8
:1021300030BF206820F00400206010BD40BF01F0D7
:1021400093FA01F091FA206820F00400206010BD9D
:10215000002804BF012070472DE9F04381B042F20E
:102160000008C4F202080446D8F800000D4600F04A
:10217000070081420CD9D8F8000020F0070028435E
:10218000C8F80000D8F8000000F00700A8426CD1A1
:10219000206841F204098107C4F2020917D54107FA
:1021A00005D5D9F8001041F4E061C9F80010010725
:1021B00005D5D9F8001041F46051C9F80010D9F8DC
:1021C0000010A26821F0F0011143C9F80010C00707
:1021D00042D1D8F8000000F0070085420CD2D8F8B0
:1021E000000020F007002843C8F80000D8F80000DD
:1021F00000F00700A84238D12068410707D5D9F878
:102200000010E26821F4E0611143C9F800100007F2
:1022100008D5D9F80000216920F4605040EAC100D7
:10222000C9F80000D9F8002002F00C00082841F29B
:102230000020C0F27A004DD144F64E33C2F3834100
:10224000C0F60003595CD20338D440F60010C0F247
:102250003D0048433EE000BF606859F8041C022876
:1022600008D0012826D1890306D4012001B0BDE899
:10227000F08300BF8901F8D5D9F8001021F00301DF
:102280000843C9F80000FFF7F7F8064641F288371F
:10229000D9F80000616800F00C00B0EB810F98D015
:1022A000FFF7EAF8801BB842F2D9032001B0BDE87D
:1022B000F08300BF8907D8D5DEE700BFD9F800203A
:1022C00044F64C33C2F34042C0F600039A5C4843E4
:1022D000B0FBF2F0D9F8001044F63432C1F3031128
:1022E000C0F60002515C40F2080220FA01F140F20F
:1022F0000400C2F200000068C2F200021160FFF7A1
:102300005FFE002001B0BDE8F083000040F208004D
:1023100041F20401C2F20000C4F20201006809683F
:1023200044F64432C1F30221C0F60002515CC840B9
:102330007047000040F2080041F20401C2F20000C0
:10234000C4F202010068096844F64432C1F3C221B4
:10235000C0F60002515CC84070470000002804BF6E
:10236000012070472DE9F04182B00446007841F227
:102370000006C007C4F202060CD0706800F00C0022
:10238000042840F081803068800303D5606800280D
:1023900000F04681207880071BD5706810F00C0F84
:1023A00009D0706800F00C00082840F08780706841
:1023B000C00300F183803068800703D520690128BD
:1023C00040F02E813068616920F0F80040EAC100D9
:1023D00030602078000713D4207840072CD4E569BA
:1023E000002D00F01881706800F00C00082840F003
:1023F000A780012D40F00481012002B0BDE8F081EA
:10240000A069002800F084800020C4F2422001214D
:10241000C0F88014FFF730F8054600BF706A8007E7
:1024200000F1B280FFF728F8401B0228F6D90320FC
:1024300002B0BDE8F08100BFF0695FEAC00808D4CF
:10244000F06940F08050F061F06900F08050009039
:10245000009847F20007C4F200073868C00549D465
:10246000386840F480703860FFF706F8054600BF12
:102470003868C0053ED4FEF7FFFF401B6428F7D93B
:10248000032002B0BDE8F081706800F00C0008285D
:1024900003D17068C0033FF576AF616830680029EA
:1024A00000F00C81B1F5A02F00F00081B1F5803F64
:1024B00040F01A8140F480301CE100BF2069002800
:1024C00040F20000C4F2422000F088800121016047
:1024D000FEF7D2FF054600BF306880073FF572AFB8
:1024E000FEF7CAFF401B0228F6D9032002B0BDE860
:1024F000F08100BFE168306A002900F09D80052965
:1025000000F09280012940F0AF8040F00100B1E07E
:102510000020C4F242200021C0F88014FEF7ACFF76
:10252000054600BF706A80077FF556AFFEF7A4FF2F
:10253000401B0228F6D9032002B0BDE8F08100BF9D
:102540000027C4F2422700203866FEF795FF022DCF
:1025500005460DD13068800140F1DE80FEF78CFF2A
:10256000401B02284FF00300F4D902B0BDE8F0810F
:10257000306880014FD5FEF77FFF401B02284FF0E7
:102580000300F5D9F1E700BF40F20800C2F20000F5
:10259000006844F6D351C1F26201A0FB0101480A70
:1025A000019000BF00BF0198411E002801913FF437
:1025B00013AF00BF0198411E002801913FF40CAFFA
:1025C00000BF0198411E002801913FF405AF00BFF4
:1025D0000198411E00280191E4D1FDE6002101602F
:1025E000FEF74AFF054600BF306880077FF5F1AE71
:1025F000FEF742FF401B02284FF00300F4D9B4E776
:102600007068216A00F480328A4209D1616A00F45C
:102610007010884204D1002002B0BDE8F08100BFF4
:10262000012002B0BDE8F08140F004003062306A61
:1026300040F001001EE000BF20F001003062306A6F
:1026400020F004003062FEF717FF054641F288379C
:10265000306A800720D5FEF70FFF401BB8424FF0CD
:102660000300F5D981E700BF20F001003062306A35
:1026700020F004003062FEF7FFFE054641F2883785
:10268000306A800708D4FEF7F7FE401BB842F7D93E
:10269000032002B0BDE8F081B8F1000F3FF59FAE16
:1026A000F06920F08050F06199E600BF40F480208E
:1026B0003060306840F480301CE000BF20F480308F
:1026C0003060306820F480203060FEF7D5FE05468B
:1026D000306880037FF55EAEFEF7CEFE401B6428B7
:1026E0004FF00300F4D940E720F4803030603068C8
:1026F00020F480203060FEF7BFFE0546306880037E
:102700003FF548AEFEF7B8FE401B6428F6D903201B
:1027100002B0BDE8F08100BF206AB0F5803F05D16E
:102720007168A26821F40031114371607168626AB6
:1027300021F4741111430843706001203866FEF7DC
:102740009BFE0446306880013FF565AFFEF794FEBE
:10275000001B02284FF00300F4D906E74EF21000E8
:10276000CEF20000016841F00201016070470000F4
:10277000411E0020B0EB116F1CBF012070474EF2CC
:102780001002CEF2000251604EF62351CEF200014B
:10279000F0230B7007219060116070474EF210001B
:1027A000CEF20000016821F00201016070470000D4
:1027B000002804BF0120704710B5044690F841007E
:1027C00028B9002084F84000204600F063F8242057
:1027D00084F841002068D4E90212C36823F400534E
:1027E000C360036923F440531A430261D4E904230C
:1027F0001143C268194341F20C639A431143C1600B
:102800004169A26921F44071114343F60002C4F208
:1028100001029042416103D0FFF778FD02E000BF62
:10282000FFF788FDD4E90023192148439900B0FB44
:10283000F1F048F21F5CC5F2EB1CA0FB0C314FF627
:102840009C734909C0F6FF7301FB0300322303EBBD
:102850000010A0FB0C03F02000EA531000EB011065
:10286000C3F34311084490601069202120F4904084
:102870001061506920F02A005061D06840F4005087
:10288000D0600020606484F8411084F842106063D6
:1028900010BD000070B586B040F60004C4F201041B
:1028A0000068A4F54441002688420596CDE90366F8
:1028B000029601D006B070BD41F21800C4F20200C9
:1028C000416802AD41F400314160416801F40031DA
:1028D00001910199016841F00401016000682946F5
:1028E00000F004000190019804200290022003905F
:1028F000032005902046FEF7B7FC0820CDE902062C
:10290000204629460496FEF7AFFC06B070BD0000D5
:102910002DE9F04381B0044690F84100202809D108
:1029200000294FF0010018BF002A07D101B0BDE80F
:10293000F08300BF022001B0BDE8F0830020606496
:1029400021201D460E4684F841001746FEF794FDEF
:10295000A784E784A1688146B1F5805F02D1206930
:1029600000285DD037460020E28C2168002A5DD027
:102970006A1C24D0002D4AD0804600BF086800069B
:1029800008D4FEF779FDA0EB0900A8427AD82168A7
:10299000C868F3E717B117F8010B04E038F8020B29
:1029A00000276FF35F204860E08C0138E084E08C02
:1029B0000028E3D13AE000BF0A68120609D40A6889
:1029C000120606D40A6812065CBF0A685FEA026251
:1029D000F2D51FB117F8012B05E000BF30F8022B2C
:1029E00000276FF35F224A60E28C013AE284E28CB6
:1029F000002AE4D11AE000BF30F8022B00276FF361
:102A00005F224A60E28C013AE284E28C72B10A6889
:102A1000120635D5002FEFD017F8012BF1E700BFD4
:102A200000273046E28C2168002AA1D108684006C0
:102A30001ED42DB3681C14D1086840062AD4086837
:102A4000400627D40868400624D4086840064FF0A2
:102A50000000F1D50DE000BF2068C16800684006A5
:102A600018D4FEF709FDA0EB0900A842F4D909E04B
:102A70000020202184F8411001B0BDE8F08300BFA0
:102A8000FEF7FAFC0320202184F8411001B0BDE8D4
:102A9000F08300BF0020202184F8411001B0BDE880
:102AA000F0830000FEE700002DE9F04782B0044605
:102AB00000689A460B9D0A9E0368914643F4806223
:102AC000026002680F4642F48071016020464FF0B8
:102AD000011100223346009500F0CEF850B1206875
:102AE0000068C00544BF4FF400702064032002B0AA
:102AF000BDE8F08740F202082068C0F2010807F044
:102B0000FE0707612046414632462B4600F09AF9FF
:102B100020B1012002B0BDE8F08700BF0020019085
:102B200020682A46416901918069314601900198E7
:102B3000204600F03BFAB0B92068BAF1010F09D085
:102B40004FEA19210161204631462A4600F02EFA4B
:102B500048B920685FFA89F10161204631462A466A
:102B600000F024FA60B1206C0428D2D120680168FA
:102B700041F400710160012002B0BDE8F08700BFA0
:102B8000206800220168334641F4807101602046CC
:102B90004FF00111009500F06FF800289FD147F029
:102BA000010C27682046414632462B46C7F810C024
:102BB00002B0BDE8F04700F045B9000070B5036809
:102BC000044653F8140F400711D40E46481C29D070
:102BD00086BB00BF1868400527D4FEF74DFC23686C
:102BE00053F8140F400737D518684007F2D5002076
:102BF00070BD00BF18684007F9D41868400514D4A8
:102C000018684007F3D4186840050ED418684007C8
:102C1000EDD41868400508D4186840074FF000004C
:102C200048BF70BD18684005E4D56FF48060186037
:102C3000042012E0154603E053F8140F4007D6D4E1
:102C400018684005F1D4FEF717FC401B2368B0421A
:102C5000F2D958694007EFD42020002120222163B7
:102C600084F83D2084F83E10226C1043206401203B
:102C700084F83C1070BD00002DE9F0410546006865
:102C80001E46144601F47F0201338FB242D0DDF8B4
:102C90001880B2F5803F40F0878040693840C01B03
:102CA000B0FA80F04009844240F0C8804EB924E078
:102CB00040693840C01BB0FA80F04009844240F0BF
:102CC000BD80FEF7D9FBA0EB08012868B142EFD91F
:102CD00041693940C91BB1FA81F149098C42E7D1F8
:102CE0009BE000BF40693840C01BB0FA80F040094B
:102CF00084424FF0000040F0A280FEF7BDFB286840
:102D000041693940C91BB1FA81F149098C42E9D1C5
:102D100083E000BFB2F5803F24D100BF4169394054
:102D2000C91BB1FA81F149098C4240F087804169A1
:102D30003940C91BB1FA81F149098C4240F07E80CB
:102D400041693940C91BB1FA81F149098C4275D1F9
:102D500041693940C91BB1FA81F149098C42DDD082
:102D60006CE000BF81693940C91BB1FA81F14909A2
:102D70008C4263D181693940C91BB1FA81F149099B
:102D80008C425BD181693940C91BB1FA81F1490993
:102D90008C4253D181693940C91BB1FA81F149098B
:102DA0008C42DFD04AE000BF80693840C01BB0FAD7
:102DB00080F04009844241D146B923E0806938401F
:102DC000C01BB0FA80F04009844237D1FEF754FBB3
:102DD000A0EB08012868B142F0D981693940C91BCC
:102DE000B1FA81F149098C42E8D116E08069384096
:102DF000C01BB0FA80F0400984424FF0000018BFB9
:102E0000BDE8F081FEF738FB286881693940C91BAD
:102E1000B1FA81F149098C42E8D1002020212863D0
:102E200085F83D1085F83E00296C41F020012964A9
:102E300085F83C000120BDE8F08100BF0020BDE81E
:102E4000F0810000F0B581B0044600681D4643697A
:102E50008FB203EA0701B94202D1002001B0F0BDF0
:102E60004169164601323CD0490512D47EB300BFF9
:102E7000FEF702FB411B2068B14203D9416939408A
:102E8000B9422BD141693940B942E6D0416949057F
:102E9000EED5016841F4007101606FF48061416119
:102EA000042000212022216384F83D2084F83E1074
:102EB000226C1043206484F83C10012001B0F0BD66
:102EC00041693940B942C8D041694905E1D4FEF7AA
:102ED000D3FA206841693940B942F1D02020E0E7B7
:102EE00041694905D5D441693940B942B5D04169F4
:102EF0004905CED441693940B942AED0416949054E
:102F0000C7D441693940B942A7D041694905C0D405
:102F100041693940B942E3D19FE7000070B50446EA
:102F20000068154650F8143F5A063DD40E4629B99C
:102F300026E000BF50F8141F490635D40168C906C1
:102F400021D4FEF799FA411B2068B142F2D94169B8
:102F50004906EFD400202021206384F83D1084F836
:102F60003E00206C40F0200018E000BFFEF784FA1D
:102F7000206850F8141F4906ECD50168490613D49F
:102F80000168C906F2D56FF0100101600020202110
:102F9000206384F83D1084F83E00206C20640020FB
:102FA00084F83C00012070BD002070BD70B503683E
:102FB000044653F8140F000611D40E46481C29D0BD
:102FC00086BB00BF1868400527D4FEF755FA236872
:102FD00053F8140F000637D518680006F2D5002004
:102FE00070BD00BF18680006F9D41868400514D4F5
:102FF00018680006F3D4186840050ED41868000657
:10300000EDD41868400508D4186800064FF0000099
:1030100048BF70BD18684005E4D56FF48060186043
:10302000042012E0154603E053F8140F0006D6D42E
:1030300018684005F1D4FEF71FFA401B2368B04220
:10304000F2D958690006EFD4202000212022216304
:1030500084F83D2084F83E10226C10432064012047
:1030600084F83C1070BD000070B582B0044640F694
:103070006B000D46ADF8060064260DF106022046F1
:10308000D22102230096FEF7AFFC002871D140F256
:103090006C70ADF806000DF106022046D221022325
:1030A0000096FEF7A1FC002863D140F61D10ADF894
:1030B000060064260DF106022046D2210223009666
:1030C000FEF792FC002854D14EF23800ADF806000D
:1030D0000DF106022046D22102230096FEF784FC61
:1030E000002846D120208DF8060064260DF1060246
:1030F0002046D22102238DF807500096FEF774FC7B
:10310000B8BB21208DF806000DF106022046D22121
:1031100002238DF807500096FEF766FC48BB22207C
:103120008DF806008DF8075064250DF10602204643
:10313000D22102230095FEF757FCD0B94CF269006A
:10314000ADF806000DF106022046D22102230095BB
:10315000FEF74AFC68B941F21930ADF80600642563
:103160000DF106022046D22102230095FEF73CFC19
:1031700010B1012002B070BD42F66B00ADF8060040
:103180000DF106022046D22102230095FEF72CFC09
:10319000002818BF012002B070BD0000B0B582B099
:1031A00004466B20ADF8060064250DF106022046AA
:1031B000D22102230095FEF717FC00285AD13820AF
:1031C000ADF806000DF106022046D221022300953B
:1031D000FEF70AFC00284DD16920ADF806006425F1
:1031E0000DF106022046D22102230095FEF7FCFBDA
:1031F00000283FD140F21D70ADF806000DF1060227
:103200002046D22102230095FEF7EEFB90BB202042
:10321000ADF8060064250DF106022046D2210223F6
:103220000095FEF7E1FB28BB2120ADF806000DF16B
:1032300006022046D22102230095FEF7D5FBC8B92D
:103240002220ADF8060064250DF106022046D221A9
:1032500002230095FEF7C8FB60B940F21970ADF883
:1032600006000DF106022046D22102230095FEF74A
:10327000BBFB18B1012002B0B0BD00BF6C20ADF89F
:10328000060064250DF106022046D2210223009596
:10329000FEF7AAFB002818BF012002B0B0BD000055
:1032A000F0B585B0044640F27000C2F20000017033
:1032B00042706B2015460E46ADF8070064270DF1ED
:1032C00007022046D22102230097FEF78DFB70B93A
:1032D0006420FDF77BFF75208DF809000DF10902D0
:1032E0002046D22101230097FEF77EFB10B101207A
:1032F00005B0F0BD642000900DF106022046D221F9
:103300000123FEF771F90028F1D19DF8060012287B
:103310004FF0010047D140F21970ADF80A00642760
:103320000DF10A022046D22102230097FEF75CFB32
:103330000028DCD11C208DF80C0003AA2046D221E5
:1033400002238DF80D600097FEF74EFB0028CED1CA
:103350001B208DF80E008DF80F5064250DF10E0224
:103360002046D22102230095FEF73EFB0028BED165
:103370003720ADF8100004AA2046D2210223009580
:10338000FEF732FB0028B2D13820ADF812006427D6
:103390000DF112022046D22102230097FEF724FBF2
:1033A000002818BF012005B0F0BD00002DE9F04154
:1033B00088B00C4664210E220DF11203CDE90032D3
:1033C0000291D2213B2201230125FEF7FBFB18B11C
:1033D000284608B0BDE8F08140F27008C2F200084B
:1033E00098F800004FEAF001032900F26D80BDF863
:1033F0001420BDF8163012BABDF81200160C1ABA15
:10340000170C00BA000C4FF08045DFE801F00D0307
:10341000070B00BF4FF0814506E000BF4FF082452B
:1034200002E000BF4FF0834500B201F0BDF84FF05D
:10343000605101F04DF9294601F04AF9206030B29F
:1034400001F0B2F84FF0605101F042F9294601F065
:103450003FF9606038B201F0A7F84FF0605101F019
:1034600037F9294601F034F9BDF81810A060C8BA40
:1034700001F09AF80021C4F2AA3100F09FFF41F652
:10348000B861C4F2122100F001FF98F80110A061A8
:103490004FEAF101032917D8BDF81C20BDF81E30F2
:1034A00012BABDF81A00170C1ABA4FEA124800BA3D
:1034B0000025000CC4F27A35DFE801F013020C108D
:1034C0000025C4F2FA350CE00125284608B0BDE815
:1034D000F08100BF0025C4F27A4502E00025C4F265
:1034E000FA4500B201F060F84FF0605101F0F0F8D9
:1034F000014600F0CBFE294601F0EAF84FF63526EA
:10350000C3F68E46314601F0E3F8E06038B201F0D0
:103510004BF84FF0605101F0DBF8014600F0B6FEC9
:10352000294601F0D5F8314601F0D2F820610FFAB2
:1035300088F001F039F84FF0605101F0C9F8014608
:1035400000F0A4FE294601F0C3F8314601F0C0F8AE
:1035500000256061284608B0BDE8F08180B586B0DE
:10356000002041F21801CDE90400CDE90200C4F2C7
:1035700002010A6842F020020A600A6802F0200292
:103580000192019A0A6842F004020A600A6802F095
:1035900004020192019A0A6842F008020A6009686E
:1035A00001F0080101910199012102910021C1F26C
:1035B0001101CDE9031040F60000C4F2010002A998
:1035C000FDF752FE062003210022FEF751FD0620E2
:1035D000FEF73CFD4FF48070FEF786FD06B080BD1F
:1035E00080B540F2B80045F20041C2F20000C4F2DA
:1035F000000148F2A06200234FF4804CC0F20102A7
:1036000080E80E00C0E9033CC0E90533C0E9073398
:10361000FDF738FF002808BF80BDBDE88040FDF7FA
:10362000C9BD000080B540F20C1044F20041C2F266
:103630000000C4F2000100234FF00C0C4FF4E13203
:1036400080E80E00C0E90333C0E905C3C361FFF79A
:10365000AFF8002808BF80BDBDE88040FDF7AABDD7
:10366000FEE70000FEE7000020BF00BF704700003B
:103670007047000070470000FEF780BC70470000F4
:10368000FEE70000ACB0FDF7F7FE40F29005C2F295
:103690000005A860FEF780FC00240120CDE9274446
:1036A000CDE92544229026904FF4E0100DF18808D2
:1036B0004FF4803102262B904046CDE92314CDE90A
:1036C0002961FEF74BFE28B1EFF3108072B600BF00
:1036D000FEE700BF0F20CDE91D064FF48060CDE965
:1036E00020041DA802211F94FEF732FD20B1EFF344
:1036F000108072B6FEE700BFFFF730FFFFF770FFE4
:10370000FFF790FF40F2B800C2F200001021102233
:10371000FFF7C6FD002840F20C10C2F200004FF087
:10372000640307BF9EA1222297A11622FFF7F0F89B
:1037300005F10C001C90A8A0416840F2B80B1B9149
:10374000816840F254171A91C16840F20C16199121
:103750000169406908F10C09C2F2000BC2F20007CE
:10376000C2F2000618911790CDF8349024E000BF03
:10377000584662B6FFF712FD9D489DA4261D4ECE09
:1037800087E80700A08A3E61B882A07D40F20C164F
:10379000B8753846FB60C2F20006FCF781FE82B2C3
:1037A000304639466423FFF7B3F84FF47A70FDF7DB
:1037B0000DFD0120FDF70AFDFDF75EFE1C99824616
:1037C0005846FFF7F3FD18B130467EA1132260E0A2
:1037D0002868AAEB0000052804D3284640F80CAB63
:1037E000FDF7C0FA6868AAEB0000B0F5FA7F53D382
:1037F00005F10C0898E85101C5F804A000F01AFD85
:10380000CDE91510204600F015FDCDE91310304626
:1038100000F010FDCDE91110404600F00BFD1090B6
:10382000E8690F9100F006FD0646286A0E9100F047
:1038300001FD0446686A884600F0FCFCCDE90A01F7
:10384000149808940090139844F6F231019012985D
:10385000DDE91532029011980E9C03901098DDF866
:10386000349004900F98C0F60001CDE9050640F2AF
:103870000C163846CDF824800DF18808C2F20006F7
:103880000794FCF7CDFC3846FCF70AFE82B23046BE
:1038900039466423FFF73CF8FDF792FC00281ABF75
:1038A000C5F808A05046A868AAEB000041F289318B
:1038B0008842FFF47EAF44F654413846C0F600011A
:1038C0004522FCF70CFE3846FCF7EAFD82B2304692
:1038D00039464FF0FF33FFF71BF8FDF7CDFDA86029
:1038E00058462021FFF7C0FB3B4838601B987860A2
:1038F0001A98B8601998F860189838611798786124
:103900003846FCF7CDFD82B2304639466423FEF7D7
:10391000FFFFEFF3108072B6FEF740FF0020012199
:10392000FEF7EEFBFEF71AFF00260120C9E900664C
:10393000C9E90266229026904FF4E0104FF48031DE
:1039400002242B904046CDE92316CDE92941FEF70C
:1039500005FD98B90F201DA951C14FF48060CDE934
:1039600020061DA80221FEF7F3FB00283FF400AF5C
:10397000EFF3108072B600BFFEE700BFEFF31080D8
:1039800072B600BFFEE700BF49434D3230363032D9
:1039900020496E6974204661696C6564210D0A00D6
:1039A00049434D32303630322052656164792028E7
:1039B0005461702F5377696E67204D6F6465290DD0
:1039C0000A00000049434D323036303220526561E2
:1039D00064204572720D0A00456E746572204C6F4A
:1039E0007720506F776572204D6F6465210D0A0056
:1039F00045786974204C6F7720506F776572204D41
:103A00006F6465210D0A00005FEA400C08BF91F069
:103A1000000F4FEA8C234FEAC12243EA51514FEA8B
:103A20001C5018BF00F5F0404FEA300018BF41F0BD
:103A300000415FEA6C5C00F02980BCF1FF3F08BFE9
:103A400040F080407047130C06BF12044FF0100C7A
:103A50004FF0000C130E04BF12020CF1080C130FF0
:103A600004BF12010CF1040C930F04BF92000CF17F
:103A7000020CD30F04BF52000CF1010C11464FF0A1
:103A80000002A0F11F00A0EB0C00704711F0004FE6
:103A900008BF704731F000413FF4D5AF0B0C06BFB3
:103AA00009044FF0100C4FF0000C0B0E04BF09027C
:103AB0000CF1080C0B0F04BF09010CF1040C8B0F67
:103AC00004BF89000CF1020CCB0F04BF49000CF1BC
:103AD000010CCCF1200322FA03F341EA030102FABC
:103AE0000CF2A0EB0C0000F10100704723F07F47BF
:103AF00020F07F4C80EA030000F00040ACEB0703AD
:103B000003F57C5303F1FF032DE9804909B44FEA23
:103B1000144324EA03484FEA154B25EA0B4E0FF2F3
:103B2000042606EB13273E7803FB0667C7F500075C
:103B300007FB06F64FEAD64606F102064FEA54376F
:103B400007FB066CCCF1005C4FEA1C472CEA074CE3
:103B50000CFB06F507FB06F404EB15464FEA961638
:103B600049085FEA320234BF00204FF000404FEABC
:103B7000D13706FB07FC4FEA1C4C0CFB0BF7D21BA2
:103B800003FB0CF761EB07010CFB0EF7B0EB0740F2
:103B900072EB17420CFB08F734BFA2EB0742B2EB03
:103BA000074261EB17414FEA0C444FEA910706FBCD
:103BB00007FC4FEA1C4C0CFB0BF7B0EBC74072EB59
:103BC000573203FB0CF734BFA2EBC742B2EBC7423C
:103BD00061EB57310CFB0EF7B0EBC70072EB57727D
:103BE0000CFB08F734BFA2EBC702B2EBC70261EBD4
:103BF00057714FEA816141EA92114FEA826242EACB
:103C000090124FEA806004EBCC04039F4FEAD13757
:103C100006FB07FC4FEA1C4C0CFB0BF7D21B03FB0B
:103C20000CF761EB07010CFB0EF7B0EB074072EBF2
:103C300017420CFB08F734BFA2EB0742B2EB074276
:103C400061EB17414FEA8C5504EB9C244FEA910736
:103C500006FB07FC4FEA1C4C0CFB0BF7B0EBC74014
:103C600072EB573203FB0CF734BFA2EBC742B2EB47
:103C7000C74261EB57310CFB0EF7B0EBC70072EB9C
:103C800057720CFB08F734BFA2EBC702B2EBC702B6
:103C900061EB57714FEA816141EA92114FEA82620A
:103CA00042EA90124FEA806015EB4C2544F1000483
:103CB0004FEAD13706FB07FC4FEA1C4C0CFB0BF715
:103CC000D21B03FB0CF761EB07010CFB0EF7B0EB0B
:103CD000074072EB17420CFB08F734BFA2EB074218
:103CE000B2EB074261EB17414FEA813141EA924161
:103CF0004FEA823242EA90424FEA80304FEA0C7635
:103D000015EB1C1544F1000448EA03434EEA0B4846
:103D10004FF0000EB2EB080C71EB030724BF6246B4
:103D200039464EEB0E0E4FF0000B00185241494140
:103D30004BEB0B0BB2EB080C71EB03077BF1000BA9
:103D400024BF624639464EEB0E0E4FF0000B0018B2
:103D5000524149414BEB0B0BB2EB080C71EB0307E3
:103D60007BF1000B24BF624639464EEB0E0E51EA42
:103D7000020718BF46F0010616EB0E7655F1000259
:103D800054F1000103D5BDE88901BDE80088BDE814
:103D90008901BDE80048B619524141EB0101A3F188
:103DA0000103704780807F7E7D7C7B7A797877768F
:103DB00076757473727171706F6E6E6D6C6C6B6A08
:103DC0006A696868676666656464636362616160A6
:103DD000605F5F5E5E5D5D5C5C5B5B5A5A59595823
:103DE000585757565655555554545353525252518D
:103DF000515050504F4F4F4E4E4D4D4D4C4C4C4BE3
:103E00004B4B4A4A4A494949484848474747474629
:103E10004646454545444444444343434342424265
:103E2000424141419C46002B30D477002BD04FEAD1
:103E300037071CB503B44FF010004FF01001BAF172
:103E4000000F06D0BCF1000FDCBF40F0080040F0CE
:103E500008014FF000000FBCBDE810400BF1010B52
:103E6000BBF1010F08BF5FEA170722BF12F1010281
:103E700011F101014FF0004143F1000300F0004057
:103E800043EA00007047F9D35708D0E746EA0646F0
:103E90004FEA164613F1400F1FDD13F1200FDFBF6D
:103EA00016430A46002120335B42BED0C3F12007EF
:103EB00046EA06464FEA164602FA07F746EA0706BA
:103EC00022FA03F2C3F1200701FA07F742EA0702D8
:103ED00021FA03F14FF00003A7E746EA020646EA9B
:103EE00006464FEA164646EA0106BCBF46EA0646C3
:103EF000360C4FF000034FF000024FF0000194E742
:103F00002DE9804C70B49A46934691E8380007C872
:103F100031EA400C48BF34EA430C03D5FFF7E6FD15
:103F2000FFF780FFF0BCBDE8008C2DE9804C70B439
:103F30009A46934691E8380007C810F0804F08BFB2
:103F400013F0804F03D100F005F8FFF76BFFF0BCD2
:103F5000BDE8008C20F07F4723F07F4C80EA03000F
:103F600000F0004007EB0C03A3F57C53A3F1FE0324
:103F700092F0000F00F0B38095F0000F00F0778012
:103F80002DE901494FEA114021EA00484FEA144661
:103F900024EA064700FB06FC08FB06F607FB08F8C8
:103FA00018EB06484CEB164C00FB07F718EB0748DC
:103FB0004CEB17404FEA124B22EA0B4E4FEA1546E4
:103FC00025EA06470BFB06FC0EFB06F607FB0EFE7A
:103FD0001EEB064E4CEB164C0BFB07F71EEB074E89
:103FE0004CEB174B18EB0B0840F1000018EB0E0BD5
:103FF00058EB000840F100008F1A4FF000014FF01D
:1040000000063CBFC943661B14BFB5EB040C00217E
:104010003CBFC943F61B4FEA174427EA04454FEA61
:104020001C472CEA074C04FB076205FB07F70CFB57
:1040300005F616EB074642EB174204FB0CFC16EBA9
:104040000C4642EB1C421BEB060658EB02024141B8
:104050004EEA8E0E46EA9E0601D5BDE80189B619E4
:10406000524141EB0101A3F10103BDE801894FEA8F
:10407000144524EA05464FEA114721EA074C05FB9F
:1040800007F406FB07F70CFB06F111EB074144EBC5
:10409000174405FB0CFC11EB0C4144EB1C444FEAAC
:1040A000124722EA074C05FB07F206FB07F70CFB59
:1040B00006F616EB074642EB174205FB0CFC16EB27
:1040C0000C4642EB1C456A1854F1000148BF70478A
:1040D000B619524141EB0101A3F10103704795F07C
:1040E000000F37D04FEA114221EA02464FEA144747
:1040F00024EA074C02FB07F106FB07F70CFB06F46A
:1041000014EB074441EB174102FB0CFC14EB0C448D
:1041100041EB1C414FEA154725EA074C02FB07F526
:1041200006FB07F70CFB06F616EB074645EB1745B3
:1041300002FB0CFC16EB0C4645EB1C42121951F12C
:10414000000148BF7047B619524141EB0101A3F18C
:10415000010370474FEA144524EA05464FEA114728
:1041600021EA074C05FB07F106FB07F70CFB06F2FB
:1041700012EB074241EB174105FB0CFC12EB0C4222
:1041800051EB1C414FF0000648BF7047921841EBBD
:104190000101A3F101037047490050EAC12018BF93
:1041A00004204A0D18BF40F0010040F2FF72B2EB4C
:1041B000515F08BF40F00200012808BF052070478A
:1041C00030380A2801D2012070470020704770B5AE
:1041D000054600F049FB044620F00040C0F1FF40D6
:1041E000C00F08D025F00040C0F1FF40C00F04BF51
:1041F0000120FCF7AEF9204670BD000010B5002983
:104200000AD00878002807D005487844FCF75EFDFE
:10421000002801D0002010BD0248784410BD0000E5
:10422000B20A0000AA0A00000808A0F500114FEA2F
:104230003101704743004FEAD30C4FEA3C0C434036
:104240001FBF40070CF1605113F0FE4F70471CF088
:10425000006F03D10CF00041002070470CF00043C8
:1042600043EA507040EACC0010B500F0B2FA00BF4B
:10427000000000924FEA0001FFF7D6BF4FF0004167
:10428000A1F500214FF000007047000090EA010FF7
:1042900048BF81F0004100F17683421A3CBF801A8A
:1042A00089184FEAD052A2EBD1534FF07F4C1CEA51
:1042B000410F18BF9CEA026F00F03B804FF0004CAA
:1042C0004CEA00204CEA012121FA03FC10EB0C0C13
:1042D0001ED202F1FF325FEA1C2040EBC25038BF11
:1042E00070471CF07F0F4FEA400C18BFBCF17F4FA6
:1042F00038BF7047C3F12003994008BF20F0010088
:10430000BCF17F4F38BF7047A0F1C04000F0A7BAA2
:104310004FEA3C00000A40EBC25028BF1CF0FF0FE0
:104320004FEA400CE6D018BFBCF17F4F38BF704752
:10433000EAE79CEA026F05D010EA5C0F08BF00F0C4
:104340000040704710B500F044FA00BF64FBBE3E69
:1043500010B500F0F5F80CBF0120002010BD10B51D
:1043600000F0EEF814BF0120002010BD10B500F0E1
:1043700047F98CBF0120002010BD10B500F040F9B6
:104380002CBF0120002010BD10B500F06DF994BFC6
:104390000120002010BD10B500F066F934BF0120E7
:1043A000002010BD401058BFC0F14040491058BF18
:1043B000C1F140418142EFF3008070474FF47F0C20
:1043C0001CEAD0121EBF1CEAD11392EA0C0F93EA2A
:1043D0000C0F00F0858090EA010F48BF42F4807214
:1043E00040F4000C41F400002CF07F4120F07F40AD
:1043F00000B5A2EB030281420FF2081CACEB504E59
:104400009EF800E0C0F100004FEA4E0E00FB0EFCEB
:1044100038BF49004FEA2C1C0CFB0EF34FEACE1EAE
:104420000EEB635E4FEA112C0EFB0CFC4FEAC12130
:104430004FEA1C5300FB031102F5FA024FEA112C5C
:104440000EFB0CFC4FEA01314FEADC4C00FB0C1177
:1044500042EB2242C14228BF09184CEB03335DF8FE
:1044600004EB10EB410143EBC250B2F57C0F38BFB7
:10447000704729D512F0F00F1CBF00F1C04000F0CA
:1044800000407047008182838485868788898B8C71
:104490008D8E8F919293959697999A9C9D9FA0A2AD
:1044A000A3A5A7A8AAACAEB0B2B3B5B7B9BCBEC0FD
:1044B000C2C5C7C9CCCED1D4D7D9DCDFE2E6E9EC9E
:1044C000F0F3F7FAFE0000004FEA400C0CF1807C9C
:1044D000BCF17E4F28BF7047B0F1C04000F0BFB9BB
:1044E0000CEAD11390EA010F48BF42F48072624592
:1044F00038BF634507D213F47F0F16D080EA01005E
:1045000000F00040704710B500F063F9097EFC3EF2
:1045100000F005B880EA010000F00040704780EA32
:10452000010000F0004000F09AB912F47F0F04BFC0
:104530000248704780EA010000F091B90000C07F96
:1045400050EA010C00F113801CF5000F58BFBCF5B8
:10455000000F01D48842704707D710F5000F58BFED
:1045600011F5000F15D488427047894270471CF539
:10457000000F04D5BCF5000FF7D5814270474FF00E
:10458000807C1CEB400F38BF1CEB410F01D28142F5
:10459000704710B500F01DF9922449004FF000500B
:1045A0004FF08051FFF7FEBE10F0004148BF40427F
:1045B000B0FA80F310FA03F2C3F19D030BD051EA75
:1045C000C35101EB1220530638BF704700F10100C0
:1045D00008BF20F001007047B0FA80F310FA03F230
:1045E000C3F19D030AD0D90501EB1220530638BF51
:1045F000704700F1010008BF20F001007047000083
:1046000050EA010C00F113801CF5000F58BFBCF5F7
:10461000000F01D48842704707D710F5000F58BF2C
:1046200011F5000F15D488427047894270471CF578
:10463000000F04D5BCF5000FF7D5814270474FF04D
:10464000807C1CEB400F38BF1CEB410F01D2814234
:10465000704710B500F0BDF8922449004FF080502B
:104660004FF00051FFF79EBE50EA010C00F113809D
:104670001CF5000F58BFBCF5000F01D488427047ED
:1046800007D710F5000F58BF11F5000F15D4884259
:104690007047894270471CF5000F04D5BCF5000F28
:1046A000F7D5814270474FF0807C1CEB400F38BF3C
:1046B0001CEB410F01D28142704710B500F089F820
:1046C000922449004FF000504FF08051FFF76ABE2E
:1046D0004FF47F0C1CEAD0121EBF1CEAD11392EAE1
:1046E0000C0F93EA0C0F00F0478090EA010F48BFCF
:1046F00042F480724FF0004C4CEA00204CEA012159
:1047000002EB0302A0FB0113A2F50002002918BF6F
:1047100043F001035B0028BF4FEA330342EB224220
:104720005FEA132C4CEBC2502EBFBCEB436FB2F5CB
:104730007C0F70474FEA036CBCF1004F08BF20F0BC
:104740000100B2F57C0F38BF70470BD582F0FF0235
:1047500012F5803FC8BF704700F1C040D8BF00F0DD
:104760000040704700F5000C5FEA4C0C48BF7047F2
:10477000B0F1C04000F073B80CEAD11390EA010F19
:1047800048BF42F48072624538BF634504D280EA74
:10479000010000F00040704710B500F01AF800BFAB
:1047A0008900013E00F007B800F009B85FEA410C4B
:1047B0005FEA1C6C08D080EA010000F050B85FEAA4
:1047C000400C5FEA1C6CF6D14FF00040A0F5800071
:1047D00070470EF1020E2EF0030E5EF8044B2442D9
:1047E00004D44FEA4102B2F17F4F11D84FEA40039F
:1047F000B3F17F4F0CD80ED14FEAD07C0CEB4C0CB0
:104800000CF1020CB2F17F4F08BF4CEBD17C04E0FD
:104810004FF0080C01E04FEAD17C0CEB4C0324FA7A
:1048200003F404F00704B4F1040C06D20EEB840C7C
:10483000BDE810404CF0010C6047DFE80CF00708C1
:1048400002024FF00040A0F5800010BD0846420073
:1048500018BFD2F1807288BF00F0004010BDFF2168
:1048600041EAD050C00570474FEAD051002988BFB7
:10487000D1F1FF0240F275804FEA002040F0004085
:1048800070B501F17D01490838BF40080EA2430E02
:10489000D25C040C02FB02F304FB03F3C3F14043BC
:1048A000A3FB0254ED0D45EA442202FB02F3A0FBF8
:1048B00003546D42C4F1404438BF641EA2FB053569
:1048C0000023E2FB0453EA0B42EA4342A0FB02321C
:1048D00012F14004E409A2F1210303F07F031F2B2E
:1048E00032D904EBC15070BDFEFAF7F3F0ECE9E603
:1048F000E4E1DEDCD9D7D4D2D0CECCCAC8C6C4C29B
:10490000C1BFBDBCBAB9B7B6B4B3B2B0AFAEACAB51
:10491000AAA9A8A7A6A4A3A2A1A09F9E9E9D9C9B76
:104920009A999897979695949393929190908F8E49
:104930008E8D8C8C8B8A8A898988878786868584E8
:10494000848383828281818004FB04F6B6EB004677
:1049500003D5E64248BF641CC3E7A64258BF641CA7
:10496000BFE711F0FF0F02D100F00040704710B513
:10497000FFF72FFF7FDBFFBE90EA010F48BF81F0FA
:1049800000413FF58AAC421A04D882F00042A0EB05
:10499000020011444FEAD052A2EBD1534FF07F4CAA
:1049A0001CEA410F18BF9CEA026F4AD04FF0004C3E
:1049B0004CEA00204CEA012121FA03FCB0EB0C0C7C
:1049C0000FD412F0FE0F36D05FEA4C001DD5001256
:1049D00040EBC25038BF70471CF03F0F18BF704704
:1049E0000BE05FEA1C20A2F1010240EBC25038BF8D
:1049F00070471CF07F0F18BF7047C3F12003994028
:104A000014BF401E20F0010070474FEA12238008B7
:104A100008BF7047B0FA80FCA2EB0C02CCF1280C66
:104A200060FA0CF093EA122F04BF00EBC2507047FB
:104A30004FEAC3707047130A5FEADC1008BF704783
:104A4000F6E79CEA026F04D010EA5C0F08BF002072
:104A5000704710B5FFF7BDFE40DFF63E81F0004025
:104A60007047FBF7ADBE3031323334353637383925
:104A700041424344454640305800303132333435AA
:104A80003637383961626364656640307800040007
:104A900000080000000000000002000100001000FB
:104AA00002400000000000A00000000005400000DF
:104AB000000000C8000000000C4000000000409C06
:104AC00000000000194000000020BCBE00000000F3
:104AD00034400000BFC91B8E00000004B540000038
:104AE000504BCFD06607E2CF010000006C410000C0
:104AF0003E8251AADFEEA73401000000D942000037
:104B0000DCB5A0E23A301F97FFFFFFFFB44500007D
:104B1000FD25A0C8E9A3C14FFFFFFFFFFF3F000035
:104B20000000008000000000FF3F00000000008047
:104B3000000000000000000000000000010203046B
:104B40000607080900000000010203040102020335
:104B50000405060708090A0B0C0D0E0F101043750B
:104B60007272656E743A20202020202020202020A0
:104B7000252E336620410D0A5368756E7420566FDA
:104B80006C746167653A20202020252E33662056FC
:104B90000D0A42757320566F6C746167653A202068
:104BA00020202020252E336620560D0A506F776571
:104BB0007220436F6E73756D7074696F6E3A202545
:104BC0002E336620570D0A3D3D3D3D3D3D3D3D3D6B
:104BD0003D3D3D3D3D3D3D3D3D3D3D3D3D3D3D3D05
:104BE0003D3D3D3D3D3D3D3D3D3D3D3D3D3D3D0D25
:104BF0000A00416363656C3A20583D252E32666792
:104C00002C20593D252E3266672C205A3D252E3208
:104C10006667207C204779726F3A20583D252E32F6
:104C2000667261642F732C20593D252E32667261A5
:104C3000642F732C205A3D252E32667261642F73C7
:104C4000207C2054656D703A20252E3266C2B04318
:104C50000D0A00004E6F206D6F74696F6E206465E1
:104C600074656374656420666F72203520736563B4
:104C70006F6E64732C20707265706172696E67204C
:104C8000746F20656E74657220736C656570206D3D
:104C90006F64652E2E2E0D0A00000000D84C00080F
:104CA000000000201000000050010008E84C00083F
:104CB0001000002048080000700100081C000000DF
:104CC00043000000F8FFFFFF0C0000000E00000092
:104CD0000F0000002E000000010000001000000086
:084CE00000127A00060000003A
:04000005080000ED02
:00000001FF
