:020000040800F2
:1000000038220020450200083F380008F92D00087A
:100010003D380008271600082B3C000800000000AF
:10002000000000000000000000000000AD0100081A
:100030007F16000800000000F1010008B139000837
:100040005F0200085F0200085F0200085F0200080C
:100050005F0200085F0200085F020008C91800087C
:100060005F0200085F0200085F0200085F020008EC
:100070005F0200085F0200085F0200085F020008DC
:100080005F0200085F0200085F0200085F020008CC
:100090005F0200085F0200085F0200085F020008BC
:1000A0005F0200085F0200085F0200085F020008AC
:1000B0005F0200085F0200082D3A00085F02000896
:1000C0005F0200085F0200085F0200085F0200088C
:1000D0005F0200085F0200085F0200085F0200087C
:1000E0005F0200085F0200085F02000800F002F8EB
:1000F00000F04DF80AA090E8000C82448344AAF175
:100100000107DA4501D100F042F8AFF2090EBAE872
:100110000F0013F0010F18BFFB1A43F0010318473B
:10012000AC620000CC620000103A24BF78C878C1ED
:10013000FAD8520724BF30C830C144BF04680C60ED
:10014000704700000023002400250026103A28BF35
:1001500078C1FBD8520728BF30C148BF0B60704739
:10016000662906F00280642900F0A080752900F05D
:100170009D80002070471FB500F014FD0400002092
:10018000002105F0B3FAE0601FBD10B510BD00F00E
:100190000DFE1146FFF7EFFF03F08CFD00F02BFE84
:1001A00003B4FFF7F2FF03BC00F06EFE224B1968A8
:1001B0000868B0E8F00F80F30988BFF36F8F4FF045
:1001C000000080F311884EF00D0E70470000000013
:1001D00006480068006880F3088862B661B6BFF31D
:1001E0004F8FBFF36F8F00DF00BF00BF08ED00E04F
:1001F000EFF30980BFF36F8F0F4B1A6820E9F00F00
:10020000106008B54FF0500080F31188BFF34F8F96
:10021000BFF36F8F04F056FD4FF0000080F311889C
:10022000BDE8084019680868B0E8F00F80F3098855
:10023000BFF36F8F704700BF4C000020EFF30580C5
:10024000704700000948804709480047FEE7FEE77D
:10025000FEE7FEE7FEE7FEE7FEE7FEE7FEE7FEE776
:1002600004480549054A064B70470000293A000832
:10027000ED000008381C002038220020381E002025
:10028000381E00200FB41CB5074B06AA7B446946F4
:100290000090059800F04BFC0020694600F05AFCE5
:1002A0001CBC5DF814FB0000C50800002DE9F041FE
:1002B0000646002410687529314616A510D0AFF304
:1002C0000080002802DA404213A507E031688A075F
:1002D00001D512A502E0490704D511A5012401E0CA
:1002E000AFF3008000210A2206F1240709E0B0FBE9
:1002F000F2FCB0FBF2F302FB1C00303078541846DD
:10030000491C0028F3D123462A463046BDE8F04177
:1003100000F09FB9000000002D0000002B0000003D
:10032000200000002DE9F05F894604464FF0000AE6
:10033000DFF874B1FB44C0F820A02046E16888478C
:10034000002874D0252806D0D4E901219047206ADE
:10035000401C2062F1E700265F462046E16888479E
:100360002028054607DB312D05D2781910F8200C1E
:1003700008B10643F1E7B00701D526F00406C4F83A
:100380001CA00027C4F818A02A2D09D0284603F085
:1003900071FC38B304EB8708303DC8F8185019E0F9
:1003A00059F8041B204604EB87029161E1688847F5
:1003B000012F054618D1E069002820DA26F0200632
:1003C0001DE0D8F8180000EB800005EB4000303845
:1003D000C8F818002046E1688847054603F04AFC43
:1003E0000028EED1012F0AD02E2D08D12046E16839
:1003F00088477F1C0546022F46F02006C4DBA06913
:10040000002803DA404246F00106A061F00701D05F
:1004100026F010066C2D0BD0682D09D04C2D39D04C
:100420006A2D35D0742D35D07A2D33D016E038E0D2
:10043000E1682F4620468847B842054609D16C2F0F
:1004400026D04FF48060E168064320468847054681
:1004500004E06C2F1AD04FF4807006430DB3A5F161
:100460004100192802D8203546F400664A4629463C
:10047000204626604E46FFF773FE80B101280BD060
:10048000F61D26F0070000F1080956E74020E4E7D2
:100490008020D8E70020D6E706F104094DE728467A
:1004A00052E7206ABDE8F09F8A5F000010B5431C48
:1004B00002E010F8011B71B18107FAD14FF001324F
:1004C00002C88C1A8C4314EAC211F9D0C01A0A0669
:1004D00003D0C01E10BDC01A10BD0A0401D0801E7A
:1004E00010BD0902FCD0401E10BD032A40F230802E
:1004F00010F0030C00F0158011F8013BBCF1020F65
:10050000624498BF11F801CB00F8013B38BF11F8E5
:10051000013BA2F1040298BF00F801CB38BF00F8FC
:10052000013B11F0030300F02580083AC0F0088079
:1005300051F8043B083A51F804CBA0E80810F5E75D
:10054000121D5CBF51F8043B40F8043BAFF3008040
:10055000D20724BF11F8013B11F801CB48BF11F8B5
:10056000012B24BF00F8013B00F801CB48BF00F885
:10057000012B704710B5203AC0F00B80B1E818503D
:10058000203AA0E81850B1E81850A0E81850BFF47D
:10059000F5AF5FEA027C24BFB1E81850A0E818501C
:1005A00044BF18C918C0BDE810405FEA827C24BF70
:1005B00051F8043B40F8043B08BF7047D20728BFFE
:1005C00031F8023B48BF11F8012B28BF20F8023B4D
:1005D00048BF00F8012B704702F0FF0343EA0322F3
:1005E00042EA024200F0BDBA4FF0000200B51346E5
:1005F00094469646203922BFA0E80C50A0E80C5043
:10060000B1F12001BFF4F7AF090728BFA0E80C50F3
:1006100048BF0CC05DF804EB890028BF40F8042BEC
:1006200008BF704748BF20F8022B11F0804F18BF59
:1006300000F8012B704770477047704710B500F005
:10064000B5FA006810BD10B5044600F0AFFA0460BA
:1006500010BD2DE9F0470D4699469246044600F13B
:1006600024080168880604D5E06921F010012160A2
:1006700000E00120A84201DD471B00E00027A1693E
:100680007A1902EB0900081AA0612078C00602D48A
:100690002046AFF30080002608E0D4E901211AF8D3
:1006A00006009047206A401C761C20624E45F4DB11
:1006B0002078C0060AD52046AFF3008006E0D4E9D2
:1006C000012130209047206A401C2062381EA7F18B
:1006D0000107F4DC07E0D4E9012118F80500904790
:1006E000206A401C2062281EA5F10105F3DC20468B
:1006F000AFF300802078000602D50220BDE8F08725
:100700000120FBE770472DE9FF4F0C461E464FF0D6
:10071000FF378BB0D2E90001DDF860800A908A468D
:10072000C1F30A5505B93D46002108464FF00000C7
:10073000BAF1000F00F4400005DA00EB80004FF43E
:10074000400101EA50004FEA9059B9F1010F00DD74
:10075000B9460A9850EA4A000ED044F61050A5F265
:10076000FF3545432F14B8F1000F1ED07542291EE6
:100770001EDDC9F100021CE0B8F1010F4FF00000CE
:1007800001D0302103E0F24305E02154401CB04287
:10079000FBDB30460022002121540B99C1F8088070
:1007A000C1E900200FB0BDE8F08FBD1B6D1CDEE776
:1007B0004A4600DA694206A800F082FA06AB93E8DE
:1007C000070003AB83E8070050460A9900F063FB7B
:1007D0008DE80700A0F500501F3800900398002D09
:1007E0000ADD42F21F014A460844002303A9039090
:1007F000684600F0CCFD09E0A0F500504A461F38DD
:10080000002303A90390684600F0D6FD8DE8070099
:100810000004000C03D04FF0FF30410800E0104608
:10082000B8F1000F03D00022009215461EE0751E9D
:1008300005D400F0BFF9303262556D1EF9D5B346CC
:100840000122084302D000227F1C04E020783028D7
:1008500001D100227F1E002A099784D01DE0112DAE
:1008600007DA00F0A7F9303262556D1C50EA010238
:10087000F5D1084302D00098C8B10EE00021681EEF
:1008800005E0235C625C63542254401E491C814293
:10089000F7DBAB46A81B401E0990002004F80B00B4
:1008A0000B98099AC0F80880C0E9002B7AE7112656
:1008B0004FF0000857E72DE9F04F88460446D21D57
:1008C00022F0070191B0D1E90001CDE90A0103F05E
:1008D000ADF902460B98C00F01D02D2007E020682B
:1008E000810701D52B2002E0202101EAC000032A64
:1008F000099001D0072A05DB03464146204600F057
:100900009FF90BE12078800601D5E06900E0062020
:10091000B8F1650F814606D0B8F1660F18D0B8F16E
:10092000670F70D131E00020B9F1110F009001DBA9
:10093000112301E009F101030AAA01A90CA8FFF79C
:10094000E2FEDDE90C70002609F10105834647E06F
:1009500001204B4600904FF000470AAA01A90CA8BD
:10096000FFF7D1FEDDE90DB00C995D46002610B908
:1009700009F101000D18B9EB050003D4C0F1FF36F1
:1009800009F10105A5EB09002BE0B9F1010F01DA2E
:100990004FF001090020B9F1110F0090484601DD28
:1009A000112300E003460AAA01A90CA8FFF7ABFE39
:1009B000DDE90C704D4600268346207800070AD4F6
:1009C000AB4500DA5D4601A8012D04DD411911F89F
:1009D000011C302907D04F4502DA17F1040F04DA61
:1009E000012082460FE06D1EEEE7002F02DCED1BBA
:1009F0003E4403E0781CA84200DD7D1CB81B00F1DA
:100A0000010A4FF000472078000703D4AA4501DB14
:100A10004FF0FF3A0021B7F1004F0DF143088DF878
:100A2000431024D002202B23002F01DA7F422D23F4
:100A30000A21021EA0F1010000DC5FB197FBF1FC6E
:100A400097FBF1F201FB1C7C17460CF1300C08F807
:100A500001CDEEE7A8F1010003702188090501D559
:100A6000452100E06521A0F1010800F8011C09986A
:100A70000FA9A1EB0807FF1D00B10120411901EBEF
:100A8000EA70A1693844081A401EA0612078C006A7
:100A900002D42046AFF30080099828B1D4E901219F
:100AA0009047206A401C20622078C00622D520464C
:100AB000AFF300801EE0002E04DBB34502DD01A889
:100AC000805D00E03020D4E901219047206A401C7D
:100AD0002062761CAAF101005FEA000A0AD100F048
:100AE00061F8C0680168405CD4E901219047206A40
:100AF000401C2062281EA5F10105DCDC07E0D4E9DA
:100B0000012118F8010B9047206A401C2062381E12
:100B1000A7F10107F3DC2046AFF30080032011B0FA
:100B200041E6000001694A1C02610878704700B57F
:100B30008FB0CDE901310021059105497944CDE916
:100B4000031011466846FFF7EDFB0FB000BD000033
:100B5000E5FFFFFF0A6802F8010B0A6070474FF0DB
:100B600000020429C0F0128010F0030C3FF43EADE7
:100B7000CCF1040CBCF1020F18BF00F8012BA8BF88
:100B800020F8022BA1EB0C01FFF730BD5FEAC17C1E
:100B900024BF00F8012B00F8012B48BF00F8012BFF
:100BA0007047000000487047F81B0020004870475D
:100BB000D81B002030B5B0F10A024FEA900E71F157
:100BC00000034EEA817EB0EB0E0061EB91014FEA2B
:100BD000101E4EEA017E10EB0E0041EB11114FEAA0
:100BE000102E4EEA016E10EB0E0041EB11214FEA80
:100BF000104E4EEA014E10EB0E0041EB1141401831
:100C000041F100014FEAD00040EA41704FEAD101C2
:100C100010EB80054FEA810444EA907444EB010430
:100C20006D1944EB0404521BA3414FF0000348BF6D
:100C30000A3200D530BD401C41F1000130BD00003A
:100C40002DE9F0411F46044603260168072A01F4F6
:100C5000006004DB08B116A505E016A503E008B1A5
:100C600015A500E015A521F010002060A069C01EA8
:100C7000A0610FB1401EA0612046AFF300804FB1CC
:100C8000D4E9012138469047206A401C2062C01CEC
:100C9000206206E0206AFAE7D4E9012115F8010B89
:100CA0009047761EF8D22046AFF30080BDE8F08171
:100CB0004E414E006E616E00494E4600696E660000
:100CC0002DE9F047814616468AB0354878440DC86C
:100CD0008DE80D0032487844801C03AC0DC884E8D0
:100CE0000D0041F69B300844372190FBF1F290FB58
:100CF000F1F5A5F1800501FB12041B3C02D564420D
:100D0000012000E00020DFF898A080460027FA4488
:100D1000AAF1BE0A0EE0E0070AD03246684607EBA9
:100D2000470101230AEB810100F046FB8DE8070033
:100D300064107F1C002CEED1194F7F44AE3F19E0A8
:100D4000E80715D007EB04100DF1180A90E80E0023
:100D50008AE80E00C068F04201D198190890324626
:100D6000012306A903A800F027FB03AB83E80700D3
:100D70006D10641C002DE3D14FF00103324669462B
:100D8000B8F1000F03A802D000F001FB01E000F071
:100D900013FBC9E90001C9F808200AB0BDE8F087D3
:100DA0008056000000487047D81B00207546FFF7AA
:100DB000F9FFAE4605006946534620F00700854618
:100DC00018B020B5FFF74CFABDE820404FF0000600
:100DD0004FF000074FF000084FF0000B21F0070123
:100DE000AC46ACE8C009ACE8C009ACE8C009ACE866
:100DF000C0098D46704710B50446AFF30080204609
:100E0000BDE81040FFF7CCB94FF0013C50F8042B7F
:100E100051F8043B9A4221D1A2EB0C03934313EA0D
:100E2000CC1317D150F8042B51F8043B9A4215D13A
:100E3000A2EB0C03934313EACC130BD150F8042B11
:100E400051F8043B9A4209D1A2EB0C03934313EAF5
:100E5000CC13DBD04FF00000704700BFD01A01BAAE
:100E6000B1FA81F101F0180122FA01F0CB40C1F191
:100E70002001DBB2C0B2C01A2CFA01F3D11A91439F
:100E800011EAC311E6D1704701491820ABBEFEE755
:100E90002600020070475FEA400C08BF91F0000F87
:100EA0004FEA8C234FEAC12243EA51514FEA1C50CA
:100EB00018BF00F5F0404FEA300018BF41F0004184
:100EC0005FEA6C5C00F02980BCF1FF3F08BF40F096
:100ED00080407047130C06BF12044FF0100C4FF007
:100EE000000C130E04BF12020CF1080C130F04BF08
:100EF00012010CF1040C930F04BF92000CF1020CD0
:100F0000D30F04BF52000CF1010C11464FF0000248
:100F1000A0F11F00A0EB0C00704711F0004F08BFBC
:100F2000704731F000413FF4D5AF0B0C06BF090408
:100F30004FF0100C4FF0000C0B0E04BF09020CF127
:100F4000080C0B0F04BF09010CF1040C8B0F04BF3C
:100F500089000CF1020CCB0F04BF49000CF1010C0D
:100F6000CCF12003A0EB0C0022FA03F302FA0CF2FE
:100F700041EA030100F10100704720F07F4C80EA54
:100F8000030023F07F47ACEB070303F57C5300F02D
:100F9000004003F1FF032DE980494FEA154B09B4E6
:100FA0004FEA144325EA0B4E24EA03480FF20426C5
:100FB00006EB132749083E785FEA320203FB066717
:100FC000C7F5000707FB06F64FEA54374FEAD64647
:100FD00006F1020607FB066CCCF1005C4FEA1C47E9
:100FE0002CEA074C07FB06F40CFB06F504EB154650
:100FF0004FEA961634BF00204FF000404FEAD13739
:1010000006FB07FC4FEA1C4C0CFB0BF7D21B03FB47
:101010000CF761EB07010CFB0EF7B0EB074072EB2E
:1010200017420CFB08F734BFA2EB0742B2EB0742B2
:1010300061EB17414FEA0C444FEA910706FB07FCAE
:101040004FEA1C4C0CFB0BF7B0EBC74072EB57326E
:1010500003FB0CF734BFA2EBC742B2EBC74261EB14
:1010600057310CFB0EF7B0EBC70072EB57720CFB5D
:1010700008F734BFA2EBC702B2EBC70261EB5771AE
:10108000039F4FEA816141EA921104EBCC044FEADD
:10109000D1374FEA826206FB07FC42EA90124FEA20
:1010A00080604FEA1C4C0CFB0BF7D21B03FB0CF7C8
:1010B00061EB07010CFB0EF7B0EB074072EB174238
:1010C0000CFB08F734BFA2EB0742B2EB074261EB1F
:1010D00017414FEA8C554FEA910704EB9C2406FB1D
:1010E00007FC4FEA1C4C0CFB0BF7B0EBC74072EB54
:1010F000573203FB0CF734BFA2EBC742B2EBC74237
:1011000061EB57310CFB0EF7B0EBC70072EB577277
:101110000CFB08F734BFA2EBC702B2EBC70261EBCE
:10112000577115EB4C254FEA816141EA92114FEA64
:1011300082624FEAD13742EA901206FB07FC44F183
:1011400000044FEA80604FEA1C4C0CFB0BF7D21BEB
:1011500003FB0CF761EB07010CFB0EF7B0EB07404C
:1011600072EB17420CFB08F734BFA2EB0742B2EB5D
:10117000074261EB174115EB1C154FEA813141EA3B
:1011800092414FEA823242EA90424FEA80304FEA7F
:101190000C7644F1000448EA03434EEA0B484FF052
:1011A000000EB2EB080C71EB030724BF6246394610
:1011B0004EEB0E0E4FF0000B0018524149414BEB25
:1011C0000B0BB2EB080C71EB03077BF1000B24BF98
:1011D000624639464EEB0E0E4FF0000B001852419E
:1011E00049414BEB0B0BB2EB080C71EB03077BF1A6
:1011F000000B24BF624639464EEB0E0E51EA020741
:1012000018BF46F0010616EB0E7655F1000254F1B8
:10121000000103D5BDE88901BDE80088BDE889016A
:10122000BDE80048B619524141EB0101A3F10103A9
:10123000704780807F7E7D7C7B7A79787776767543
:101240007473727171706F6E6E6D6C6C6B6A6A69BB
:101250006868676666656464636362616160605F55
:101260005F5E5E5D5D5C5C5B5B5A5A5959585857CE
:101270005756565555555454535352525251515036
:1012800050504F4F4F4E4E4D4D4D4C4C4C4B4B4B89
:101290004A4A4A49494948484847474747464646CF
:1012A000454545444444444343434342424242410A
:1012B0004141002B9C4630D477002BD01CB54FEA1F
:1012C000370703B44FF010004FF01001BAF1000FD0
:1012D00006D0BCF1000FDCBF40F0080040F0080170
:1012E0004FF000000FBCBDE810400BF1010BBBF14B
:1012F000010F08BF5FEA170722BF12F1010211F1C7
:1013000001014FF0004143F1000300F0004043EAC7
:1013100000007047F9D35708D0E746EA064613F1B4
:10132000400F4FEA16461FDD13F1200FDFBF1643B3
:101330000A46002120335B42BED0C3F1200746EAB3
:10134000064602FA07F74FEA164646EA0706C3F1D1
:10135000200722FA03F201FA07F721FA03F14FF00E
:10136000000342EA0702A7E746EA020646EA064603
:101370004FEA164646EA0106BCBF46EA0646360C68
:101380004FF000034FF000024FF0000194E72DE909
:10139000804C9A46934670B491E8380007C831EA09
:1013A000400C48BF34EA430C03D5FFF7E6FDFFF7D6
:1013B00080FFF0BCBDE8008C2DE9804C9A46934636
:1013C00070B491E8380007C810F0804F08BF13F0E0
:1013D000804F03D100F005F8FFF76BFFF0BCBDE8CC
:1013E000008C20F07F4780EA030023F07F4C07EB5E
:1013F0000C03A3F57C5300F00040A3F1FE0392F030
:10140000000F00F0B38095F0000F00F077802DE919
:1014100001494FEA11404FEA144621EA004800FB17
:1014200006FC24EA064708FB06F607FB08F800FB63
:1014300007F718EB06484CEB164C4FEA124B18EB2B
:1014400007484FEA15464CEB174022EA0B4E0BFBC0
:1014500006FC25EA06470EFB06F607FB0EFE0BFB15
:1014600007F71EEB064E4CEB164C4FF000061EEB3A
:10147000074E4CEB174B18EB0B0840F1000018EB34
:101480000E0B58EB000840F100008F1A4FF00001DE
:101490003CBFC943661B14BFB5EB040C00213CBF25
:1014A000C943F61B4FEA17444EEA8E0E27EA04455D
:1014B0004FEA1C4704FB07622CEA074C05FB07F7C1
:1014C0000CFB05F604FB0CFC16EB074642EB17423F
:1014D00016EB0C4642EB1C421BEB060658EB0202D5
:1014E000414146EA9E0601D5BDE80189B61952413F
:1014F00041EB0101A3F10103BDE801894FEA144565
:101500004FEA114724EA054621EA074C05FB07F498
:1015100006FB07F70CFB06F105FB0CFC11EB074182
:1015200044EB17444FEA124711EB0C4144EB1C44C7
:1015300022EA074C05FB07F206FB07F70CFB06F651
:1015400005FB0CFC16EB074642EB174216EB0C466C
:1015500042EB1C456A1854F1000148BF7047B619A8
:10156000524141EB0101A3F10103704795F0000FD7
:1015700037D04FEA11424FEA144721EA024624EAE3
:10158000074C02FB07F106FB07F70CFB06F402FB16
:101590000CFC14EB074441EB17414FEA154714EBE1
:1015A0000C4441EB1C4125EA074C02FB07F506FB06
:1015B00007F70CFB06F602FB0CFC16EB074645EBA7
:1015C000174516EB0C4645EB1C42121951F1000170
:1015D00048BF7047B619524141EB0101A3F1010325
:1015E00070474FEA14454FEA114724EA054621EABD
:1015F000074C05FB07F106FB07F70CFB06F24FF063
:10160000000605FB0CFC12EB074241EB174112EB05
:101610000C4251EB1C4148BF7047921841EB01014D
:10162000A3F101037047FEE710B504F029FDBDE802
:10163000104020F00040014904F07ABA0000A040B8
:1016400070B50C4606461146084604F093FB054665
:101650002146084604F08EFB04463146084604F055
:1016600089FB214604F0F0F9294604F0EDF904F075
:10167000BFF903F065F8BDE8704004F04DB870475D
:101680002DE9FC5F04464FF0000B00F09BFA074683
:1016900094E80700FFF7D4FF0C34054694E80700F0
:1016A0000C3CFFF7CDFF814694E807005E4CA37821
:1016B00000F010F980462846A169FFF7B5FF824681
:1016C000A56120780026052832D2DFE800F0031358
:1016D000619EA0005548854257DDB9F17E5FFBDD74
:1016E000C4E9037501206561607084F80280E070D0
:1016F000267149E0E0683A1AC82A01D94CA10BE0EA
:10170000A178884515D02079401CC2B2227184F896
:101710000280032A0DD34DA15348FEF7B3FD524872
:10172000FEF7C4FE82B264234F49504801F014FB17
:1017300075E04F48854272DDB9F17C5F6FDD6078FE
:10174000401CC7B26770384604F0CCFA8146781E58
:1017500004F0B0FA616904F00DFB294604F074F955
:10176000494604F0E5F960612846216904F0CEFBA2
:1017700000D22561A178884508D1E078401CC0B22C
:10178000E07002284CD30220207049E0E67047E068
:101790003849606904F0EEFA216904F0B7FA20D202
:1017A0003549206988421CDDBAF17C5F19DD0321CF
:1017B000A7604FF0010B217004F01AF9E2680B46A4
:1017C000BA1A009202462DA12748FEF75BFD264873
:1017D000FEF76CFE82B264232349244801F0BCFA70
:1017E0001EE0D4E9040104F0A3F904F001F9054670
:1017F0000F46504604F0FCF8CDE9005702460B4670
:1018000027A11948FEF73EFD89E70420BCE7A06840
:10181000381AB0F5FA7F03D92A48854200DA2670D3
:101820005846BDE8FC9F00000C0000206666E63FBD
:101830005377696E672028546F6F206C6F6E673A1C
:1018400020256C75206D73290D0A00005377696E91
:10185000672028446972206368616E6765733A2067
:101860002564290D0A000000D80000207402002021
:101870006666663F6666863F713D0A405461702029
:10188000285065616B3A20252E3266672C204475FE
:10189000723A20256C75206D73290D0A0000000036
:1018A0005377696E672028536D6F6F74683A2025EF
:1018B0002E32662C20526174696F3A20252E3266D2
:1018C000290D0A009A99993F022000F07FB872B65C
:1018D000FEE700002DE9F05F8A46834620F00048CD
:1018E00021F000451E4691464FF4000722F00044C7
:1018F0004046294604F00AFB0AD82146404604F037
:1019000005FB05D8BB4501DA012716E0002714E0E6
:101910004146284604F0FAFA0AD82146284604F03F
:10192000F5FA05D8BA4501DB022706E0032704E0F3
:10193000B94501DB042700E00527B74223D0062E76
:1019400021D000210846062E09D2DFE806F0030365
:1019500005050707414602E0294600E02146062F1B
:1019600009D2DFE807F0030305050707404602E058
:10197000284600E0204604F083FB044920F00040A4
:10198000884200DA37463846BDE8F09FCDCCCC3EE1
:1019900070B5044600F016F90546601C02D00448F4
:1019A0000078044400F00EF9401BA042FAD370BD49
:1019B0003C00002008B5022804D16A463A210248BA
:1019C00001F08EFE08BD000020020020044910B581
:1019D0000A68024202D00860FFF7ECFF10BD000069
:1019E000140401402DE9F84FDFF8B8910024A9F163
:1019F000040B23460F2709F1040AABF1040EC9E0DA
:101A00000125A5402A40AA427DD1674ED1F804C0E5
:101A1000ACEB0608B44532D014DCBCF1030F3AD06D
:101A200009DCBCF1000F2AD0BCF1010F1CD0BCF1C5
:101A3000020F31D11DE0BCF1110F17D0BCF1120F14
:101A40002AD119E0B8F5881F19D006DCB8F5803F17
:101A500015D0B8F5801F1FD111E0B8F5001F0ED0CA
:101A6000B8F5041F18D10AE0CB6815E0CB681B1D40
:101A700012E0CB6808330FE0CB680C330CE08B68C6
:101A80002BB1012B4FF0080303D0456104E0042380
:101A900002E0056100E00023FF2A01D8064601E0CC
:101AA00000F104064FEA840501D9A5F12005D6F816
:101AB000008007FA05FC28EA0C0803FA05F548EA55
:101AC0000508C6F800804D68ED0062D5374DAE6957
:101AD00046F00106AE61AD6924F0030605F001058C
:101AE0000095334D06EB050CDCF80850A607360FC1
:101AF00007FA06F825EA0805DFF8B880404503D163
:101B00004FF0000817E044E0DFF8AC80404502D118
:101B10004FF001080FE0DFF8A480404502D14FF0FC
:101B2000020808E0DFF89880404502D14FF0030832
:101B300001E04FF0040808FA06F848EA0508CCF876
:101B400008804D68D9F80060ED024D4601D5164376
:101B500000E096432E604D68DAF80060AD0255460D
:101B600001D5164300E096432E604D68DBF8006017
:101B7000AD035D4601D5164300E096432E604D68E7
:101B8000DEF80060ED03754601D5164300E096438C
:101B90002E60641C0D682A46E5407FF431AFBDE835
:101BA000F88F0000080401400000111000100240EE
:101BB0000000014000080140000C014000100140FD
:101BC0000014014001488068704700003C0000207C
:101BD00070B5040025D094F83D00002520B984F8A4
:101BE0003C50204600F0A4FB242084F83D002068EF
:101BF000016821F0010101602068016841F40041A1
:101C000001602068016821F40041016000F060FD7E
:101C10004D4A6168914201D84C4900E04C498842E4
:101C200001D2012070BD4B492368B0FBF1F15E6821
:101C300026F03F060E435E606368934206D94FF478
:101C4000967359434FF47A73B1FBF3F12368491C3F
:101C50001E6A26F03F06314319626168914210D82E
:101C60004900401EB0FBF1F2521CC2F30B02042AE1
:101C700001D2042022E0B0FBF1F0401CC0F30B00C5
:101C80001CE0A268F2B301EBC10303EB0116431E93
:101C9000B3FBF6F35B1C43F480431B0549D092B3BE
:101CA00001EBC10202EB0111401EB0FBF1F0401C40
:101CB000C0F30B0040F4804040F400402168CA6942
:101CC0004CF6FF739A431043C861D4E907100143EF
:101CD0002068026822F0C00211430160D4E90301C8
:101CE00001432068826848F2FF339A4311438160C0
:101CF000D4E9050108432168CA6822F0FF021043B5
:101D0000C86001E00EE016E02068016841F00101C2
:101D100001602564202084F83D00256384F83E504E
:101D2000002070BD01EB4106431EB3FBF6F35B1CC4
:101D3000B3E70120C2E701EB4101401EB0FBF1F027
:101D4000401CC0F30B00B7E7A086010080841E0092
:101D500000093D0040420F002DE9F84F0025DDF855
:101D60002890984617468A4604460095FFF72AFFB2
:101D7000064694F83D0020287AD11923012286498D
:101D80002046009601F0BEF90028F5D194F83C00F9
:101D900001286DD0012084F83C0020680168C90743
:101DA00003D1016841F0010101602068016821F45C
:101DB00000610160222084F83D00102084F83E007C
:101DC00025646762A4F82A80608D20857348E062EC
:101DD00033464A465146204601F026F800287CD179
:101DE000208DDFF8BC81202768B1012814D002289B
:101DF000206801681ED041F480610160206841695B
:101E000080690090BBE020684169816900910168A8
:101E100041F400710160B2E02068016821F4806142
:101E2000016072B62068416981690091016841F4DE
:101E300000710AE041F40061016072B620684169F6
:101E400081690091016821F48061016062B696E0C9
:101E5000032865D801280CD002284B464FF0000219
:101E60004146204600960BD001F04CF9A8BB0CE08F
:101E700090E032464946204601F0EAF968BB71E03D
:101E800001F040F948BB72B633E02068016821F4E4
:101E90008061016072B620680069616A0870606ADA
:101EA000401C6062208D401E2085608D401E608534
:101EB0003C4846F2A8110068B0FBF1F0C0EBC0004E
:101EC00000EB80000090401E009007D02068406921
:101ED000C04340070DD50098F5E727E044F8305F90
:101EE0006773A573206940F02000206162B62573F6
:101EF0001CE02068016841F40071016020680069FD
:101F0000616A0870606A401C6062218D491E2185EB
:101F1000618D491E618562B621680969017025E0FD
:101F200032464946204601F093F910B10120BDE840
:101F3000F88F20680069616A0870606A401C6062FE
:101F4000208D401E81B22185608D401E60852068F5
:101F50004269D243520712D4032903D1016821F404
:101F60008061016020680069616A0870606A401CD5
:101F70006062208D401E2085608D401E6085208D12
:101F800000287FF465AF84F83D7084F83E5084F8F3
:101F90003C50CCE70220CAE7020010000000FFFF1F
:101FA00004000100480000202DE9F84F1F4690462C
:101FB0008A460446DDF82890FFF704FE054694F8AB
:101FC0003D0020287FD11923012240492046009559
:101FD00001F098F8002876D194F83C00012872D0DE
:101FE000012084F83C0020680168C90703D101681A
:101FF00041F0010101602068016821F40061016085
:10200000212084F83D00102084F83E00002626643C
:10201000C4F824806785608D20852D48E0622B46BA
:102020004A465146204600F075FF90B92068416944
:102030008069009036E02A464946204601F040F982
:1020400050B1206C042804D12068016841F400716B
:1020500001600120BDE8F88F606A2168007808619E
:10206000606A401C6062618D491E6185218D491E38
:1020700089B2218522685369DB435B070BD451B1D8
:1020800000781061606A401C6062608D401E60854F
:10209000208D401E20852A464946204601F006F83C
:1020A0000028CED1208D0028C5D154F83D0B016801
:1020B00041F400710160202004F81E09E67766777C
:1020C0000020C7E7FFE70220C4E70000020010007D
:1020D0000000FFFF2DE9FF4F83B00025DDE91079F7
:1020E0009A4693460446DDF848800095FFF76AFD5E
:1020F000064694F83D0020287CD119230122884906
:102100002046009600F0FEFF0028F5D194F83C0030
:1021100001286FD0012084F83C0020680168C907BD
:1021200003D1016841F0010101602068016821F4D8
:1021300000610160222084F83D00402084F83E00C8
:1021400025646762A4F82A90608D20857548E06256
:10215000CDE9008653465A462046049900F028FFF0
:1021600000287CD1208DDFF8C091202768B101289C
:1021700014D00228206801681ED041F480610160FB
:102180002068416980690090BCE0206841698169EC
:102190000091016841F400710160B3E020680168BA
:1021A00021F48061016072B6206841698169009103
:1021B000016841F400710AE041F40061016072B607
:1021C0002068416981690091016821F480610160A2
:1021D00062B697E0032865D801280CD00228434650
:1021E0004FF000024946204600960BD000F08AFFCF
:1021F000A8BB0CE091E032464146204601F028F8A9
:1022000068BB72E000F07EFF48BB72B633E0206826
:10221000016821F48061016072B620680069616A1A
:102220000870606A401C6062208D401E2085608DB1
:10223000401E60853D4846F2A8110068B0FBF1F0F1
:10224000C0EBC00000EB80000090401E009007D063
:1022500020684069C04340070DD50098F5E727E0A6
:1022600044F8305F6773A573206940F02000206157
:1022700062B625731CE02068016841F400710160BA
:1022800020680069616A0870606A401C6062218D84
:10229000491E2185618D491E618562B621680969E3
:1022A000017026E032464146204600F0D1FF18B1C9
:1022B000012007B0BDE8F08F20680069616A0870EE
:1022C000606A401C6062208D401E81B22185608D55
:1022D000401E608520684269D243520712D4032908
:1022E00003D1016821F48061016020680069616A9E
:1022F0000870606A401C6062208D401E2085608DE1
:10230000401E6085208D00287FF464AF84F83D7006
:1023100084F83E5084F83C50CBE70220C9E7000027
:10232000020010000000FFFF040001004800002030
:1023300010B586B0002100910191029103910068CF
:102340000F4988421AD10F4CA06940F00800A061E3
:10235000A069694600F008000490C0200090122097
:102360000190032003900848FFF73CFBE06940F42C
:102370000010E061E06900F40010049006B010BDA8
:102380000054004000100240000C014002488168E7
:1023900002781144816070473C000020074810B566
:1023A000016841F010010160032000F0A7F80F2040
:1023B00000F006F800F050F8002010BD00200240A8
:1023C00030B505461F4887B0C16941F00401C161BD
:1023D000C06906A900F00400009001A800F058F9B7
:1023E0000498B0B100F074F940001749174AB0FBE7
:1023F000F1F11748491E0260416040F2E7320021C6
:10240000C0E903218160816100F03AFB040003D040
:1024100015E000F05DF9E8E70D4800F05FFB04000F
:102420000DD11E2000F03CF8102D07D200222946C5
:102430001E2000F043F80748056000E0012407B0C3
:10244000204630BD0010024040420F00000800400E
:10245000BC020020400000200F4808B5816941F00F
:1024600001018161816901F001010091C16941F0BF
:102470008051C161C069002200F0805000900F219E
:10248000901E00F01BF80548416821F0E06141F022
:102490008061416008BD0000001002400000014062
:1024A000002809DB00F01F02012191404009800053
:1024B00000F1E020C0F8001170470000F0B40E4BAE
:1024C0001B680C46C3F30223C3F10705042D00D992
:1024D0000425191D072901D2002300E0DB1E012677
:1024E00006FA05F1491E214099409E40761E16408D
:1024F0003143F0BC01F0AEBB0CED00E0064900F04A
:10250000070208684FF6FF03184040EA0220034A1A
:1025100010430860704700000CED00E00000FA0571
:102520000E4A10B5136823F002031360136823F0FA
:102530000103034313600A4C206840F0040020604C
:10254000012909D040BF01F07BF901F079F9206839
:1025500020F00400206010BD30BFF8E7007000409C
:1025600010ED00E02DE9F0470F46050061D0434E25
:10257000306800F00700B84209D2306820F0070048
:1025800038433060306800F00700B84251D1286805
:102590003B4C810712D5400703D5606840F4E060EA
:1025A00060602878000703D5606840F46050606080
:1025B0006068A96820F0F000084360602878C007D0
:1025C00028D06868012810D02168022810D0890717
:1025D00000292EDA616821F0030101436160FFF7F1
:1025E000F1FA804641F288390DE021688903EFE76E
:1025F0008901EDE7FFF7E6FAA0EB0801494502D9AA
:102600000320BDE8F0876068696800F00C00B0EB5B
:10261000810FEFD1306800F00700B8420BD9306865
:1026200020F0070038433060306800F00700B842FF
:1026300001D00120E5E72878400705D56068E96802
:1026400020F4E060084360602878000706D56068E1
:10265000296920F4605040EAC100606000F058F839
:102660006168084AC1F30311515CC840064908601B
:1026700006480068FFF7A4FE0020C2E700200240E1
:1026800000100240AA62000848000020400000201C
:102690000F2202600C4A536803F00303436053683F
:1026A00003F0F0038360536803F4E063C36052688F
:1026B0004FF4E06303EAD20202610448006800F0CC
:1026C0000700086070470000001002400020024030
:1026D0000448054900684968044AC1F30221515C75
:1026E000C84070474800002000100240BA6200084D
:1026F0000448054900684968044AC1F3C221515C95
:10270000C84070474800002000100240BA6200082C
:102710000E4A51680E4801F00C03042B11D0082B0F
:102720000FD10C48C1F38343C903C05C0AD551687B
:10273000084AC1F34041921E515C054A5043B0FB28
:10274000F1F0704704494843704700000010024010
:1027500000127A009A62000800093D002DE9F84F46
:10276000040070D02078C04DC00749D06868C0F31D
:102770008100012807D06868C0F38100022809D1D0
:102780006868C00306D52868800339D560680028CA
:10279000E7D035E06068B0F5803F0BD010B1B0F500
:1027A000A02F11D0286820F480302860286820F4F9
:1027B000802002E0286840F480302860606890B192
:1027C000FFF700FA06460AE0286840F480202860F7
:1027D000F0E700BFFFF7F6F9801B642873D828687C
:1027E0008003F7D50CE0FFF7EDF9064605E000BFE2
:1027F000FFF7E8F9801B6428F0D828688003F7D435
:1028000020789A4E80074FF001094FF0000839D523
:10281000686810F00C0F07D06868C0F381000228C8
:1028200009D16868C00306D42868800714D52069D8
:10283000012808D110E02069B0B1C6F80090FFF778
:10284000C1F9074605E00AE1FFF7BCF9C01B022801
:10285000C4D828688007F7D52868616920F0F80097
:1028600040EAC10028600DE0C6F80080FFF7AAF931
:10287000074604E0FFF7A6F9C01B022823D8286802
:102880008007F7D4207800072CD57948A169D9B101
:10289000C0F80090FFF796F9074604E0FFF792F9B9
:1028A000C01B02280FD8686A8007F7D571484FF41B
:1028B000FA510068B0FBF1F0009000BF0098411E93
:1028C0000091FAD20EE080E0C0F80080FFF77AF9BC
:1028D000074604E0FFF776F9C01B022875D8686A3E
:1028E0008007F7D42078400760D5E8690027C0004A
:1028F00008D4E86940F08050E861E869012700F0F9
:10290000805000905C480168C90513D40168834673
:1029100041F480710160FFF755F9824606E000BF7F
:10292000FFF750F9A0EB0A0064284ED8DBF800004E
:10293000C005F5D5E06801280AD008B1052813D0F4
:10294000286A20F001002862286A20F0040002E0D2
:10295000286A40F001002862E06841F2883B98B1A3
:10296000FFF730F982460BE0286A40F00400286245
:10297000EEE700BFFFF726F9A0EB0A0159455AD848
:10298000286A8007F6D50CE0FFF71CF9824605E0BF
:10299000FFF718F9A0EB0A0159454CD8286A8007BF
:1029A000F6D41FB1E86920F08050E861E06988B38F
:1029B0006968C1F38101022944D00228C6F8608009
:1029C00004D0FFF7FFF8044638E034E0FFF7FAF8E8
:1029D000074604E0FFF7F6F8C01B02282BD828684A
:1029E0008001F7D4206AB0F5803F05D16868A168FE
:1029F00020F4003008436860D4E90801084369689E
:102A000021F4741108436860C6F86090FFF7DAF8A3
:102A1000044606E025E000BFFFF7D4F8001B0228BB
:102A200009D828688001F7D51BE000BFFFF7CAF876
:102A3000001B022802D90320BDE8F88F2868800116
:102A4000F4D40EE00128F7D06868226A00F48031DF
:102A5000914204D1616A00F47010884201D00120D3
:102A6000EAE70020E8E700000010024000004242D0
:102A700080044242480000200070004070477047C8
:102A800010B5040003D094F83D0010B107E0012018
:102A900010BD002084F83C00204600F01EF8022003
:102AA00084F83D00211D206800F0C6FF012084F855
:102AB000460084F83E0084F83F0084F8400084F823
:102AC000410084F8420084F8430084F8440084F80C
:102AD000450084F83D00002010BD704790F83D107F
:102AE000012901D001207047022180F83D100168C2
:102AF000CA6842F00102CA6000680B49884208D0E7
:102B0000B0F1804F05D00949884202D00849884277
:102B100004D1816801F00701062903D0016841F062
:102B20000101016000207047002C014000040040BA
:102B30000008004070472DE9F04104460068C6686F
:102B400005694FF00007A90713D5B10711D5F91E84
:102B5000016101202077206880698007204602D02B
:102B6000FFF7E8FF04E000F07EF8204600F07CF874
:102B70002777680716D5700714D521686FF0040011
:102B80000861022020772068806910F4407F204689
:102B900002D0FFF7CFFF04E000F065F8204600F018
:102BA00063F82777280715D5300713D521686FF00C
:102BB00008000861042020772068C069800720464B
:102BC00002D0FFF7B7FF04E000F04DF8204600F018
:102BD0004BF82777E80616D5F00614D521686FF074
:102BE00010000861082020772068C06910F4407F39
:102BF000204602D0FFF79EFF04E000F034F82046A4
:102C000000F032F82777E80708D0F00706D02168EF
:102C10006FF001000861204600F028F8280608D56A
:102C2000300606D521686FF0800008612046FFF766
:102C300025FF680608D5700606D521686FF04000AC
:102C40000861204600F01CF8A8060AD5B00608D591
:102C500021686FF0200008612046BDE8F041FFF7D1
:102C60000EBFBDE8F081704770470000006803495F
:102C7000884201D1FFF78ABB70470000000800407E
:102C8000704770B5040004D094F84100002510B1DD
:102C900006E0012070BD84F84050204600F024F882
:102CA000242084F841002068C16821F40051C160EB
:102CB000204600F025FF2068016921F49041016160
:102CC0002068416921F02A0141612068C16841F40E
:102CD0000051C1606564202084F8410084F84200FE
:102CE0006563002070BD000030B585B000240094FD
:102CF00001940294039400681449884223D1144833
:102D0000C16941F40031C161C16901F4003104912C
:102D1000816941F00401816180690E4D00F0040079
:102D20000490042000900220019003200390694643
:102D30002846FEF757FE0820CDE9000469462846DC
:102D40000294FEF74FFE05B030BD00000044004085
:102D500000100240000801402DE9F843044690F8B5
:102D60004100984616460D46202802D00220BDE8B4
:102D7000F88385B17EB100206064212084F8410091
:102D8000FEF720FFA6848146E684A0682027B0F5E0
:102D9000805F02D003E00120E9E7206910B12E46F0
:102DA00000250EE000260CE08021204600F004FF04
:102DB000A8B9C6B116F8010B21684860E08C401E26
:102DC000E084E08C4B464FF00002CDF800800028F4
:102DD000EAD14FF04001204600F0EEFE40B184F809
:102DE00041700320C3E735F8020BC0F30800E3E7A6
:102DF00084F841700020BAE7FEE701684A69D243CF
:102E000052050FD46FF480624A61002140F8301FF0
:102E1000202242738173026942F00402026101734D
:102E200001207047002070472DE9F84F0446C06A22
:102E30001E4693460D4621680A6842F480620A6085
:102E4000082807D0012805D010F5803F02D0206B5C
:102E5000112804D12068016841F4807101604FF0AD
:102E600001195B46002249462046009600F04AF9C7
:102E70004FF4007840B120680068C00501D5C4F85F
:102E800040800320BDE8F88F2069DFF884A0B0F50A
:102E9000804F0FD00620216800EAD51747F0F000D8
:102EA000086133465A460AF10601204600F072F9DD
:102EB00058BB03E0E8B240F001001CE02168E8B232
:102EC000086133465A465146204600F063F9E0B99E
:102ED0002068416981690091016841F48071016055
:102EE0005B46002249462046009600F00BF9002878
:102EF000C1D147F0F1002168086133465A46514676
:102F0000204600F047F90028BCD00120BAE70000B5
:102F100002000100F8B50446C06A1E460D46174679
:102F2000082807D0012805D010F5803F02D0206B7B
:102F3000122804D12068016841F4807101601346B1
:102F400000224FF001112046009600F0DBF840B15E
:102F500020680068C00502D54FF40070206403208B
:102F6000F8BD2069B0F5804F0ED00620216800EA38
:102F7000D51040F0F000086133463A460B49204630
:102F800000F008F978B902E005F0FE0000E0E8B2D0
:102F900021680861054933463A46891F204600F0FA
:102FA000F9F80028DCD00120F8BD0000080001007D
:102FB0002DE9F84F0446006889460B9D0168984644
:102FC000174641F4806101602068016841F4807116
:102FD000016000954FF0011B0022594620460A9BD4
:102FE00000F090F84FF4007A40B120680068C00506
:102FF00001D5C4F840A00320BDE8F88F216809F08E
:10300000FE0008612B46284920460A9A00F0C2F8C3
:10301000F0BB20684169806900902A4620460A99E1
:1030200000F04EF940B1206C04283AD120680168C4
:1030300041F40071016034E0FEB2B8F1010F09D033
:103040002168380A08612A4620460A9900F038F9B2
:103050000028E8D1206806612A4620460A9900F037
:103060002FF90028DFD12068016841F480710160E8
:1030700000950022594620460A9B00F043F800289C
:10308000B3D1216809F0FF0040F00100086100E0C1
:1030900007E02B46044920460A9A00F07BF80028F6
:1030A000AAD00120A8E700000200010070B5164672
:1030B0000D4604461EE02046FFF79FFE08B10120A2
:1030C00070BD681C16D0FEF77DFD801BA84200D89D
:1030D00085B920684069C04340070BD5002044F8FB
:1030E000300F20216173A073216941F0200121611B
:1030F0002073E4E720684069C0434007DBD4002028
:1031000070BD00002DE9F047984617460D4604466D
:10311000C1F30746DDF820902AE000BFB8F1FF3F79
:1031200026D0FEF74FFDA0EB0901414502D8B8F1CA
:10313000000F1DD12068012E16D0806925EA0000FD
:103140000004000C12D00020B84211D1002044F835
:10315000300F20216173A073216941F020012161AA
:1031600020730120BDE8F0874069E7E70120EBE725
:103170002068012E0AD0806925EA00000004000CB6
:1031800006D00020B842C9D00020EBE74069F3E741
:103190000120F7E72DE9F047984616460D4604460C
:1031A0004FF000094FF0200AC1F3074723E02068E1
:1031B0004069C043400515D42068016841F400719E
:1031C000016021686FF480604861C4F8309084F831
:1031D0003DA084F83E90216C41F00401216484F804
:1031E0003C9021E0701C06D0FEF7ECFCA0EB080040
:1031F000B04203D816B1012F1FD021E02068012F63
:1032000015D0806925EA00000004000C18D000BF2A
:1032100044F8309F84F80DA084F80E90216941F0A5
:103220002001216184F80C900120BDE8F0874069FD
:1032300025EA00000004000CEAD12068406901E0A2
:103240002068806925EA00000004000CAFD1ECE79B
:103250002DE9F041002590460E460446202728E03F
:103260004069C043C0060CD454F8301B6FF0100006
:10327000486144F810596777A577206A206225775E
:1032800014E0FEF79FFCA0EB0800B04200D886B91E
:1032900020684069C04340060BD544F8305F67732F
:1032A000A573206940F02000206125730120BDE84E
:1032B000F08120684169C9434906D1D40020F6E76E
:1032C00070B516460D4604461EE02046FFF795FDF4
:1032D00008B1012070BD681C16D0FEF773FC801B7E
:1032E000A84200D885B920684069C04300060BD5C4
:1032F000002044F8300F20216173A073216941F050
:10330000200121612073E4E720684069C043000682
:10331000DBD4002070BD000070B50C4605460822C5
:103320006B2100F0F4F9A8BB07226C21284600F0BD
:10333000EEF978BB09221D21284600F0E8F948BBC8
:10334000E0223821284600F0E2F918BB224620216D
:10335000284600F0DCF9E8B922462121284600F091
:10336000D6F9B8B922462221284600F0D0F988B90A
:10337000C0226921284600F0CAF958B91322192140
:10338000284600F0C4F928B928226B21284600F00D
:10339000BEF908B1012070BD08A10E48FCF772FF0C
:1033A0000C48FDF783F882B264230A490A48FFF704
:1033B000D3FC0A490020087070BD0000456E74659A
:1033C00072204C6F7720506F776572204D6F646567
:1033D000210D0A00D8000020740200200000002007
:1033E00010B5044600226B2100F091F978BB002251
:1033F0003821204600F08BF948BB00226921204685
:1034000000F085F918BB07221D21204600F07FF946
:10341000E8B900222021204600F079F9B8B900224D
:103420002121204600F073F988B90022222120468C
:1034300000F06DF958B907221921204600F067F90C
:1034400028B900226C21204600F061F908B1012062
:1034500010BD09A10E48FCF715FF0D48FDF726F831
:1034600082B264230A490B48FFF776FC0A4901201F
:103470000870002010BD000045786974204C6F77FB
:1034800020506F776572204D6F6465210D0A000032
:10349000D8000020740200200000002070B504460F
:1034A0008068014602F066FC06466068014602F04C
:1034B00061FC05462068014602F05CFC294602F0EA
:1034C000C3FA314602F0C0FA01F060F90549064A34
:1034D00001440648914201D3002100E001214170DE
:1034E000C8B270BD9A9999C0686626000000002095
:1034F000F8B50C461849154606468C70CA7000226D
:103500006B2100F004F928BB6420FEF741FA6A46FB
:103510007521304600F0E4F8E0B99DF8000012286B
:1035200018D107221921304600F0F1F890B922464F
:103530001C21304600F0EBF860B92A461B213046CA
:1035400000F0E5F830B900223721304600F0DFF80E
:10355000002800D00120F8BD000000202DE9F04334
:1035600087B00C4664230E2203A98DE80E000123C8
:103570003B22D221FEF7AEFD002863D1BDF80E102C
:10358000DFF83C9149BA0FB2BDF81010BDF80C003D
:1035900049BA0EB240BA99F8021000B231B1082906
:1035A00007D0102908D018294CD108E04FF08045E9
:1035B00007E04FF0814504E04FF0824501E04FF015
:1035C000834502F077FB6FF00E08414602F001FEE2
:1035D000294602F0CFFB2060384602F06BFB4146E3
:1035E00002F0F7FD294602F0C5FB6060304602F0AC
:1035F00061FB414602F0EDFD294602F0BBFBA060F5
:10360000BDF8120040BA00B202F054FB2D4902F09E
:103610008FFA2D4902F018FAA061BDF81610BDF816
:10362000140049BA0FB2BDF8181040BA49BA0EB228
:1036300099F8031000B249B1082909D0102909D01E
:10364000182909D0012007B0BDE8F0831F4D04E020
:103650001F4D02E01F4D00E01F4D02F02BFB4146C5
:1036600002F0B7FD012102F0B4FD294602F082FB11
:10367000DFF86890494602F07DFBE060384602F0D2
:1036800019FB414602F0A5FD012102F0A2FD2946E9
:1036900002F070FB494602F06DFB2061304602F0FB
:1036A00009FB414602F095FD012102F092FD2946F9
:1036B00002F060FB494602F05DFB60610020C2E75A
:1036C000000000200000AA43B81E124200007A4306
:1036D0000000FA4300007A440000FA4435FA8E3CB8
:1036E00077B581B0154664240646012302AAD2218B
:1036F0000094FEF759FC10B1012004B070BD012305
:103700002A46D22130460094FEF726FBF5E71CB589
:1037100002238DF8041064218DF80520009101AA80
:10372000D221FEF741FC1CBD10B5074A0021074815
:1037300000F044FB064C044A0021E06024320548B6
:1037400000F03CFB206110BD50620008B938000851
:1037500028000020C138000800B585B00020029084
:1037600003901548816941F020018161816901F070
:1037700020010491816941F004018161816901F0B6
:1037800004010491816941F0080181618069694601
:1037900000F00800049002200090084801900848BA
:1037A000FEF720F9002205210720FEF787FE0720FB
:1037B000FEF776FE05B000BD0010024000001110BB
:1037C000000801400D4810B50B4901600C494160EB
:1037D00000214FF480428160C0E9031241618161A0
:1037E000C1610162FEF7F4F9002803D0BDE8104082
:1037F000FEF76DB810BD000000540040200200200C
:10380000A08601000C4810B50A4901604FF4E1316F
:103810004160002181600C22C160C0E90412816115
:10382000C161FFF72EFA002803D0BDE81040FEF773
:103830004EB810BD0044004074020020FEE7FEE7D1
:1038400020BF00BF7047000008B500F0BEF80B486D
:10385000C16941F40031C161C16901F400310091D5
:10386000C16941F00401C161C06900F00400009029
:10387000BDE808400248FFF7B3BD00000010024059
:103880002002002010B572B620210948FFF744FD40
:103890000848C16921F40031C161C16921F0040106
:1038A000C16101210846FEF73BFE62B610BD000073
:1038B0002002002000100240012000F043FAFBE744
:1038C00086B0304C4EF66027FEF77CF9054601F0D5
:1038D00059FD06462C492D48FFF740FE18B16423D8
:1038E00012222BA13DE02068281A05280DD3264876
:1038F0002560FDF7C5FE80462348FFF7CFFD00B9E0
:10390000A660B8F1000F00D0A6606068281AB0F574
:10391000FA7F29D365601C4D686902F069F8824618
:103920008B46286902F064F880468946E86802F010
:103930005FF8CDE9000195E80700FDF781FE02F090
:1039400057F80DF1080C02468CE8000F0B4615499C
:103950001548FCF797FC1448FCF7A8FD124982B201
:1039600064231248FFF7F8F9052000F0EBF9A0688E
:10397000301AB84202D342F2107000E0052000F085
:10398000E1F9A1E728000020040200202002002025
:1039900049434D32303630322052656164204572E1
:1039A000720D0A0068630008D8000020740200202D
:1039B00010B54FF0E020006901F0D6FC012803D0DB
:1039C000BDE8104001F004BA10BD30B58FB0282119
:1039D0006846FCF709FE14210AA8FCF705FE012140
:1039E0000804CDE900100024029402250491CDE9D9
:1039F00007504FF4E01009906846FEF7AFFE08B19B
:103A000072B6FEE70F20CDE90A054FF48060CDE9DC
:103A10000C4002210AA80E94FEF7A4FD002801D054
:103A200072B6FEE70FB030BD704700000148FFF7E7
:103A300082B80000BC020020F0B50268194B1A4C95
:103A40001A4D4FF08047984205D0B84203D0A042AB
:103A500001D0A84203D122F070064A68324398424E
:103A600005D0B84203D0A04201D0A84203D122F42D
:103A70004074CA6822434C6922F0800222430260EB
:103A80008A68C2620A688262984201D10969016348
:103A9000012141610169C90703D0016921F00101D8
:103AA0000161F0BD002C014000040040000800400E
:103AB00001680C3151E8002F22F4907241E8002394
:103AC000002BF5D10168143151E8002F22F00102DA
:103AD00041E80023002BF5D1016B012909D10168D0
:103AE0000C3151E8002F22F0100241E80023002B96
:103AF000F5D1202180F842100021016370470000B9
:103B000070B5044600680169E26821F44051114330
:103B100001612169A0680843616908432168CA6896
:103B200041F20C639A430243CA6020684169A2696A
:103B300021F44071114341611E492068884202D13D
:103B4000FEF7D6FD01E0FEF7C3FD00EBC00101EB7F
:103B50000012606864218000B2FBF0F3B3FBF1F364
:103B60006FF018067343B2FBF0F5B2FBF0F605EB0D
:103B70008305322303EB0515B5FBF1F5B6FBF1F632
:103B800005F0F00505EB0615B2FBF0F6B2FBF0F020
:103B9000B0FBF1F06FF01802504306EB800003EB2E
:103BA0000010B0FBF1F0216800F00F00284488609D
:103BB00070BD0000003801402DE9F84398461746D3
:103BC0000D460446089E24E0701C22D0FDF7FAFF43
:103BD000A0EB0800B0421AD8CEB12068C1684907EE
:103BE00017D5802D15D0402D13D00168C943090782
:103BF0000FD401680025406800902046FFF758FF69
:103C00000820606484F840500120BDE8F883032058
:103C1000FBE72068006835EA000004D00020B842C5
:103C2000D2D00020F1E70120F9E7FEE7490050EA91
:103C3000C12018BF04204A0D18BF40F0010040F217
:103C4000FF72B2EB515F08BF40F00200012808BFCD
:103C5000052070470907090E002804DB00F1E02069
:103C600080F80014704700F00F0000F1E02080F8A9
:103C7000141D704730380A2801D2012070470020F7
:103C80007047000009490120096809B10020704708
:103C90000749CA69002AF9D1044A2832126889689A
:103CA000491E8A42F3D1022070470000CC07002051
:103CB0004C000020FEF772FBFFF787FEFFF74CFD7C
:103CC000FFF780FDFFF79EFD002211460D48FFF72C
:103CD0000FFC4FF0FF3408B10BA100E010A1174812
:103CE000FCF7D0FA1548FCF7E1FB82B223461349F2
:103CF0001348FFF731F800F033F8FFF715FD00F037
:103D000041F8FEE72002002049434D323036303280
:103D100020696E6974206661696C6564210D0A0012
:103D200049434D323036303220696E6974207375E4
:103D30006363657373210D0A00000000D800002042
:103D40007402002010B5EFF3058111B16FF0050486
:103D500003E0002408B100F0EDFE204610BD000095
:103D6000EFF3058010B16FF005007047044801685B
:103D700011B14FF0FF307047012101600020704702
:103D80009C00002010B5EFF3058010B16FF0050026
:103D900010BD08480168012902D04FF0FF3010BD66
:103DA000054A002182F8141D0221016000F02AFF5B
:103DB000002010BD9C0000200BE000E02DE9FF4139
:103DC0004FEA01034FF00005EFF30581039549BB6E
:103DD00040B38027182100244AB3166806B1344640
:103DE00096691EB13146761E382E02D21679F60734
:103DF00003D0002004B0BDE8F081566906B1B708D1
:103E0000D2F808C0BCF1000F0DD0D5685C2D18D3D6
:103E100012693AB136B18DE806103A46214601F0F2
:103E200078FA03900DE0D6685EB912694AB903AA20
:103E3000CDE90012BAB2214601F03EFA012800D0C5
:103E400003950398D6E700002DE9F041134C0F4687
:103E50000546E6682068001D00F0AEFC681C07D12E
:103E600037B12168BDE8F0410D48091D00F0F6BCEE
:103E700020683544B5424560216805D2A06BBDE895
:103E8000F041091D00F0D2BC606B091D00F0CEFCB2
:103E9000A06A854200D2A562BDE8F0814C000020F6
:103EA000F40700202DE9F041054600F0E3FC2D4C1D
:103EB000A068401CA06020682B4F10B1606930B32F
:103EC0002BE02560A068012827D1002606EB86009C
:103ED00007EB800000F09CFC761C382EF6D32348BC
:103EE00000F096FC2148143000F092FC1F48283066
:103EF00000F08EFC1D483C3000F08AFC1B4850301E
:103F000000F086FC194860631430A06305E0206867
:103F1000E96AC06A884200D82560606A401C606215
:103F20006864E86A2169884200D9206100EB80005A
:103F300007EB8000291D00F091FC00F0BBFC6069DC
:103F400000280CD02068E96AC06A884207D2084974
:103F50004FF080500860BFF34F8FBFF36F8FBDE805
:103F6000F08100004C00002044030020A407002042
:103F700004ED00E038B500F07DFC104C2068C8B9B5
:103F80000F4800F045FC0E48143000F041FC0C488E
:103F9000E060143020610A4B0020F03B009003F1F8
:103FA000500210210A2000F029FF206010B105A165
:103FB00000F08AFDBDE8384000F07CBC880000209D
:103FC000F8080020546D72510000000030B4026CFB
:103FD0000B46002A0BD0C1681144C1608468A1421D
:103FE00001D30168C16030BC1846FCF77EBA30BC12
:103FF00070472DE9F041856B174604460026026C98
:1040000082B1C7B1E068FCF770FAE168206C091A68
:10401000E1602268914202D2A168081AE060022F92
:1040200016D017E02068A8B9A06801F01DFA06466E
:104030000020A0600EE06068FCF757FA216C606811
:1040400008446060A168884204D32068606001E091
:1040500005B16D1E6D1CA5633046BDE8F08110B53D
:10406000044690F8590058B101280CD002280FD00E
:10407000502080F31188BFF34F8FBFF36F8FFEE79F
:10408000206B00F02BFC2046BDE8104000F026BC61
:1040900010BD000009480021026902B10121026837
:1040A000D26A0AB100207047054A1268012AF9D87D
:1040B0000029F7D1816AC068081A70474C000020B7
:1040C0004403002010484FF44061420706D0C01D51
:1040D0000D4920F00700411AC1F540610B4A002349
:1040E0000144C2E900030839183A21F007011160C0
:1040F0004B600B600B1AC0E9001393604FF0004057
:104100005360506170470000D80F0020B8000020B5
:10411000204C214E12E000BF00F0ACFBF068C568F7
:10412000281D00F049FBA068401EA0606068401E8A
:10413000606000F0BFFB2846FFF791FF6068002831
:10414000EAD116480068012807D915494FF0805078
:104150000860BFF34F8FBFF36F8F00F057FBFFF77F
:1041600099FF0228D5D300F0A5FDA06AE168884236
:1041700007D2502080F31188BFF34F8FBFF36F8FAA
:10418000FEE7FFF787FF022801D300F0FDFB01F0F7
:10419000E7F9BEE74C000020E007002044030020C0
:1041A00004ED00E070B51D46049C51B1C4F8002038
:1041B000C4E90F010121204600F054FE84F84C5060
:1041C00070BD2460F4E700002DE9F05F8846DDE96A
:1041D0000B941546834691009A460A9EA522206BB1
:1041E000FCF7FAF96FF00301206B01EB850108443D
:1041F00020F00707780707D0502080F31188BFF31D
:104200004F8FBFF36F8FFEE70025B8F1000F0FD07F
:104210005FF00000221818F8001082F8341018F827
:10422000001011B1401C1028F4D384F8435001E071
:1042300084F83450382E00D33726E662C4E913657B
:10424000201D00F0F0FA04F1180000F0ECFA2461EF
:10425000C6F138006462A061656584F85850524622
:104260005946384600F05AFA2060B9F1000F01D0E3
:10427000C9F80040BDE8F09F30B5114900E0114693
:104280000A688242FBD34B685C18844203D14068C1
:1042900018444860084643681C18944209D1084CE9
:1042A000183C2468A24209D052681A4442600A6845
:1042B00012680260814200D0086030BD0460F9E7F6
:1042C000B800002070B5002441600B4D00619142A0
:1042D00006D8D11A8269914206D2011D286907E0E9
:1042E0009A4203D2994201D3012403E0011DE868F8
:1042F00000F09CFA204670BD8800002010B50446EE
:1043000000F0B8FAA06B28B15FF0000400F0D2FA18
:10431000204610BD0124F9E730B589B03C4D6EE070
:104320000498002806DADDE90601059A904704980A
:10433000002864DB069C606910B1201D00F03CFA87
:1043400003A800F0D7F8024604980A2857D2DFE8FD
:1043500000F00505052D334A05052D3394F8280096
:1043600040F0010084F828000599A069059B0144EC
:104370002046FFF7A7FF68B3216A2046884794F8D4
:10438000280040073BD5002000900598A169002334
:1043900042181946204601F075F9D8B9502080F32B
:1043A0001188BFF34F8FBFF36F8FFEE714F8280F0C
:1043B00020F00100207022E094F8280040F0010075
:1043C00084F828000598A06128B18118134620467A
:1043D000FFF778FF13E0502080F31188BFF34F8F71
:1043E000BFF36F8FFEE794F82800810703D42046BF
:1043F00000F074FA03E020F0010084F828000022A5
:1044000004A9286800F082FE002889D109B030BDD7
:10441000880000202DE9FC410F46054600F04AFCCB
:1044200001A800F067F80446019818B101F098F867
:10443000BDE8FC81254EAFB130690068D0B30027DC
:10444000291B3A46306800F053FB01F089F8002838
:10445000EED11F494FF080500860BFF34F8FBFF37C
:104460006F8FE5E7A542EBD801F07AF8F0682746B0
:10447000C068C468201D00F09FF994F82800410727
:1044800019D5A0692B4641193A462046FFF71AFF75
:10449000A8B100200346014600902A46204601F0BC
:1044A000F1F860B9502080F31188BFF34F8FBFF34C
:1044B0006F8FFEE707E020F0010084F82800216AF2
:1044C00020468847B4E70127BAE7000088000020AB
:1044D00004ED00E00648416B096829B1416BC968E9
:1044E000C9684968816270474FF0FF31FAE7000000
:1044F0004C00002070B5054600F044FF064E04460F
:10450000B068844203D200F009F8012000E00020E6
:1045100028602046B46070BD88000020F8B5194DB1
:1045200020E0C068C4680668201D00F045F9216AD3
:104530002046884794F82800400713D5A0693044E6
:10454000B04206D924616060211DE86800F06EF970
:1045500008E000200346014600903246204601F064
:1045600091F838B1E86801680029DAD12969C5E90C
:104570000310F8BD502080F31188BFF34F8FBFF3B5
:104580006F8FFEE78800002008484068401C4FF00D
:10459000500080F3118804D0BFF34F8FBFF36F8FAB
:1045A000FEE7BFF34F8FBFF36F8FFEE7C000002021
:1045B000074CE068016841B1C0680021D0F80000F4
:1045C000FFF728FFFFF7A8FEF3E701210020F7E738
:1045D000880000202DE9F041044600F04BF994F9E1
:1045E000455004F1240609E0606A48B1304600F005
:1045F0007BFF08B100F0CCFA6D1E6DB2002DF3DC2C
:104600004FF0FF3684F8456000F054F900F032F9BD
:1046100094F9445004F1100709E0206948B1384684
:1046200000F062FF08B100F0B3FA6D1E6DB2002D0C
:10463000F3DC84F84460BDE8F04100F03BB90000D1
:104640002DE9F0410546002700F034FB324E30687A
:1046500008B9FFF737FD706905424ED1C5B308357B
:1046600068070ED005F00700C0F108000544680790
:1046700007D0502080F31188BFF34F8FBFF36F8FA7
:10468000FEE72DB37068854237D8234818300146BD
:104690000C6801E020460C466168A94202D22168FC
:1046A0000029F7D131688C4227D007682168016062
:1046B00060680837411B10290FD96019420708D0DC
:1046C000502080F31188BFF34F8FBFF36F8FFEE749
:1046D00013E041606560FFF7CFFD61687068401AC4
:1046E0007060B268904200D2B060706901430020EF
:1046F000C4E90001F068401CF06000F031FF780769
:1047000007D0502080F31188BFF34F8FBFF36F8F16
:10471000FEE73846BDE8F081A000002010B5031F79
:104720004FF080741C601B1F21F001011960191FDC
:10473000024B0B60143940380A6010BD89450008EF
:104740002DE9F04106460F4601F06CF8041E0D46B7
:1047500018BF0120284320F00040C0F17F6000F125
:10476000E040C00F0ED0301C18BF0120384320F0AD
:104770000040C0F17F6000F1E040C00F04BF0120A5
:10478000FBF761FF20462946BDE8F08170B505467C
:1047900001F0EEFB044620F00040C0F1FF40C00FE6
:1047A00008D025F00040C0F1FF40C00F04BF012039
:1047B000FBF749FF204670BDD0E9013201699A60DC
:1047C000D0E901235A604A68824201D182684A6076
:1047D000002202610868401E0860086870470000F7
:1047E000034B036003F15C00086080201060704799
:1047F00020090020044B036003F15C0008604FF4C3
:1048000080701060704700007C0B0020704770477C
:1048100000F108014FF0FF32C0E90112C1600161EF
:1048200000210160704700210161704730B50B68BD
:104830005A1C02D000F1080202E0026904E022469C
:10484000546825689D42FAD953684B6099608A6024
:10485000516008610168491C016030BD42684A60CE
:1048600093688B6093685960916008610168491C86
:1048700001607047502080F31188BFF34F8FBFF362
:104880006F8F0A494868401C486001280CD10848CD
:10489000006810F0FF0F07D0502080F31188BFF39D
:1048A0004F8FBFF36F8FFEE770470000C0000020FE
:1048B00004ED00E00849486828B1401E486001D175
:1048C00080F311887047502080F31188BFF34F8F19
:1048D000BFF36F8FFEE70000C000002070B5002816
:1048E0002AD0164DA0F1080460686969084207D112
:1048F000502080F31188BFF34F8FBFF36F8FFEE717
:1049000022683AB1502080F31188BFF34F8FBFF374
:104910006F8FFEE78843606000F0CCF960686968DB
:10492000084468602046FFF7A7FC2869401C2861FE
:10493000BDE8704000F014BE70BD0000A000002073
:104940000F4810B501684FF47A72B1FBF2F30D48CD
:104950006FF07F448360B4FBF3F3C360B1FBF1F30A
:104960002D24B4FBF3F303614FF0E0200023036137
:104970008361B1FBF2F1491E41610721016110BD64
:1049800048000020C0000020F1B5394D82B00299E6
:10499000E868814200D902904FF0E024206920F0BD
:1049A00001002061A1690298AA68401E02FB00165E
:1049B0002869864200D9361A72B6BFF34F8FBFF30B
:1049C0006F8FFFF75FF998B366610027A7612069D1
:1049D00040F001002061029800906846FEF752FF07
:1049E000009820B1BFF34F8F30BFBFF36F8F02A885
:1049F000FEF72AFF62B6BFF34F8FBFF36F8F72B619
:104A0000BFF34F8FBFF36F8F062020612069C00373
:104A100016D5A0692A69311AA868411A491E91421F
:104A200001D3814200D9411E61610298401E12E00B
:104A3000FFE7A0696061206940F00100206111E09A
:104A40000298AA68A1695043411AB1FBF2F0431CD5
:104A50005343591A6161A761216941F00101216144
:104A600000F014F9A868401E606162B6FEBD000047
:104A7000C000002010B5FBF7E1FB114910280ED350
:104A800000F1E02090F8F0030A78904207D250201D
:104A900080F31188BFF34F8FBFF36F8FFEE7094894
:104AA0000068496900F4E060884207D9502080F32B
:104AB0001188BFF34F8FBFF36F8FFEE710BD00006B
:104AC000C00000200CED00E010B5084B002200BF34
:104AD00053F832401CB1521C082AF9D310BD43F8D8
:104AE000321003EBC201486010BD00000403002037
:104AF00070B515460E460446FFF7BCFE94F9441007
:104B00000020491C01D184F8440094F94510491C47
:104B100001D184F84500FFF7CDFEA06B28B92A46E5
:104B2000314604F1240000F051F82046BDE8704001
:104B3000FFF750BD10B5020014D00F48006B38B11C
:104B4000502080F31188BFF34F8FBFF36F8FFEE7C4
:104B500000F0B0F800211046FFF776F900F000FDF4
:104B6000002807D105494FF080500860BFF34F8FF0
:104B7000BFF36F8F10BD00004C00002004ED00E07B
:104B800002490A6A0260C968416070474C0000200F
:104B900001490120C86170474C00002010B50C4647
:104BA00050B1094909681831FFF740FE2046BDE8B9
:104BB00010400121FFF748B9502080F31188BFF35E
:104BC0004F8FBFF36F8FFEE74C00002070B5144687
:104BD0000D4668B10A4909681831FFF73FFE0CB16C
:104BE0004FF0FF3521462846BDE87040FFF72CB94D
:104BF000502080F31188BFF34F8FBFF36F8FFEE714
:104C00004C00002030B587B00024039405AA04A905
:104C100003A80494FFF7E4FDDDE903010094CDE966
:104C20000110002315A11748059A00F072FB164DDC
:104C30000028E8621FD000F0F5FC012809D0401CD4
:104C400019D1502080F31188BFF34F8FBFF36F8FBE
:104C5000FEE7502080F31188BFF34F8FBFF36F8FB3
:104C60004FF0FF30A86201206861EC6007B0BDE83A
:104C7000304000F059B807B030BD000049444C4501
:104C800000000000114100084C0000200849CA68DB
:104C90008B6A02449A4207D9502080F31188BFF3EF
:104CA0004F8FBFF36F8FFEE7CA681044C86070472C
:104CB0004C0000200248016B491C01637047000052
:104CC0004C000020164810B5016B11B10121C161E3
:104CD00010BD0021C1610169124A01E0B9B1491E4C
:104CE00001EB810352F82330002BF7D001EB810355
:104CF00002EB830202F1080453685B685360A3422D
:104D000001D15B685360DA680260016110BD502018
:104D100080F31188BFF34F8FBFF36F8FFEE7000062
:104D20004C000020440300201CB52649087801905F
:104D3000FF20087008788DF800009DF800009DF8AD
:104D4000002000F0F000904207D0502080F311883E
:104D5000BFF34F8FBFF36F8FFEE79DF800001A4C33
:104D600000F0500020700720606105E09DF80020F1
:104D700052008DF80020401E9DF800201206F5D448
:104D80006061032807D0502080F31188BFF34F8F54
:104D9000BFF36F8FFEE74FF44070606101980870B9
:104DA0000A48016841F470010160016841F07041F6
:104DB0000160FFF7C5FD00206060FBF709FA0020E5
:104DC0001CBD000000E400E0C000002020ED00E079
:104DD00010B5502080F31188BFF34F8FBFF36F8F52
:104DE00000F0D6FA18B104494FF080500860002056
:104DF00080F3118810BD000004ED00E038B5049D7B
:104E000018B153B1CAB181B120E0502080F31188AC
:104E1000BFF34F8FBFF36F8FFEE7502080F31188F1
:104E2000BFF34F8FBFF36F8FFEE7502080F31188E1
:104E3000BFF34F8FBFF36F8FFEE739B1502080F380
:104E40001188BFF34F8FBFF36F8FFEE750241C46CE
:104E5000012384F846302B460094FFF7A3F920463F
:104E600038BD000070B50D46040025D0FFF702FDE7
:104E7000D4E90F20216802FB0011A1600021A16389
:104E8000216861600A46D4E90F01401E00FB012140
:104E9000E16021464FF0FF3001F8440F487004F103
:104EA00010008DB1FFF7B4FC04F12400FFF7B0FC53
:104EB000FFF700FD012070BD502080F31188BFF383
:104EC0004F8FBFF36F8FFEE721690029F0D000F00C
:104ED0000BFB0028ECD004494FF080500860BFF372
:104EE0004F8FBFF36F8FE3E704ED00E02DE9FF473D
:104EF00082B01D468A464FF00008040003D0BAF184
:104F0000000F08D011E0502080F31188BFF34F8FBD
:104F1000BFF36F8FFEE7206C38B1502080F311880B
:104F2000BFF34F8FBFF36F8FFEE7022D0AD1E06B07
:104F3000012807D0502080F31188BFF34F8FBFF3B3
:104F40006F8FFEE700F010FA3F4F4FF000094FF06F
:104F5000805648B9049838B1502080F31188BFF3C7
:104F60004F8FBFF36F8FFEE7FFF784FCA06BE16B01
:104F7000884207D3022D05D00498D0B1B8F1000FB4
:104F80001AD01EE02A4651462046FFF732F8616AE1
:104F900019B104F1240000F0A7FA20B13E60BFF37C
:104FA0004F8FBFF36F8FFFF785FC012006B0BDE880
:104FB000F087FFF77FFC22E06846FFF7E1FD4FF046
:104FC0000108FFF777FCFFF775FEFFF753FC94F934
:104FD0004400401C01D184F8449094F94500401CE1
:104FE00001D184F84590FFF765FC04A9684600F0FC
:104FF00029F930B12046FFF7EDFA00F0B1FA0020B0
:10500000D4E7FFF737FCA06BE16B884213D1FFF7C1
:1050100051FC04F110000499FFF7C0FD2046FFF792
:10502000D9FA00F09DFA00289ED13E60BFF34F8F61
:10503000BFF36F8F98E7FFF73DFC2046FFF7CAFAF2
:1050400000F08EFA90E7000004ED00E02DE9F04753
:105050001F4690468946040003D0B9F1000F08D0DE
:1050600011E0502080F31188BFF34F8FBFF36F8F93
:10507000FEE7206C38B1502080F31188BFF34F8FCA
:10508000BFF36F8FFEE7022F0AD1E06B012807D034
:10509000502080F31188BFF34F8FBFF36F8FFEE76F
:1050A000FFF7E8FC5020EFF3118680F31188BFF37F
:1050B0004F8FBFF36F8FA06BE16B884206D3022F37
:1050C00004D0002086F31188BDE8F08794F945509C
:1050D000A06B3A4649462046FEF78BFF681C04D079
:1050E0006D1C84F845500120ECE7606A0028FAD076
:1050F00004F1240000F0F8F90028F4D0B8F1000F12
:10510000F1D00121C8F80010EDE700002DE9F747C4
:10511000002683B08A46040003D0BAF1000F08D0FD
:1051200011E0502080F31188BFF34F8FBFF36F8FD2
:10513000FEE7206C38B1502080F31188BFF34F8F09
:10514000BFF36F8FFEE700F00FF9DFF8F4804FF048
:1051500000094FF0805748B9059838B1502080F3C6
:105160001188BFF34F8FBFF36F8FFEE7FFF782FB0E
:10517000A56BC5B151462046FEF728FF6D1EA563FD
:10518000206950B104F1100000F0AEF928B1C8F860
:105190000070BFF34F8FBFF36F8FFFF78BFB0120C2
:1051A00006B0BDE8F087059808B11EB106E0FFF72C
:1051B00081FB27E06846FFF7E3FC0126FFF77AFB57
:1051C000FFF778FDFFF756FB94F94400401C01D12E
:1051D00084F8449094F94500401C01D184F845902E
:1051E000FFF768FB05A9684600F02CF80028204668
:1051F0000AD0FFF7EFF900F0B3F92046FFF77EF889
:105200000028B3D00020CBE7FFF778F890B104F185
:1052100024000599FFF7C2FC2046FFF7DBF900F0F8
:105220009FF90028A2D1C8F80070BFF34F8FBFF3D9
:105230006F8F9BE72046FFF7CDF900F091F995E7D6
:1052400004ED00E02DE9F0410C46050011D0C4B199
:10525000FFF710FB174BDA686E682068911B471C3C
:1052600017D02F681B6A9F4219D0964217D8012485
:1052700010E0502080F31188BFF34F8FBFF36F8F82
:10528000FEE7502080F31188BFF34F8FBFF36F8F7D
:10529000FEE70024FFF70EFB2046BDE8F0818842C0
:1052A00005D9401A20602846FFF76AFCF1E7002084
:1052B0002060DCE74C0000202DE9FF5F8346DDE93C
:1052C0000E87994616468A469000FFF7B9F9050001
:1052D0001CD05C20FFF7B4F9040014D00020256333
:1052E00084F85900CDE90240CDE900874B463246AB
:1052F00051465846FEF768FF2046FEF7D3FD0120D1
:1053000004B0BDE8F09F2846FFF7E8FA4FF0FF3001
:10531000F6E7F0B585B0DDE90B640A9DA6B1DCB116
:105320005C2700972663022684F85960002604AFA4
:10533000CDE90246CDE90057FEF746FF2046FEF7CD
:10534000B1FD049805B0F0BD502080F31188BFF383
:105350004F8FBFF36F8FFEE7502080F31188BFF3AC
:105360004F8FBFF36F8FFEE70548416919B1006B9E
:1053700018B10020704701207047022070470000DC
:105380004C0000200148C068704700004C0000201D
:105390002DE9F041324C0027206B38B1A069401C48
:1053A000A061FFF734FA3846BDE8F081E668761C64
:1053B000E66013D1606B006838B1502080F311882B
:1053C000BFF34F8FBFF36F8FFEE7606BA16B61631D
:1053D000A063206A401C2062FFF77CF8A06ADFF817
:1053E0008480864209D3606B006890B1606BC068AE
:1053F000C568686886420FD2A0622068C06A00EB68
:10540000800158F82100012800D90127A069F8B1CE
:1054100020E04FF0FF30EFE7281DFFF7CDF9A86A35
:1054200018B105F11800FFF7C7F9E86A2169884249
:1054300000D9206100EB800108EB8100291DFFF7F6
:105440000DFAE86A2168C96A8842CCD30127CAE705
:10545000FFF7DDF9E0690028A5D00127A3E70000E8
:105460004C0000204403002070B504004FF0000100
:1054700033D01B4D2868844207D0502080F3118818
:10548000BFF34F8FBFF36F8FFEE7206D38B1401E23
:105490002065E36CE26A9A421FD040B11DE05020C3
:1054A00080F31188BFF34F8FBFF36F8FFEE7201D8E
:1054B000FFF782F9E06CE062C0F13800A061E06AB9
:1054C0002969884200D92861064900EB800001EB78
:1054D0008000211DFFF7C2F90121084670BD0000C0
:1054E0004C0000204403002070B5C068C4689CB123
:1054F00004F118000646FFF75FF9164D286B98B1C6
:1055000031461548FFF7AAF9E06A2968C96A884256
:105510001DD90120E86170BD502080F31188BFF3D0
:105520004F8FBFF36F8FFEE7201DFFF745F9E06A4D
:105530002969884200D92861084900EB800001EB05
:105540008000211DFFF78AF9FEF7C4FFDCE7002089
:1055500070BD00004C000020CC0700204403002058
:105560002DE9F0472C4D00242746286B38B1FFF772
:1055700081F9286B401E2863286B40B146E050201B
:1055800080F31188BFF34F8FBFF36F8FFEE7A968D9
:10559000224E0120D1B3A6F5916980463068E0B172
:1055A000F068C46804F11800FFF706F9201DFFF742
:1055B00003F9E06A2969884200D9286100EB80017B
:1055C00009EB8100211DFFF749F9E06A2968C96AE2
:1055D0008842E3D3C5F81C80E0E70CB1FEF77AFF00
:1055E000AC694CB14FEA0806FFF7D2FE00B1EE619C
:1055F000641EF9D10020A861E86938B10849012783
:1056000038070860BFF34F8FBFF36F8FFFF752F972
:105610003846BDE8F08700004C000020CC07002091
:1056200004ED00E010B586B0FEF7A4FC114C206834
:10563000B8B100200390049005AA04A903A8FFF7BD
:10564000D9F8DDE9032102208DE8070000230AA133
:105650000B48059AFFF75DFE606010B106B00120AF
:1056600010BD502080F31188BFF34F8FBFF36F8FB1
:10567000FEE7000088000020546D7220537663001E
:10568000B14500082DE9FF411E46134602000A9D60
:105690004FF0000016D0144C2768002F0FD0CDE932
:1056A00000130292062917DAFFF75EFE02284FF078
:1056B00000030FD0002269462068FFF717FC04B0F2
:1056C000BDE8F081502080F31188BFF34F8FBFF306
:1056D0006F8FFEE72A46EEE70023324669463846DA
:1056E000FFF7B4FCEBE700008800002010B50029AC
:1056F0000AD00878002807D005487844FBF784FBD7
:10570000002801D0002010BD0248784410BD0000E0
:10571000F20C0000EA0C000021F00042A2F16052FD
:10572000B2F5801F01F0004328BFD2F17F6C0BD986
:105730005FEA001C43EAC20242EB507018BF704798
:1057400028BF20F001007047B2F5801FBCBF18468B
:1057500070474FEA410C1CF5001F02D2084600F0CA
:10576000D0BB70B500F009F800000089FFF7F6BF64
:105770004FF00040A0F5800070470EF1020E2EF0B1
:10578000030E5EF8046B364205D4012A43EB030591
:1057900015F5001F12D8012841EB010C1CF5001F64
:1057A0000CD80ED14FEAD17C15F5001F0CEB4C0C38
:1057B0000CF1020C08BF4CEBD37C04E04FF0080C5A
:1057C00001E04FEAD37C0CEB4C0526FA05F606F017
:1057D0000706B6F1040C06D20EEB860CBDE870404D
:1057E0004CF0010C6047DFE80CF0090B02024FF0AF
:1057F00000414FF00000A1F5002170BD1946104690
:10580000012851EB010418BFD4F5001484BF002017
:1058100001F0004170BD0808A0F500114FEA310108
:10582000704700002DE9F04101F5801CBCF5001F18
:10583000C0F2C3804FEA115C21EA0C510CF1FD0C5F
:1058400041F480115FEA5C0C0CF5C07C01D3400090
:1058500049413DA4890241EA905187028E0E0A0C0B
:10586000A45D04FB04F602FB06F6C6F14046A4FB69
:105870000662F60D46EA422606FB06F4A4FB012367
:105880005242C3F1404338BF5B1EA6FB02420024D4
:10589000E6FB0324D20B42EA4446A6FB0623A1FB07
:1058A00002E2A3FB07E4A4184FF0000252F1000249
:1058B000E3FB01426442C2F1404E38BFAEF1010E3B
:1058C000A6FB04234FF00002E6FB0E32A2FB0346C8
:1058D0004FF00004B61954F10004E2FB0264A1FB8E
:1058E00006E6A4FB07E816EB08064FF0000858F19F
:1058F0000008E4FB01687642C8F1405838BFA8F1BF
:105900000108A2FB06E4A3FB08E52D194FF00004F3
:1059100054F10004E2FB0854A1FB05E6A7FB04E8F0
:1059200018EB06084FF0000656F10006E1FB04866E
:1059300018F1200556F10006A809A8F11B08B109C5
:1059400008F03F08B8F10A0F40EA86601CD901EB65
:105950000C51BDE8F08100BFFCF5EEE8E2DDD8D3E4
:10596000CFCBC7C3C0BDB9B6B4B1AEACA9A7A5A3D0
:10597000A19F9D9B9A9896959392908F8D8C8B89E1
:105980008887868584838281A0FB006800FB01F202
:1059900008EB4208B8EB872807D5341858EB010408
:1059A000D5D5401C51F10001D1E7341A78EB010440
:1059B000CDD4401E71F10001C9E75FEA4C0C5FEAEB
:1059C0009C5C0DD105D34FF0000001F00041BDE813
:1059D000F081BDE8F04170B5FFF7CFFE6DDBFFBE93
:1059E000BDE8F0414FF00000004970470000F87F2B
:1059F00043004FEAD30C4FEA3C0C43401FBF400723
:105A00000CF1605113F0FE4F70471CF0006F03D192
:105A100000200CF0004170470CF0004343EA507046
:105A200010B540EACC0000F026FA00BF000000925A
:105A30004FEA0001FFF7EFBE4FF000414FF00000CA
:105A4000A1F500217047000090EA010F48BF81F0E6
:105A5000004100F11C83421A3CBF801A89184FEAAA
:105A6000D0524FF07F4C1CEA410FA2EBD15318BF2C
:105A70009CEA026F00F03B804FF0004C4CEA0020A3
:105A80004CEA012121FA03FC10EB0C0C1ED202F1AE
:105A9000FF325FEA1C2040EBC25038BF70471CF059
:105AA0007F0F4FEA400C18BFBCF17F4F38BF7047E3
:105AB000C3F12003994008BF20F00100BCF17F4FE3
:105AC00038BF7047A0F1C04000F01BBA4FEA3C005D
:105AD000000A40EBC25028BF1CF0FF0F4FEA400CF9
