:020000040800F2
:100000004808002091010008492100080D1A000845
:1000100045210008810500085D210008000000005E
:100020000000000000000000000000005121000856
:10003000F5050008000000004D21000855210008CA
:10004000AB010008AB010008AB010008AB010008E0
:10005000AB010008AB010008AB010008AB010008D0
:10006000AB010008AB010008AB010008AB010008C0
:10007000AB010008AB010008AB010008AB010008B0
:10008000AB010008AB010008AB010008AB010008A0
:10009000AB010008AB010008AB010008AB01000890
:1000A000AB010008AB010008AB010008AB01000880
:1000B000AB010008AB010008AB010008AB01000870
:1000C000AB010008AB010008AB010008AB01000860
:1000D000AB010008AB010008AB010008AB01000850
:1000E000AB010008AB010008AB01000800F002F80A
:1000F00000F03FF80AA090E8000C82448344AAF183
:100100000107DA4501D100F034F8AFF2090EBAE880
:100110000F0013F0010F18BFFB1A43F0010318473B
:100120004C2200006C220000103A24BF78C878C12D
:10013000FAD8520724BF30C830C144BF04680C60ED
:10014000704700000023002400250026103A28BF35
:1001500078C1FBD8520728BF30C148BF0B60704739
:10016000782900F07180002070471FB51FBD10B5C1
:1001700010BD00F0CAF91146FFF7F7FF01F0F0FFDC
:1001800000F0E8F903B4FFF7F2FF03BC00F0F0F968
:100190000948804709480047FEE7FEE7FEE7FEE71B
:1001A000FEE7FEE7FEE7FEE7FEE7FEE70448054957
:1001B000054A064B7047000059210008ED00000871
:1001C000480200204808002048040020480400207D
:1001D0000FB41CB5074B06AA7B44694600900598EE
:1001E00000F07BF90020694600F08AF91CBC5DF83C
:1001F00014FB00002503000070B504468569006803
:10020000C10601D5302600E02026C00707D070BD0A
:10021000D4E9012130469047206A401C20626D1EBF
:10022000F6D570BD70B5044685690078C00707D162
:1002300070BDD4E9012120209047206A401C206233
:100240006D1EF6D570BD000070B504460D46214602
:100250001068AFF300802188090502D50F4A7A445F
:1002600002E00E4A7A440E32002104F1240305E034
:1002700000F00F060009965D5E54491C0028F7D176
:1002800020780023000704D5702D02D009B1022385
:1002900011322046BDE8704000F0C0B8A420000034
:1002A0002DE9F05F894604464FF0000ADFF824B1DB
:1002B000FB44C0F820A02046E168884700287DD094
:1002C000252806D0D4E901219047206A401C2062ED
:1002D000F1E700255F462046E1688847202806466A
:1002E00007DB312E05D2B81910F8200C08B10543F0
:1002F000F1E7A80701D525F00405C4F81CA00027E4
:10030000C4F818A02A2E09D0304601F0F5FF38B302
:1003100004EB8708303EC8F8186019E059F8041B50
:10032000204604EB87029161E1688847012F064669
:1003300018D1E069002820DA25F020051DE0D8F862
:10034000180000EB800006EB40003038C8F81800B9
:100350002046E1688847064601F0CEFF0028EED12E
:10036000012F0AD02E2E08D12046E16888477F1C35
:100370000646022F45F02005C4DBA069002803DAF9
:10038000404245F00105A061E80701D025F01005C5
:10039000A6B1A6F14100192802D8203645F400651F
:1003A0004A463146204625604D46FFF7D9FE60B1EA
:1003B000012807D0ED1D25F0070000E007E000F15F
:1003C000080978E705F1040975E730467AE7206AFD
:1003D000BDE8F09F7A20000010B5431C02E010F841
:1003E000011B71B18107FAD14FF0013202C88C1A9A
:1003F0008C4314EAC211F9D0C01A0A0603D0C01EF9
:1004000010BDC01A10BD0A0401D0801E10BD090223
:10041000FCD0401E10BD7047704770472DE9F04773
:100420000D4699469246044600F124080168880664
:1004300004D5E06921F01001216000E00120A8420C
:1004400001DD471B00E00027A1697A1902EB0900D2
:10045000081AA0612078C00602D42046FFF7CCFE1F
:10046000002608E0D4E901211AF806009047206A26
:10047000401C761C20624E45F4DB2078C0060AD56D
:100480002046FFF7B9FE06E0D4E90121302090476D
:10049000206A401C2062381EA7F10107F4DC07E047
:1004A000D4E9012118F805009047206A401C206219
:1004B000281EA5F10105F3DC2046FFF7B3FE2078E6
:1004C000000602D50220BDE8F0870120FBE700000E
:1004D00001694A1C02610878704700B58FB0CDE908
:1004E00001310021059105497944CDE903101146F8
:1004F0006846FFF7D5FE0FB000BD0000E5FFFFFF27
:100500000A6802F8010B0A607047754600F02CF883
:10051000AE4605006946534620F00700854618B0F0
:1005200020B5FFF743FEBDE820404FF000064FF036
:1005300000074FF000084FF0000BAC46ACE8C009D4
:10054000ACE8C009ACE8C009ACE8C00921F007017B
:100550008D46704710B50446AFF300802046BDE8D5
:100560001040FFF70FBE0000004870471800002041
:1005700001491820ABBEFEE72600020070470000CC
:10058000FEE700002DE9F04782B0044600274FF453
:1005900016764FF03A0964250DF1070A0DF10608A9
:1005A0000EE000BF9DF8060040064FF0010058BF66
:1005B0004FF0FF300744642000F024F8013E13D0D0
:1005C0002046D021524601238DF80790009500F077
:1005D000FBFB0028E6D12046D021424601230095AE
:1005E00000F0F4F9DEE700BFF843C00F02B0BDE849
:1005F000F087000070470000EFF3108072B600BF74
:10060000FEE70000B0B5044600F01EF9054640F2D2
:100610000800C2F200000078611C18BF044400BF4B
:1006200000F012F9401BA042FAD3B0BD2DE9F04F03
:1006300082B00E68002E00F0038141F20042C4F245
:100640000102042340F2004E904208BF03234FF6FC
:10065000FF7CC4F2010E009300240123C1F2100CB0
:100660004FF0000A4FF0000949E000BF012704F0F5
:100670000C030F229A402BEA020207FA03F34FEA17
:100680009A051A4346F82520D1F804B040F20C45EB
:100690005FEACB22DEF8082054BF22EA080242EAD1
:1006A0000802C4F20105CEF808202A685FEA8B230D
:1006B00054BF22EA080242EA08022A605FEA8B334A
:1006C000DEF8042054BF22EA080242EA08025FEA88
:1006D000CB33CEF80420DEF800204FF0010354BFE6
:1006E00022EA080242EA0802CEF800200E680AF167
:1006F000010A36FA0AF204F1040400F0A18003FAB8
:100700000AF816EA080FF1D04E68664512DC122E80
:1007100056D8DFE806F0350B454955555555555522
:10072000555555555555554D510000BFD1F80C90B4
:1007300046E000BF4FF6FF72C1F2210296420FDC85
:100740000022C1F2110296421AD00022C1F2120216
:10075000964215D00022C1F22102964210D02FE01D
:100760000022C1F2220296420AD00022C1F23102D6
:10077000964205D00022C1F23202964220D100BF3B
:100780008A684AB1012A14BFC0F81480C0F81080EA
:100790004FF0080914E000BF4FF0040910E000BF5B
:1007A000CA6802F108090BE04FF0000908E000BF39
:1007B000CA6802F1040903E0CA6802F10C0900BF2B
:1007C00022460646BAF1080F24BF203A043637689D
:1007D0000F25954027EA050509FA02F22A433260FF
:1007E000CA79D2067FF582AF41F21803C4F2020340
:1007F0001A68AEF57E7642F001021A601A6802F0BD
:1008000001020192019A2AF0030256F802B040F662
:100810000002C4F20102904210D040F60042C4F23D
:10082000010290423FF422AF41F20002C4F2010201
:10083000009F904208BF022719E700BF002716E774
:1008400002B0BDE8F08F000040F24420C2F2000088
:100850000068704770B5B8B3044690F83D0028B9F9
:10086000002084F83C00204600F098FB242084F807
:100870003D002068016821F001010160016841F438
:1008800000410160016821F40041016000F03CFD7D
:1008900048F28041C0F21E0140F60013D4F804E093
:1008A00088424FF00001C0F23D0348F2A16C4FF0C6
:1008B000000238BF01219842C0F2010C38BF01226A
:1008C000E64538BF0A460AB1012070BD4DF6836186
:1008D000C4F21B31A0FB01122168950C4B684FF448
:1008E000967623F03F0343EA9243754344F6D3568A
:1008F0004B60C1F262060B6AA5FB0656B50923F0F0
:100900003F03E64538BF950C6A1C1A430A62CA6960
:1009100048F2A0664CF6FF73C0F20106B64522EA23
:1009200003020BD801384FEA4E03B0FBF3F001305D
:100930006FF31F30042898BF04201EE0A36801381D
:1009400063B119230EFB03F3B0FBF3F001306FF337
:100950001F3078B100F5804008E000BF0EEB4E0379
:10096000B0FBF3F001306FF31F3028B100F5004009
:1009700003E000BF012000E001201043C8610868C7
:10098000D4E9072320F0C0001043184308608868AA
:1009900048F2FF3204F10C0690434CCE184310434A
:1009A000A5698860C86820F0FF0030432843C8600C
:1009B000086840F00100086000202021206484F8CD
:1009C0003D10206384F83E0070BD00002DE9F04723
:1009D00084B0044600201F46164689460290FFF761
:1009E00033FF94F83D10202920D10546206800BF30
:1009F0008169890716D5FFF727FF411B20681A294F
:100A0000F6D381698907F3D500202021206384F87B
:100A10003D1084F83E00216C41F02001216484F8EF
:100A20003C0003E094F83C10012903D1022004B0FB
:100A3000BDE8F087012184F83C100168C90703D1A3
:100A4000016841F0010101600168DDF8308021F4A6
:100A500000610160222184F83D10102184F83E10CD
:100A60000021216466626785618D0227C0F201075B
:100A70002185A7F10211E162E16A026811F5803F68
:100A800042F48062026018BF01293DD1016841F43F
:100A90008071016020464FF001110022434600950D
:100AA00001F016F850B120680068C00544BF4FF44B
:100AB00000702064012004B0BDE8F0872069B0F523
:100AC000804F27D149F00100C0B221684246086139
:100AD000204639462B4601F0E5F80028EAD1208D62
:100AE00002284BD001285FD0002840F073800020FE
:100AF000039020684169039181690391039901681A
:100B000041F40071016071E00829BFD0216B112907
:100B1000BCD0BFE7062000EAD916206806F1F00134
:100B20000161B91D204642462B4601F0BBF8002862
:100B3000C0D120685FFA89F10161204639464246FA
:100B40002B4601F0AFF80028B4D1002003902068B4
:100B50000022416943460391816903910399016829
:100B600041F48071016020464FF00111009500F0C2
:100B7000AFFF002897D146F0F100A6E72068016892
:100B800041F400610160EFF3108072B60020039021
:100B9000206841690391816903910399016821F4F7
:100BA0008061016062B621E02068016821F4806103
:100BB0000160EFF3108072B6002003902068416955
:100BC0000391816903910399016841F40071016007
:100BD00062B60BE02068016841F480610160002189
:100BE000039141690391806903900398208D002847
:100BF00000F0CC8040F210094BF2895A0237C2F261
:100C00000009C1F2F84A23260EE000BF10690870FF
:100C1000606A218D01306062481E2085618D013936
:100C20006185010400F0B28080B203280CD802284C
:100C30002CD001284AD1204641462A4601F0A2F88C
:100C4000002800F09F8035E7204641462A4601F003
:100C500099F800287FF42EAF2068616A0069087057
:100C6000606A2268411C208D616201382085638D95
:100C7000013B638553695B07D3D580B20328C5D197
:100C8000106820F480601060C0E700BF204639463D
:100C900000224346009500F01BFF00287FF40AAFB6
:100CA000EFF3108072B62068616A026842F4007245
:100CB000026000690870606A218D01306062481E20
:100CC0002085608D0138608562B65BE0204639463C
:100CD00000224346009500F0FBFE00287FF4EAAEB8
:100CE0002068016821F480610160EFF3108072B622
:100CF0002068616A00690870606A218D01300139DD
:100D000060622185618D01396185D9F80010C908BB
:100D1000A1FB0A12110A7143029102990139029151
:100D2000029900293ED021684A6952071AD40299D3
:100D3000013902910299A9B321684A69520711D475
:100D4000029901390291029961B321684A695207F7
:100D500008D4029901390291029919B321684A69AC
:100D60005207DAD50A6842F400720A600969017014
:100D7000606A218D01306062481E2085608D0138D7
:100D8000608562B62068616A006940E7202084F8C7
:100D90003D00002084F83E0084F83C0004B0BDE82B
:100DA000F08700BF00202021206384F83D1084F8E4
:100DB0003E00216C41F02001216462B684F83C00C1
:100DC000012004B0BDE8F0872DE9F04383B01E4652
:100DD000174689460446FFF737FD94F83D10202951
:100DE00020D10546206800BF8169890716D5FFF725
:100DF0002BFD411B20681A29F6D381698907F3D599
:100E000000202021206384F83D1084F83E00216CEE
:100E100041F02001216484F83C0003E094F83C1088
:100E2000012903D1022003B0BDE8F083012184F839
:100E30003C100168C90703D1016841F0010101605C
:100E4000016840F2020821F400610160212184F868
:100E50003D10102184F83E100021216467626685F0
:100E6000618DC0F201082185A8F10211E162E16AF9
:100E70000A9E11F5803F18BF01291DD1016841F478
:100E80008071016020464FF0011100223346009529
:100E900000F01EFE50B120680068C00544BF4FF44A
:100EA00000702064012003B0BDE8F0832069B0F534
:100EB000804F07D1FE2015E00829DFD0216B1229D1
:100EC000DCD0DFE7062000EAD9102168F0300861A5
:100ED00008F10601204632462B4600F0E3FE0028CA
:100EE000E0D1FF20216800EA090008612046414660
:100EF00032462B4600F0D6FE0028D3D100200290C7
:100F000020684169029180690290029806E000BF62
:100F1000204631462A4600F07BFD18BB208D68B381
:100F2000204631462A4600F075FFD8B9606A21682C
:100F3000024612F8013B0B616262628D013A6285E2
:100F4000228D531E23854F697F07E1D51B04DFD017
:100F5000437802300B616062608D01386085901EBD
:100F60002085D5E7206C04289CD12068016841F4D5
:100F700000710160012003B0BDE8F08320680168C2
:100F800041F400710160202084F83D00002084F8C5
:100F90003E0084F83C0003B0BDE8F08310B586B095
:100FA00045F200410068C4F2000100228842049228
:100FB00002D006B010BD00BF41F21804C4F2020412
:100FC000206840F008002060206800F008000190D0
:100FD0000198C0200290122003900320059001F593
:100FE000384002A9FFF722FB606840F400106060FF
:100FF000606800F400100190019806B010BD000078
:1010000040F2080040F24421C2F20000C2F20001A6
:1010100000780A68104408607047000080B542F20A
:101020000000C4F20200016841F0100101600320D9
:1010300000F07AF80F2000F005F800F027F8002003
:1010400080BD000070B540F20806C2F2000640F212
:1010500010013278C2F200014FF47A730968B3FBD1
:10106000F2F20446B1FBF2F1084600F04FFB0F2C00
:101070004FF0010508D838B94FF0FF302146002263
:10108000002500F025F87460284670BD82B041F25A
:101090001800C4F202000168042241F0010101605D
:1010A000016801F0010101910199416841F080510D
:1010B0004160406800F08050009000980420C4F225
:1010C0000100016862F31A61016002B0704700001C
:1010D00010B54EF60C5CCEF2000CDCF80030C3F319
:1010E000022E8EF00704042C28BF0424BEF1030353
:1010F0004FF0FF3E0EFA04F438BF0023A14399409D
:101100000EFA03F39A43114300F00F0200F160431B
:101110000901043A03F564436244002848BF02F120
:101120000C03197010BD00004EF60C51CEF20001F8
:101130000A684FF6FF031A4060F30A2242F080600B
:1011400040F0FD70086070472DE9F04381B0002841
:1011500000F0858042F20008C4F202080446D8F884
:1011600000000D4600F0070088420CD2D8F80000BD
:1011700020F007002843C8F80000D8F8000000F06D
:101180000700A8426BD1206841F204098107C4F22C
:10119000020917D5410705D5D9F8001041F4E061DF
:1011A000C9F80010010705D5D9F8001041F46051C5
:1011B000C9F80010D9F80010A26821F0F00111431D
:1011C000C9F80010C00741D1D8F8000000F00700AE
:1011D000A8420CD9D8F8000020F007002843C8F82E
:1011E0000000D8F8000000F00700A84237D12068BE
:1011F000410707D5D9F80010E26821F4E0611143F6
:10120000C9F80010000708D5D9F80000216920F4BA
:10121000605040EAC100C9F80000D9F8002002F08F
:101220000C00082841F20020C0F27A0050D142F2AE
:101230005933C2F38341C0F60003595CD2033BD457
:1012400040F60010C0F23D00484341E060680228CB
:101250000AD001282AD159F8041C890308D4012096
:1012600001B0BDE8F08300BF59F8041C8901F6D530
:10127000D9F8001021F003010843C9F80000FFF776
:10128000E3FA064641F28837D9F80000616800F0B9
:101290000C00B0EB810F97D0FFF7D6FA801BB84255
:1012A000F2D9032001B0BDE8F08300BF59F8041C57
:1012B0008907D4D5DCE700BFD9F8002042F25733C4
:1012C000C2F34042C0F600039A5C4843B0FBF2F020
:1012D000D9F8001042F23F32C1F30311C0F6000208
:1012E000515C40F2100220FA01F140F20C00C2F20F
:1012F00000000068C2F200021160FFF7A3FE0020A8
:1013000001B0BDE8F083000040F2100041F204019A
:10131000C2F20000C4F202010068096842F24F32D2
:10132000C1F30221C0F60002515CC84070470000C2
:1013300040F2100041F20401C2F20000C4F20201C6
:101340000068096842F24F32C1F3C221C0F60002C0
:10135000515CC840704700002DE9F04182B0002880
:1013600068D00446007841F20006C007C4F20206C5
:1013700025D0706800F00C0004281BD0706800F0C5
:101380000C00082802D17068C00313D460680028DC
:1013900000F06881B0F5A02F00F07C81B0F5803FAF
:1013A00000F07C81306820F480303060306820F4B8
:1013B000802076E13068800301D56068D0B3207862
:1013C000800718D5706810F00C0F07D0706800F017
:1013D0000C0008286ED17068C0036BD43068800799
:1013E00002D52069012825D13068616920F0F80014
:1013F00040EAC1003060207800071FD42078400701
:1014000032D4E56995B1706800F00C00082840F00E
:101410008F80012D0ED07068216A00F480328A42DC
:1014200008D1616A00F47010884203D1002002B034
:10143000BDE8F081012002B0BDE8F081A06900287C
:1014400062D00020C4F242200121C0F88014FFF7CE
:10145000FBF90546706A800700F18C80FFF7F4F90C
:10146000401B0228F6D92AE1F06910F0805808D113
:10147000F06940F08050F061F06900F08050009019
:10148000009847F20007C4F200073868C00529D465
:10149000386840F480703860FFF7D6F9054600BF21
:1014A0003868C0051ED4FFF7CFF9401B6428F7D970
:1014B00005E100BF2069002840F20000C4F242208C
:1014C00000F0828001210160FFF7BEF9054600BFF0
:1014D000306880073FF588AFFFF7B6F9401B022858
:1014E000F6D9ECE0E068002800F08080052800F0E4
:1014F0009780012800F09880306A20F00100306267
:10150000306A20F0040092E00020C4F24220002162
:10151000C0F88014FFF798F9054600BF706A80078D
:101520007FF56CAFFFF790F9401B0228F6D9C6E0B3
:101530000027C4F2422700203866FFF785F9022D04
:1015400005460BD13068800140F1BE80FFF77CF981
:10155000401B02284FF00300F4D968E7306880018F
:101560007FF564AFFFF770F9401B02284FF00300CE
:10157000F4D95CE740F21000C2F20000006844F6C3
:10158000D351C1F26201A0FB0101480A019000BFE2
:1015900000BF0198411E002801913FF42FAF00BF0A
:1015A0000198411E002801913FF428AF00BF019827
:1015B000411E002801913FF421AF00BF0198411E58
:1015C00000280191E4D119E700210160FFF73CF9FF
:1015D000054600BF306880077FF50DAFFFF734F98F
:1015E000401B02284FF00300F4D920E7306A20F0B6
:1015F00001003062306A20F004003062FFF724F905
:10160000054641F2883700BF306A800720D5FFF7D2
:101610001BF9401BB8424FF00300F5D907E700BFA4
:10162000306A40F004003062306A40F001003062FD
:10163000FFF70AF9054641F2883700BF306A800794
:1016400006D4FFF701F9401BB842F7D937E000BFD5
:10165000B8F1000F7FF4D5AEF06920F08050F06152
:10166000CFE600BF306820F480303060306820F46E
:1016700080203060FFF7E8F8054600BF306880033F
:101680007FF59DAEFFF7E0F8401B64284FF00300A4
:10169000F4D9CCE6306840F480203060306840F403
:1016A00080303060FFF7D0F8054600BF3068800317
:1016B0003FF585AEFFF7C8F8401B6428F6D9032034
:1016C00002B0BDE8F08100BF206AB0F5803F05D1CF
:1016D0007168A26821F40031114371607168626A17
:1016E00021F4741111430843706001203866FFF73C
:1016F000ABF80446306880013FF598AEFFF7A4F8D8
:10170000001B02284FF00300F4D990E6411E002090
:10171000B0EB116F1CBF012070474EF21002CEF2E9
:10172000000251604EF62351CEF20001F0230B70FF
:101730000721906011607047002804BF01207047A6
:1017400010B5044690F8410028B9002084F8400004
:10175000204600F063F8242084F841002068D4E992
:101760000212C36823F40053C360036923F4405397
:101770001A430261D4E904231143C268194341F2B8
:101780000C639A431143C1604169A26921F440711D
:10179000114343F60002C4F201029042416103D0BA
:1017A000FFF7B2FD02E000BFFFF7C2FD626819213A
:1017B00048439100B0FBF1F048F21F51C5F2EB1124
:1017C000A0FB01235A094FF69C73C0F6FF7302FB7E
:1017D0000300322303EB0010A0FB0101F02303EA16
:1017E0005113206803EB0212C1F3431111448160CD
:1017F000016921F490410161416921F02A014161AF
:10180000C16841F40051C16000202021606484F867
:10181000411084F84210606310BD000070B586B0BE
:1018200040F60004C4F201040068A4F54441002617
:101830008842049602D006B070BD00BF41F2180085
:10184000C4F20200416802AD41F4003141604168D8
:1018500001F4003101910199016841F00401016036
:101860000068294600F004000190019804200290CD
:1018700002200390032005902046FEF7D7FE0820A3
:10188000CDE90206204629460496FEF7CFFE06B0B3
:1018900070BD00002DE9F041044690F84100202879
:1018A0001CBF0220BDE8F0810D4600294FF0010069
:1018B00000F0AA801646002A08BFBDE8F08100208B
:1018C00060642120984684F84100FEF7BDFFA6849D
:1018D000E684A1680646B1F5805F02D12069002840
:1018E00062D02F460025E08C002861D018F101005D
:1018F00018D0B8F1000F37D1216808E017F8010BB4
:101900004860E08C0138E084E08C002851D0086801
:10191000000673D5002FF1D135F8020B00276FF3C5
:101920005F20EDE7216802E00868000609D4086836
:10193000000606D4086800065CBF08685FEA00601D
:10194000F2D51FB117F8010B05E000BF35F8020B07
:1019500000276FF35F204860E08C0138E084E08C62
:101960000028E4D125E000BF216800BF0868000618
:1019700008D4FEF769FF801B404541D82168C8683C
:10198000F4E700BF17B117F8010B04E035F8020BBC
:1019900000276FF35F204860E08C0138E084E08C22
:1019A0000028E3D105E000BF0027E08C00289DD18E
:1019B0002168086840061FD4B8F1000F1ED018F146
:1019C00001000FD10868400616D40868400613D4F9
:1019D0000868400610D4086840064FF00000F1D5B2
:1019E0000FE000BFFEF730FF801B404508D820689D
:1019F000C16800684006F5D5002002E0FEF724FF2C
:101A00000320202184F84110BDE8F081FEE70000AA
:101A100070B50368044653F8140F400711D40E46FE
:101A2000481C29D086BB00BF1868400527D4FEF7A4
:101A30000BFF236853F8140F400739D51868400787
:101A4000F2D5002070BD00BF18684007F9D41868AF
:101A5000400514D418684007F3D4186840050ED424
:101A600018684007EDD41868400508D41868400786
:101A70004FF0000048BF70BD18684005E4D56FF412
:101A800080601860042014E0154603E053F8140F3A
:101A90004007D6D418684005F1D4FEF7D5FE401BA8
:101AA0002368B042F2D958694007EFD4202000E003
:101AB000202000212022216384F83D2084F83E105C
:101AC000226C10432064012084F83C1070BD00009B
:101AD0002DE9F041054600681E46144601F47F02D8
:101AE00001338FB242D0DDF81880B2F5803F40F06C
:101AF000878040693840C01BB0FA80F04009A0429E
:101B000040F0C8804EB924E040693840C01BB0FAAC
:101B100080F04009A04240F0BD80FEF795FEA0EBAA
:101B200008012868B142EFD941693940C91BB1FAAF
:101B300081F14909A142E7D19BE000BF40693840EB
:101B4000C01BB0FA80F04009A0424FF0000040F006
:101B5000A680FEF779FE286841693940C91BB1FAB1
:101B600081F14909A142E9D183E000BFB2F5803F8C
:101B700024D100BF41693940C91BB1FA81F149093B
:101B8000A14240F0878041693940C91BB1FA81F117
:101B90004909A14240F07E8041693940C91BB1FA30
:101BA00081F14909A14275D141693940C91BB1FA96
:101BB00081F14909A142DDD06CE000BF8169394063
:101BC000C91BB1FA81F14909A14263D18169394048
:101BD000C91BB1FA81F14909A1425BD18169394040
:101BE000C91BB1FA81F14909A14253D18169394038
:101BF000C91BB1FA81F14909A142DFD04AE000BF17
:101C000080693840C01BB0FA80F04009A04241D141
:101C100046B923E080693840C01BB0FA80F0400923
:101C2000A0423BD1FEF710FEA0EB08012868B142AC
:101C3000F0D981693940C91BB1FA81F14909A14242
:101C4000E8D116E080693840C01BB0FA80F0400946
:101C5000A0424FF0000018BFBDE8F081FEF7F4FD90
:101C6000286881693940C91BB1FA81F14909A1424B
:101C7000E8D100202021286385F83D1085F83E003A
:101C8000296C41F02001296485F83C000120BDE861
:101C9000F08100BF0020BDE8F08100BF0020BDE85A
:101CA000F0810000F0B581B0044600681D4643692C
:101CB0008FB203EA0701B94202D1002001B0F0BDA2
:101CC00041691646013201F4806125D0002940D1D6
:101CD000CEB100BFFEF7B8FD411B2068B14203D969
:101CE00041693940B9424BD141693940B942E4D0E8
:101CF00041694905EED52CE041693940B942DCD053
:101D00004169490525D4FEF79FFD206841693940A6
:101D1000B942F1D0202024E0D9B941693940B94213
:101D2000CBD04169490514D441693940B942C4D086
:101D3000416949050DD441693940B942BDD0416975
:101D4000490506D441693940B942B6D041694905CF
:101D5000E3D5016841F4007101606FF48061416175
:101D6000042000212022216384F83D2084F83E10C5
:101D7000226C1043206484F83C10012001B0F0BDB7
:101D80002020EEE770B504460068154650F8143F71
:101D90005A063DD40E4629B926E000BF50F8141F5C
:101DA000490635D40168C90621D4FEF74DFD411B13
:101DB0002068B142F2D941694906EFD400202021C0
:101DC000206384F83D1084F83E00206C40F0200031
:101DD00018E000BFFEF738FD206850F8141F4906D0
:101DE000ECD50168490613D40168C906F2D56FF035
:101DF0001001016000202021206384F83D1084F848
:101E00003E00206C2064002084F83C00012070BD5E
:101E1000002070BD70B50368044653F8140F000627
:101E200011D40E46481C29D086BB00BF1868400557
:101E300027D4FEF709FD236853F8140F000639D59F
:101E400018680006F2D5002070BD00BF18680006B3
:101E5000F9D41868400514D418680006F3D418683B
:101E600040050ED418680006EDD41868400508D463
:101E7000186800064FF0000048BF70BD18684005A4
:101E8000E4D56FF480601860042014E0154603E088
:101E900053F8140F0006D6D418684005F1D4FEF7A5
:101EA000D3FC401B2368B042F2D958690006EFD436
:101EB000202000E0202000212022216384F83D2002
:101EC00084F83E10226C10432064012084F83C10FA
:101ED00070BD0000F0B585B0044640F27800C2F253
:101EE0000000017042706B2016460D46ADF80B00E5
:101EF00064270DF10B022046D02102230097FEF744
:101F000063FF18B10127384605B0F0BD6420FEF725
:101F100079FB75208DF80D000DF10D022046D021C2
:101F200001230097FEF750FF20B10127384605B086
:101F3000F0BD00BF642000900DF10A022046D021C0
:101F400001230127FEF742FD0028DCD19DF80A009D
:101F50006828D8D140F21970ADF80E0064270DF151
:101F60000E022046D02102230097FEF72DFF18B164
:101F70000127384605B0F0BD1B208DF8100004AADB
:101F80002046D02102238DF811600097FEF71CFF38
:101F900020B10127384605B0F0BD00BF1C208DF8E8
:101FA000120064270DF112022046D02102238DF881
:101FB00013500097FEF708FF0746002818BF0127B7
:101FC000384605B0F0BD000070B584B0044621204D
:101FD00015468DF804008DF80510642601AA2046E8
:101FE000D02102230096FEF7EFFEA0BB22208DF841
:101FF00006000DF106022046D02102238DF807507D
:102000000096FEF7E1FE30BB40F21A40ADF8080042
:10201000642502AA2046D02102230095FEF7D4FEB3
:10202000C8B941F61C40ADF80A000DF10A0220467D
:10203000D02102230095FEF7C7FE60B943F23700B6
:10204000ADF80C00642503AA2046D0210223009598
:10205000FEF7BAFE10B1012004B070BD44F23800A2
:10206000ADF80E000DF10E022046D021022300959E
:10207000FEF7AAFE002818BF012004B070BD0000C2
:1020800083B041F21800C4F20200016841F020015F
:102090000160016801F0200102910299016841F09C
:1020A00004010160016801F00401019101990168D6
:1020B00041F008010160006800F0080000900098FD
:1020C00003B0704780B540F27C0045F20041C2F297
:1020D0000000C4F2000148F2A06200234FF4804CDB
:1020E000C0F2010280E80E00C0E9033CC0E90533FC
:1020F000C0E90733FEF7AEFB002808BF80BDBDE88E
:102100008040FEF779BA000080B540F2D00044F27A
:102110000041C2F20000C4F2000100234FF00C0C99
:102120004FF4E13280E80E00C0E90333C0E905C393
:10213000C361FFF701FB002808BF80BDBDE88040F8
:10214000FEF75ABAFEE70000FEE700007047000005
:1021500070470000FEF754BF70470000FEE7000024
:1021600090B0FEF75BFF0120002406904FF4803012
:102170000225CDE90704CDE90D504FF4E0100F9092
:1021800006A8CDE90B44CDE90944FFF7E5F828B1ED
:10219000EFF3108072B600BFFEE700BF0F20CDE95D
:1021A00001054FF48060CDE9040401A802210394E5
:1021B000FEF7CAFF20B1EFF3108072B6FEE700BF52
:1021C000FFF75EFFFFF77EFFFFF79EFF40F27C0008
:1021D000C2F2000000210022FFF77CFE002840F23E
:1021E000D000C2F200004FF0640307BF24A1172201
:1021F0001DA11622FFF74EFB40F2000640F27C04C0
:1022000040F2181540F2D007C2F20006C2F20004F4
:10221000C2F200050FF28008C2F200070FF29C091B
:102220000FF2BC0A0EE000BF284641460022FDF72F
:10223000CFFF2846FEF7D0F882B2384629466423FD
:10224000FFF728FBD6E900122046FFF7BDFE204627
:10225000FEF798F90028E7D002462846012A12BF67
:10226000514649460122E2E74D505536303530207F
:10227000696E6974206661696C6564210D0A0000ED
:102280004D50553630353020696E69742073756352
:1022900063657373210D0A0044657669636520697F
:1022A00073206D6F76696E672028535441545553DF
:1022B0003D307825303258290D0A00004465766992
:1022C00063652069732072657374696E6720285393
:1022D00054415455533D307825303258290D0A0069
:1022E0004572726F7220285354415455533D3078D3
:1022F00025303258290D0A0030380A2801D2012031
:102300007047002070473031323334353637383932
:102310004142434445464030580030313233343531
:10232000363738396162636465664030780004008E
:102330000008000000000000000200010000100082
:102340000000000000000001020304060708090065
:10235000000000010203040102020304050607084D
:10236000090A0B0C0D0E0F1010000000902300083E
:10237000000000201800000028010008A823000821
:102380001800002030080000440100080000000090
:1023900020000000200000000100000010000000EC
:0823A00000127A0000000000A9
:04000005080000ED02
:00000001FF
